:10000000020681020803FFFFFFFFFF02080BFFFF4C
:10001000FFFFFF020813FFFFFFFFFF02081BFFFFA8
:10002000FFFFFF020823FFFFFFFFFF02082BFFFF78
:10003000FFFFFF020833FFFFFFFFFF02083BFFFF48
:10004000FFFFFF020843FFFFFFFFFF02084BFFFF18
:10005000FFFFFF020853FFFFFFFFFF02085BFFFFE8
:10006000FFFFFF020863FFFFFFFFFF02086BFFFFB8
:10007000FFFFFF020873FFFFFFFFFF02087BFFFF88
:10008000FFFFFF020883FFFFFFFFFF02088B576F90
:10009000726B466F72596F7572447265616D006262
:1000A0006F6F74006A756D700009017E007F0253E6
:1000B000BEFBE59DA2E650FA0078F8790100E8243D
:1000C000FF18E934FFF9E84970F375C6807480655C
:1000D0009E70FA43BE049062707408F043FE0443BD
:1000E000FE0875F80075FC0B75FAD843FC2043F147
:1000F0000243F4E053F4F143900EC29143FE0E53D9
:10010000F5DFD2FED2917401F5D575D4017C1D7D49
:10011000007AE37B0778E37987E5C7F50A53C7F8E8
:10012000801C88828983E08A828B83F0888289831D
:10013000A3A882A9838A828B83A3AA82AB838C081B
:100140008D09E50824FF1CE50934FFFDE508450994
:1001500070D0850AC753FDDF53C6BFE59EA2E640B7
:10016000FA53C6B875F10075F33C53FF3F438680E0
:1001700043C50B43C2D8C2E9438640C28B53B38FF9
:1001800043B340900124E0F8A3E0F9E5B354F84408
:1001900004F5B343B3017A008A088E09E82508F50F
:1001A00082E93400F583E0F5B10AEAC3941040E82F
:1001B000A2857C047D00500302029B7A1A7B011207
:1001C00002AF43FE18C29402026E7508147509014D
:1001D000780812066179017C107D007A147B011287
:1001E00004247402120634EEF8EF5401F9E8497061
:1001F0001A8E088F0974097808120672E508C3334D
:10020000906272F0906270E0D2E0F0900113E0131F
:1002100013543FF89001017401F0A37414F0A37417
:1002200062F0A37473F0A3E0541FF0E8333354FC7E
:10023000A3F0900105E4F09001077412F0A374425A
:10024000F053D1FE75D601EE906271F0EFA3F0127B
:1002500007E3900113E01313543FF8EE28FEEF3448
:1002600000FFA3E4F09001137402F01203A712033D
:1002700015E960FA900100E4F0900102F09001119C
:10028000E024BF70030201CA1470E3900114745596
:10029000F0A3E4F0900113740380CF7A1F7B011266
:1002A00002AF0208002289C1A2E950FCC2E922740F
:1002B000F812052B78007900801A8A828B83E0F58A
:1002C000C1A3AA82AB83A2E950FCC2E9E8240108D9
:1002D000E93400F9C3E89CE99DA2D265D03340DA45
:1002E0007F010205D9C082C08379007800A28B40CB
:1002F0001B0974FC69700379000874FC6870EE9047
:100300000101E0640170E6E4F0F98004C28BA9C148
:10031000D083D0822274F712052B900101E4F012F1
:1003200002E5E9647E6004790080627401F01202E3
:10033000E5E9900110F090016412039560E9E890FE
:10034000011112039260E0E890011212039260D74B
:10035000E89001131203A0F07E008019120396604A
:10036000C68E0874142508F58274013400F583E8FC
:100370001203A0F00E900113E0F8EEC39840DD12D6
:10038000039660A3900164E068709C79017F02028B
:1003900005D91203A0F01202E5E9F8900101E0226C
:1003A000F0900164E0282274F712052B797E120286
:1003B000A6900110E0900164F0F91202A6900111DC
:1003C00012041B90011112041190011212041190D9
:1003D000011312040B7E0080208E0874142508F887
:1003E00074013400F988828983E0FA900164E02A7C
:1003F000F08882898312040B0E900113E0F8EEC39B
:100400009840D690016412040B8082E0F91202A693
:1004100022E0F91202A6A312041B22E0F890016464
:10042000E028F02274EF12052B890E741112069D3C
:10043000E0F8A3E0F9E8FEE9FF8C088D0974047880
:100440000812067285080A85090BEC540F600CE54A
:100450000A2401F50AE50B3400F50BE50E600AE508
:10046000B354F84402F5B3800353B3F8E5B35470C2
:10047000F50F7508007509008047E4F5B10511E531
:1004800011C394104075750C0F850C1074FF251066
:10049000F50C0470F4751100E5B2C0E012051DEE14
:1004A000250CF582EF350DF583D0E0F00511E5114F
:1004B000C3941040E3E5082401F508E5093400F58C
:1004C00009C3E508950AE509950B504C43B301852E
:1004D000080C85090D7404780C12064EA80CA90DA1
:1004E0007410650F60CF7420650F60C97430650F9C
:1004F00060C37450650F60BD75110012051DC3E522
:100500000C9CE50D9D400302047AEA250CF582EB74
:10051000350DF583E002047B7F0A0205D985110CB5
:10052000E8250CF50CE93400F50D222518C582C02C
:10053000E0E51934FFC583C0E0E518C3958224F9CE
:1005400010AF0885831985821880088583198582F4
:1005500018D2AFCEF0A3E520F0A37808E608F0A308
:10056000DEFAEFF0A3E58124FBF8E608F0A3E60845
:10057000F0A30808E608F0A3E608F0A315811581AA
:10058000D0E0FED0E0F815811581E8C0E0EEC0E0D3
:10059000221206ACB900030205D3E49001017809E8
:1005A00079018002F0A3D8FCD9FA900109AA82ABA4
:1005B0008390008E781E79018015E493A3AC82AD00
:1005C000838A828B83F0A3AA82AB838C828D83D8AB
:1005D000E9D9E71200AB1206A7851983851882E0D6
:1005E000A3FEE0A3F5207808E0A3F608DFFAE0A375
:1005F000FFE0A3C0E0E0A3C0E0E0A3C0E0E0A3C050
:10060000E010AF08858218858319800885821885D7
:100610008319D2AFD083D082222518F58210AF087B
:10062000F518400215198008F51840021519D2AFC7
:1006300085198322C0D0251810AF08F5185002057F
:10064000198008F51850020519D2AFD0D0227004D5
:1006500022600D18C6C333C608C633C6D5E0F418E9
:100660002274028000C0E0F404120619D0E01206E1
:100670009022600C08C6C313C618C613C6D5E0F492
:100680002275D00075814075180175190102059118
:10069000CAC0E0E6F0A308DAFAD0E0FA222518F59D
:1006A00082E43519F5832200000080FB790122FFE6
:1006B000FFFFFFFFFFFFFFFFFFFFFFFFFFFFFFFF4A
:1006C000FFFFFFFFFFFFFFFFFFFFFFFFFFFFFFFF3A
:1006D000FFFFFFFFFFFFFFFFFFFFFFFFFFFFFFFF2A
:1006E000FFFFFFFFFFFFFFFFFFFFFFFFFFFFFFFF1A
:1006F000FFFFFFFFFFFFFFFFFFFFFFFFFFFFFFFF0A
:10070000FFFFFFFFFFFFFFFFFFFFFFFFFFFFFFFFF9
:10071000FFFFFFFFFFFFFFFFFFFFFFFFFFFFFFFFE9
:10072000FFFFFFFFFFFFFFFFFFFFFFFFFFFFFFFFD9
:10073000FFFFFFFFFFFFFFFFFFFFFFFFFFFFFFFFC9
:10074000FFFFFFFFFFFFFFFFFFFFFFFFFFFFFFFFB9
:10075000FFFFFFFFFFFFFFFFFFFFFFFFFFFFFFFFA9
:10076000FFFFFFFFFFFFFFFFFFFFFFFFFFFFFFFF99
:10077000FFFFFFFFFFFFFFFFFFFFFFFFFFFFFFFF89
:10078000FFFFFFFFFFFFFFFFFFFFFFFFFFFFFFFF79
:10079000FFFFFFFFFFFFFFFFFFFFFFFFFFFFFFFF69
:1007A000FFFFFFFFFFFFFFFFFFFFFFFFFFFFFFFF59
:1007B000FFFFFFFFFFFFFFFFFFFFFFFFFFFFFFFF49
:1007C000FFFFFFFFFFFFFFFFFFFFFFFFFFFFFFFF39
:1007D000FFFFFFFFFFFFFFFFFFFFFFFFFFFFFFFF29
:1007E000FFFFFFC082C08343C708906270E0D2E180
:1007F000F0E0A2E740FB53C7F7D083D08222FFFF8F
:100800000212A10209CBFFFFFFFFFFFFFFFFFFFF67
:10081000FFFFFF0209E7FFFFFFFFFFFFFFFFFFFFF3
:10082000FFFFFFFFFFFFFFFFFFFFFF022163FFFF4F
:10083000FFFFFFFFFFFFFFFFFFFFFF020A3CFFFF7D
:10084000FFFFFFFFFFFFFFFFFFFFFF020FB0FFFFF4
:10085000FFFFFF02090BFFFFFFFFFF020FBFFFFFBC
:10086000FFFFFF020FCBFFFFFFFFFF022158FFFF3B
:10087000FFFFFFFFFFFFFFFFFFFFFFFFFFFFFFFF88
:10088000FFFFFF02095901010FFEFF0300030003F0
:100890000003000300030003000300030005000A37
:1008A00000140028004F009E000000FE17FE17FEF7
:1008B00017D216CC16FE17F82100000000BC22004B
:1008C0000000000C0000000C009C04FF016400020A
:1008D0000202071E02051E020A03B80B02F0FF0205
:1008E000011700FF477530600401A00401A0040156
:1008F000A0040100000100000F00FF48FF000000FD
:100900000000000000000000020206C0E074F212C5
:100910000C84E5A7F8E5A1F95854106008121C1ED4
:1009200053A1EF802FE8A2E0C0D0E9A2E092F0123C
:10093000123D158182F0501C906198E0F8900E9362
:10094000E4F0900E92E0C398A2D265D0335002E852
:10095000F053A1FE7F01020D3BC0E074F2120C8443
:100960009061A4E0F8759B00E59158540860087503
:1009700091F7121C608038E5915854106008759109
:10098000EF121C668029E59158540260085391FDCE
:10099000121E82801AE8A2E0C0D0E591A2E092F097
:1009A00012123D158182F050065391FE121E88905E
:1009B00061A3E0F8E5E9585404600E121EAC75E935
:1009C000FB906193E0A2E640F28089C0E074F212ED
:1009D0000C849061A5E0F8E5BF585404600653BF4D
:1009E000FB121EE8020954C0E0C0D0E8C0E0E9C034
:1009F000E0C082C083E5C1C0E0900DFDE0F8747CEA
:100A000028F582740D3400F583D0E0F0900DFCE001
:100A1000F8A3E0687006E595900DFFF0900DFDE0FD
:100A200004F0C394804002E4F0A374C6F0D083D0F5
:100A300082D0E0F9D0E0F8D0D0D0E032C0E0C0D031
:100A4000E8C0E0C008C009C082C083900E80E0F812
:100A5000A3E0687008539AFBA374018026C2E99052
:100A60000E80E0F50874012508F074002508F58271
:100A7000740E3400F583E0F5C1900E80E0C39480DD
:100A80004002E4F0D083D082D009D00880A6C3E42D
:100A900098F8E499F9120ACF8026C3E49AFAE49B05
:100AA000FBE920E7E9120ACFE498F8E499F922C3B8
:100AB000E498F8E499F9120ACFE498F8E499F9C3B4
:100AC000E49AFAE49BFB22EB20E7CFE920E7E0B9C8
:100AD0000010BB0008E88AF084F8AAF022E4FBC802
:100AE000FA22EB70227B10C833C8C933C9335007D0
:100AF000C39AC3DBF280069A50012ADBEAC833F4BA
:100B0000C8C933F4C9FA2275F008E4C833C8C93338
:100B1000C933C99AC99B5004C92AC93BD5F0ECFB1B
:100B2000C833F4C8E4C9FA22080808EAC0E0EBC0F8
:100B3000E086F0E7A4FA180986F0E7A42AFA180973
:100B400086F0E7A42AFA180986F0E7A42AFA19869B
:100B5000F0E7A4FBE5F02AFA190886F0E7A42BFBDE
:100B6000E5F03AFA190886F0E7A42BFBE5F03AFA2B
:100B700018180986F0E7A4C5F02BFBE43AFA190827
:100B8000E7C5F0C6A426F6E5F03BFBE43AFA188682
:100B9000F0E7A4F6E5F00826F6E43B08F6E43A08A8
:100BA000F6D0E0FBD0E0FA22E4CFC0E0E4CEC0E033
:100BB000E4CDC0E0E4CCC0E075F020C3E633F60835
:100BC000E633F608E633F608E633F6181818EC3381
:100BD000FCED33FDEE33FEEF33FFC3EC9709ED97E9
:100BE00009EE9709EF97191919400FFFEC97FC09C7
:100BF000ED97FD09EE97FE191906D5F0BEECF70941
:100C0000EDF709EEF709EFF7191919D0E0FCD0E07C
:100C1000FDD0E0FED0E0FF222518C582C0E0E51936
:100C200034FFC583C0E0E518C3958224F810AF08EF
:100C30008583198582188008858319858218D2AF2B
:100C4000CEF0A3E520F0A37808E608F0A3DEFAEFE3
:100C5000F0A3E58124FAF8E608F0A3E608F0A3E69D
:100C600008F0A30808E608F0A3E608F0A31581152C
:100C700081D0E0FED0E0F8158115811581E8C0E053
:100C8000EEC0E022C0D02518C582C0E0E51934FFCF
:100C9000C583C0E0E518C3958224F310AF088583AF
:100CA000198582188008858319858218D2AFC8F00B
:100CB000A3E9F0A3EAF0A3EBF0A37908E709F0A316
:100CC000D8FAECF0A3EDF0A3EEF0A3EFF0A3D0E0A0
:100CD000F0A3D0E0F0A3D0E0F0A3E520F0A3E5F08E
:100CE000F0A322121303B90003020D25E4900301BF
:100CF00078A379128002F0A3D8FCD9FA9014A3AAA1
:100D000082AB83900886788679018015E493A3AC42
:100D100082AD838A828B83F0A3AA82AB838C828D7F
:100D200083D8E9D9E77582067583C67402120DDF90
:100D300075825E7583217400120DDF851983851815
:100D400082E0C0E0A3E0F9A3E0FAA3E0FBA3780807
:100D5000E0F608A3DFFAE0FCA3E0FDA3E0FEA3E0D9
:100D6000FFA3E0C0E0A3E0C0E0A3E0F5D0A3E0F57E
:100D700020A3E0A3F5F010AF0885831985821880C1
:100D800008858319858218D2AFD082D083D0E0F84D
:100D9000D0E032D083D082ECC0E0EDC0E0E493A399
:100DA000FCE493A3FDED4C600D120EB5EC24FFFCAA
:100DB000ED34FFFD80EFE493A3FCE493A3FDED4C41
:100DC000600D120F5BEC24FFFCED34FFFD80EFD0D3
:100DD000E0FDD0E0FCE493A3C0E0E493C0E022C0D7
:100DE000F0F5F0E59F5407C0E0E59F54F845F0D0DA
:100DF000F0F59FE473859FF053F0F8D0E045F0F5EF
:100E00009F22D083D082E59F5407C0E0E493C0E0E6
:100E1000740193C0E07402935407C0F0F5F0E59FAD
:100E200054F845F0D0F0F59F22851983851882E0AB
:100E3000A3FEE0A3F5207808E0A3F608DFFAE0A31C
:100E4000FFE0A3C0E0E0A3C0E0E0A3C0E0E0A3C0F7
:100E5000E0E0A3C0E010AF08858218858319800800
:100E6000858218858319D2AFD083D082020DF5D048
:100E700083D082E9C0E0E493A3C386F0C5F095F087
:100E8000F908E493A386F0C5F095F0700BE493A302
:100E9000C3994005E9048002A3E475F002A4258209
:100EA000F582E5F03583F583D0E0F9E493A3C0E063
:100EB000E493C0E022C0E0C3E493960874019396E3
:100EC00018400FE493667008087401936618700068
:100ED0007019A3A3C3E49396087401939618A3A36F
:100EE000400DD0E0D0E0D0E0020DCFA3A3A3A3A398
:100EF000A3D0E022D083D082C5F0E493A3C5F0C391
:100F000095F0F5F0E493A3C395F04005E5F0048077
:100F100001E475F002A42582F582E5F03583F583BE
:100F2000E493A3C0E0E493C0E0227404800474025C
:100F30008000CCC0E0EDC0E0E518C39CCCAD1950FA
:100F4000011D10AF068C188D1980068C188D19D2D2
:100F5000AF120FF9D0E0FDD0E0FC22C0E0C0F08875
:100F6000F0E4936670080874019366187000A8F0A6
:100F7000A3A3700BD0F0D0E0D0E0D0E0020DCFA35F
:100F8000A3D0F0D0E022D083D082CCC0E0E493A301
:100F900060061210391470FAE493A360061211125D
:100FA0001470FAD0E0FCE493A3C0E0E493C0E02224
:100FB000C0E074F2120C84121B7C7F01020D3BC056
:100FC000E074F2120C84121B8280EFC0E074F21203
:100FD0000C84121B8880E3CAC0E0E493A3C582CCD2
:100FE000C582C583CDC583F0A3C582CCC582C58328
:100FF000CDC583DAE5D0E0CA22CAC0E0E0A3C5824D
:10100000CCC582C583CDC583F0A3C582CCC582C5BE
:1010100083CDC583DAE6D0E0CA2270090808082229
:101020006016181818C6C333C608C633C608C633B8
:10103000C608C633C6D5E0EA22C0E0E493A3D39C39
:101040005010E493A3C39C400AD0E0D0E0D0E0026B
:101050000FA3A3A3A3D0E022C008C3E096F508081D
:10106000A3E096420808A3E096420808A3E096454C
:10107000087001D3D008227404800A7403800674B7
:101080000280027401C0E0F404121092D0E0121247
:10109000DE222518F58210AF08F5184002151980D8
:1010A00008F51840021519D2AF85198322BB010239
:1010B000E722C082C08389828A83BB0003E080026A
:1010C000E493D083D08222C0D0251810AF08F51841
:1010D000500205198008F51850020519D2AFD0D07A
:1010E000226016080808C6C313C618C613C618C659
:1010F00013C618C613C6D5E0EA22C3E0C696F608A2
:10110000A3E0C696F608A3E0C696F608A3E0C69646
:10111000F622C0E0E493A36C7009D0E0D0E0D0E008
:10112000020FA3A3A3D0E022251810AF08F51840A2
:101130000215198008F51840021519D2AF22E06691
:10114000701008A3E066700A08A3E066700408A3A4
:10115000E06622C3E7960809E7960809E7960809BA
:10116000E796A2D265D03322C3E09608A3E09608A2
:10117000A3E09608A3E096A2D265D03322C3E697F7
:10118000F60809E697F60809E697F60809E697F6DD
:1011900022C3E096F008A3E096F008A3E096F008DA
:1011A000A3E096F022E627F60809E637F60809E6F6
:1011B00037F60809E637F622E026F608A3E036F609
:1011C00008A3E036F608A3E036F622E657F608094B
:1011D000E657F60809E657F60809E657F622E056FC
:1011E000F608A3E056F608A3E056F608A3E056F684
:1011F00022E056F008A3E056F008A3E056F008A35A
:10120000E056F022E647F60809E647F60809E64701
:10121000F60809E647F622700422600D18C6C333AB
:10122000C608C633C6D5E0F41822E026F008A3E0CD
:1012300036F008A3E036F008A3E036F022C0E0E87C
:10124000C0E0E58124FCF8E6A2E7D0E0F8D0E02297
:10125000E4C396F608E496F608E496F608E496F6F3
:1012600022C6F4C608C6F4C608C6F4C608C6F4C644
:1012700022600D08C6A2E713C618C613C6D5E0F350
:1012800022C3E7960809E7960809E7960809E79652
:1012900022C3E09608A3E09608A3E09608A3E09690
:1012A0002275D00075814075180175190300020C74
:1012B000E3600C08C6C313C618C613C6D5E0F422F3
:1012C000E6F008A3E6F008A3E6F008A3E6F022E0C3
:1012D000F608A3E0F608A3E0F608A3E0F622CAC0E9
:1012E000E0E6F0A308DAFAD0E0FA22E0FAA3E0FBA5
:1012F000A3E0FCA3E0FD22EAF0A3EBF0A3ECF0A353
:10130000EDF022E5C754F84401F5C779012225180C
:10131000F582E43519F58322120E024ADE01120E1F
:101320000254DE01120E025EDE01120E0278DE01B0
:10133000120E0282DE01120E028CDE01120E0296E5
:10134000DE01120E02CDDE01120E0271DF01120E5D
:10135000023EE101120E0261E101120E0233E201CE
:10136000120E0213E301120E02ABE501120E020D82
:10137000E701120E02D4E801120E0226E901120E54
:10138000021FEA01120E0274EA01120E0230EC0191
:10139000120E025CED01120E02BCED01120E027281
:1013A000EE01120E025AEF01120E0213F101120E9B
:1013B0000232F101120E028EF101120E0266F201EA
:1013C000120E028BF201120E02DCF201120E02BEAC
:1013D000F301120E02F6F301120E0236F401120EA0
:1013E0000299F401120E02B5F501120E0215F60172
:1013F000120E02FBF601120E0203F901120E021F79
:10140000F901120E02C4FA01120E020AFB01120EB9
:1014100002E8FB01120E0242FC01120E028AFC01DC
:10142000120E02FAFC01120E0288FD01120E020CCD
:10143000FE01120E0278FE01120E02718001120EE0
:1014400002C38001120E02FD8201120E02498301C5
:10145000120E021B8401120E028A8401120E02CDAA
:101460008501120E021A8801120E02418901120E24
:1014700002A89101120E02259201120E02A59401FA
:10148000120E02919501120E023D9601120E0254A7
:101490009901120E02B49901120E02759A01120EF0
:1014A00002A09A01120E02419B01120E02259C011C
:1014B000120E02009D01120E028F9D01120E02BC3F
:1014C0009D01120E02DE9D01120E02D19F01120E2D
:1014D00002B1A001120E02FEA001120E025FA101D4
:1014E000120E0221A201120E0256A201120E02A435
:1014F000A201120E02D4A201120E0212A301120EB8
:10150000026AA301120E02C5A301120E02EDA3018D
:10151000120E020CA501120E0278A501120E02E2B3
:10152000A501120E026EA601120E0285A901120E6D
:101530000251AA01120E02C1AB01120E0215AE0138
:10154000120E02BDAE01120E0272AF01120E0200A7
:10155000B101120E029DB101120E02E5B101120E8F
:101560000281B301120E0295B301120E02A2B30161
:10157000120E02BDB301120E02DBB301120E02D82D
:10158000B501120E02CBB601120E020FB701120EF8
:101590000292B701120E0292B801120E02C2B901F4
:1015A000120E0297BA01120E0238BB01120E02C8C7
:1015B000BB01120E02DFBB01120E0218BC01120E9B
:1015C000025CBC01120E027DBC01120E0297BC012E
:1015D000120E020FBD01120E0263BE01120E025660
:1015E000BF01120E0272BF01120E02D5BF01120E10
:1015F000022AC001120E02E8C001120E02F7C10158
:10160000120E02A3C201120E027AC301120E02E6EA
:10161000C301120E027AC401120E02A9C401120EF5
:101620000208C501120E02B6C501120E02DCC50188
:10163000120E02D4C601120E0217C701120E028644
:10164000C701120E0200C801120E0226C801120EB6
:101650000252C801120E029DC801120E02F6C80104
:10166000120E0295C901120E0227CB01120E02942E
:10167000CB01120E02BDCB01120E0223CC01120EC1
:10168000027ACC01120E02D2CC01120E02B6510027
:10169000120E02C25100120E02CE5100120E022F83
:1016A0005200120E028F5200120E02E05200120E71
:1016B00002FB5200120E022B5300120E024C53007A
:1016C000120E02865300120E02A45300120E020DD7
:1016D0005400120E02205400120E02375400120E53
:1016E00002CA5400120E02C95500120E02C556005D
:1016F000120E02475700120E02515700120E02B48A
:101700005700120E02C55700120E02085800120EA2
:10171000024F5800120E02855800120E02BB5800EC
:10172000120E02D95800120E02FD5800120E023E8F
:101730005900120E02315A00120E02775A00120E90
:1017400002B25A00120E020F5B00120E02375B004B
:10175000120E02705B00120E027E5B00120E02DFA0
:101760005B00120E021C5C00120E025E5C00120E88
:10177000028F5C00120E02C35C00120E02CE5C00EF
:10178000120E02EC5C00120E02B45D00120E02BEDC
:101790005D00120E02035E00120E026D5E00120E5C
:1017A00002815E00120E02795F00120E02925F004B
:1017B000120E02A75F00120E02476000120E02AB6B
:1017C0006000120E027D6100120E02996100120E7D
:1017D00002F16100120E02286200120E0242620043
:1017E000120E02816200120E029C6400120E0206AA
:1017F0006500120E02716500120E02C86700120E1B
:1018000002D86700120E02DB6700120E02E76700C3
:10181000120E02FB6700120E02036800120E02385D
:101820006800120E02E66800120E02566900120EDF
:1018300002BA6900120E02536A00120E02ED6A002B
:10184000120E021B6B00120E02B16B00120E02E0B0
:101850006B00120E02026C00120E02296C00120EB6
:10186000028F6C00120E02F96D00120E02FC6D0068
:10187000120E022B6E00120E02406E00120E02B704
:101880006E00120E02A36F00120E027B7000120E89
:1018900002057100120E023A7200120E02EC720082
:1018A000120E02257300120E02567300120E025F12
:1018B0007300120E024B7400120E02C77400120E57
:1018C00002547500120E021E7600120E02A276005D
:1018D000120E02D87600120E02217700120E025765
:1018E0007700120E026ADA02120E0278DA02120E83
:1018F00002D4DA02120E0200DB02120E0288A002EB
:10190000120E02D0A002120E023EA102120E0261BD
:10191000A102120E0201A202120E020AA202120E6D
:101920000257A202120E0280A202120E02E0A202CE
:10193000120E0276A302120E02C3A302120E021DA1
:10194000A402120E02A5A402120E02EAA402120EB2
:101950000229A502120E025EA502120E0270A50255
:10196000120E0282A502120E029EA502120E02673C
:10197000A602120E0284D802120E02B2CC02120E7D
:101980000216CD02120E0287D801120E0233CE02C9
:10199000120E02008002120E02DF8002120E021BE3
:1019A0008102120E02B88202120E02FA8202120E96
:1019B00002AE8402120E02F28402120E02D38502DB
:1019C000120E02608602120E02EB8602120E024115
:1019D0008702120E02818702120E02238902120E62
:1019E00002AC8A02120E02C38C02120E0240DE0109
:1019F000120E02368D02120E020F9002120E029289
:101A0000DD02120E02B0BD02120E02C3BD02120EA2
:101A10000261BE02120E029CBE02120E02B7BE028C
:101A2000120E02DCBE02120E0221BF02120E025280
:101A3000BF02120E0283BF02120E02FAC002120E81
:101A40000282D902120E02F6D902120E0238DA020E
:101A5000120E0248DA02120E0252DA02120E02626C
:101A6000AB02120E027DAB02120E02B9AB02120ED5
:101A700002D7AB02120E023AAC02120E02B1AD0254
:101A8000120E02E6AD02120E020EAE02120E02138A
:101A9000AE02120E0216AE02120E023FAE02120E7D
:101AA000029FAE02120E02BCAE02120E02C6AE02BF
:101AB000120E02D2AE02120E02845000120E027CEE
:101AC0005000120E02A1CE02120E02F0CE02120E31
:101AD00002A9CF02120E020FD002120E0273C6022A
:101AE000120E02C9C602120E024BDD02120E025C79
:101AF000D202120E026AD202120E026B5000120EB5
:101B000002F3DD02120E0205DE02120E0262D5029F
:101B1000120E0289D502120E020ED602120E0267B2
:101B2000D602120E02DD9E03120E02815000120E2A
:101B300002F7B202120E0205B302120E027FB302C6
:101B4000120E024BB402120E02F7B502120E025C24
:101B5000B602120E02B7B602120E02F87F00120E83
:101B60000248C802120E0273C902120E0208CA020B
:101B7000120E020AD402120E0243D402120E0260A6
:101B8000D402120E02BED402120E0223D502120E8D
:101B90000286CA02120E0224CB02120E02A4CB024B
:101BA000120E02BCCB02120E0235CC02120E0294AF
:101BB000CC02120E02A8CC02120E0290A602120E45
:101BC00002E3A602120E02EBA802120E021DA902E7
:101BD000120E023FA902120E0258A902120E027141
:101BE000A902120E0273AA02120E0201AB02120E19
:101BF0000280D002120E02B2D002120E02BED00239
:101C0000120E02F1D002120E0222D102120E025066
:101C1000D102120E025DD102120E02D2D102120EB8
:101C20000201D202120E0211C102120E0237C102CB
:101C3000120E0274C102120E0286C102120E02A21C
:101C4000C102120E0210C202120E0219C202120EBC
:101C50000278C202120E029CC202120E025BC30282
:101C6000120E0268C302120E0279C302120E028D16
:101C7000DC02120E02D7DC02120E0268AF02120E54
:101C800002AAB002120E02B7B002120E02CAB002CD
:101C9000120E02E9B002120E02FFB002120E02137F
:101CA000B102120E028DB102120E020BB202120E1E
:101CB0000284B202120E02CCB202120E02E2B20290
:101CC000120E02F4DB02120E0218DC02120E0240A7
:101CD000DC02120E0268DC02120E02A7C302120E10
:101CE00002C0C302120E02CCC302120E02E0C302F3
:101CF000120E02FEC302120E0208C402120E0212DB
:101D0000C402120E0225C402120E0285C402120E73
:101D100002BEC402120E02ECC402120E023AC50246
:101D2000120E0287C502120E02A2C502120E02ACEA
:101D3000C502120E02BDC502120E0203C602120E29
:101D400002F6DC02120E023EDD02120E02FC24003C
:101D5000120E025F2600120E02C62600120E02BFED
:101D60002700120E02412800120E02902800120EC7
:101D7000020B2A00120E023E2A00120E02672B00EE
:101D8000120E027F2B00120E02962B00120E025B27
:101D90002C00120E029B2C00120E02242D00120E9B
:101DA00002562D00120E02342E00120E02512E0089
:101DB000120E02332F00120E02493000120E028959
:101DC0003500120E02D43600120E02C13700120E78
:101DD00002F73700120E020A3800120E023F3800D6
:101DE000120E02F83800120E02073900120E024FCE
:101DF0003900120E02783900120E02F03900120E6C
:101E0000025A3A00120E02F73A00120E02C83E00C1
:101E1000120E02AD3F00120E02294000120E027691
:101E20004000120E02E54000120E02FB4000120EAE
:101E3000023A4200120E024B4200120E021E4500F0
:101E4000120E02694600120E02A74600120E02543C
:101E50004700120E02CB4700120E02204800120E5D
:101E6000027D4900120E021F4A00120E02A64A000D
:101E7000120E022D4B00120E02774B00120E02BE04
:101E80004B00120E02D54C00120E02DF4C00120E57
:101E900002CC7700120E02F87700120E02147800BE
:101EA000120E02277800120E023D7800120E02A9CF
:101EB0007800120E02DC7800120E02397C00120E3D
:101EC00002647D00120E02977D00120E02FC7D005E
:101ED000120E02E47E00120E020C7F00120E021C93
:101EE0007F00120E02607F00120E02B57F00120EFC
:101EF00002C57F00120E02CAFE01120E02E5FE01AB
:101F0000120E020EFF01120E0228FF01120E024DE8
:101F1000FF01120E026CFF01120E0284FF01120E6D
:101F200002B2FF01120E02CCFF01120E0246DB02CA
:101F3000120E027FDB02120E02EB4C00120E02F2B6
:101F40004C00120E02FE4D00120E022E4E00120E1A
:101F500002544E00120E02874E00120E02994E00DD
:101F6000120E02D34E00120E02394F00120E0272F0
:101F70004F00120E02BE4F00120E02EB4F00120E67
:101F8000020B5000120E0280D602120E0292D602EE
:101F9000120E0281D702120E0284D702120E02E341
:101FA000D702120E0221D802120E0262D802120EBD
:101FB000024ABA02120E0266BA02120E02B1BA0246
:101FC000120E02CDBA02120E0205BB02120E02124E
:101FD000BB02120E022FBB02120E0212BC02120E24
:101FE0000219BD02120E0224BD02120E0236BD02FB
:101FF000120E023FBD02120E0249BD02120E02CBAA
:10200000B602120E0245BA02120E02BFDD02120E15
:1020100002E9D601120E0265D601120E025BD6014C
:10202000120E0249D601120E021CD601120E02F93E
:10203000D501120E0285D501120E0260D401120ED6
:10204000023BD401120E02E5D301120E02C0D301ED
:10205000120E027DD301120E028DD201120E02FD6C
:10206000D101120E024CD101120E0272D001120ED9
:102070000225D001120E0204D001120E02C9CF01B6
:10208000120E02A5CF01120E028ACF01120E021A01
:10209000CF01120E0248CE01120E023EDC01120EDA
:1020A0000252DB01120E0283DA01120E0270DA0113
:1020B000120E0237DA01120E02AECD01120E023DEF
:1020C000CD01120E021ECD01120E020CCD01120E18
:1020D00002A1D901120E025DA002120E023FA0025F
:1020E000120E028D9F02120E02F19E02120E02D1FA
:1020F0008C02120E02859D02120E022D9B02120E00
:1021000002CC9A02120E02509802120E02F59702A9
:10211000120E027D9702120E02259702120E028FF6
:102120009502120E02C39402120E02A39402120E22
:1021300002F69302120E02789202120E023F9202EF
:10214000120E025B9102120E02509002120E02FD5C
:10215000D801120E023ACD02758900C2C5320000C4
:102160000080FBC2C732E473000136360101000172
:10217000020100010301000104010606050200003E
:10218000070100340801000F090401010D0100FFDF
:102190000E08000017020000190100FF1A010001DB
:1021A0001B0100FE1C0100081D0200001F010001B0
:1021B00020010001210200002301000F2402000081
:1021C0002601000127010008280200FF2A0100075C
:1021D0002B0102402C0100002D0100012E01000105
:1021E0002F0100FF30010B1C310800003A010008EC
:1021F0003B01000F2F01000003007100300160005F
:1022000011007000310220035004800010006100B2
:1022100000001400630073007200620043000000BD
:10222000130006000000000004001200000000007F
:102230000000000004000400370037003C024400A6
:102240000000000000000000650000003500810073
:10225000000005000000830000000302710230014D
:1022600060021102700201020202020280021002E8
:1022700061023A0041006302730272026202430289
:1022800000021302380000020002040212020002DF
:1022900000020002000204020402370037003C0280
:1022A0004402000239000002000265020002350209
:1022B000810200020502820283020002010371030F
:1022C00001030103010301030103220302030103CC
:1022D00010030003000300030003000300030003D6
:1022E0004203000324030603000300030403120354
:1022F000250323032503230304030403000300032E
:1023000000034403000300032303000365032100CB
:1023100035038103000305030003000300030101EB
:1023200071010101010111010101310101010101ED
:102330008001100161013B0014006301730172010F
:10234000620143010001130106013D013500040152
:102350001201000100010001000104010401330128
:1023600033013C01440132013600000100016501E6
:102370000001350081010001050182018301000196
:1023800036000100060000000F0000000000000001
:1023900000000000000003FFFF00000403FFFF0037
:1023A00000FFFF0FF4010005C4040320000100003A
:1023B0000B000000000000000003010F0174140670
:1023C0009214088C140B9E1410FC13027A140586C8
:1023D000140780140C5C140D6814FF000003000344
:1023E000000400080010001F003E007B00F600EC17
:1023F00001D703AF075D0FB91E713D00002C175CBC
:10240000173217381756174A174417621768176E8E
:10241000177A173E172617201703EAF5E5D5D5C515
:10242000B5A59595858575756565555545453535CC
:1024300025251515059C36063A703DD9404344AD17
:1024400047174B814EEA5100160F00000B150B0287
:102450000002220F320000060001020304050607F5
:1024600008090A0B0C0D0E0FFE1710181618F61699
:102470001C18F016FC167C189A18A01882188E18D2
:102480008818303016181920231A1C1E3000383CCA
:102490003E363B3B352B432C00034948424D181731
:1024A0002505020C0E020B040B0A0708000F0001A1
:1024B0001916181616152303003030171819213075
:1024C0001B1D1F3064182218281834182E18501796
:1024D00074179418801786170005150D0910080445
:1024E00000000000000000BE040A15000C010309F2
:1024F00005080C08040C0A090004280F74F2120CD9
:10250000188A0A8B0B122D03122779AE08800F8EC2
:10251000088F09122E10E509124952FEA3E0FFEEC2
:102520004F7003022622EE2402F50CEF3400F50D65
:10253000850C82F583E0650A7004A3E0650B70CF1B
:10254000900F37E0240F08081229AD600214F0EE56
:10255000240EF582EF1249526401900F377005E0A6
:10256000241280301226296007888289831234D988
:10257000900F37122629FB88828983E0FA79C112ED
:102580001E22900F37122632F582E9124518900F5D
:1025900037E024131229AC600214F0900F37E024C6
:1025A0000D122E1FFAE9FB900F6F122F1BEE6870B1
:1025B00002EF6970218A828B83122F1BEE687002F2
:1025C000EF697008900F6FE4F0A38009EE240FF517
:1025D00082EF122CF0F08A828B831234916E70029B
:1025E000E96F700EE8122E12E9122F188A828B837F
:1025F0008010EE122E12EF122F18122E10E5091273
:1026000036C0122773850C82850D83E0F508EEFA3B
:10261000EFFB12198A1229A67004D292C293A9085C
:10262000800279007F06020E29122632F8E912266E
:102630003F22E0250AF8A3E0350BF9E824192234FB
:1026400000F988828983E0FA900F37E02AFAA3E044
:102650003400FBEA2414F582EB3400F583E02274A5
:10266000F7120C18900F37E0240DFAA3E03400FBAA
:102670008A828B83E0FEA3E0FFEEFCEFFD7401692C
:1026800070067A0E7B0080107A0080F8EA24010A36
:10269000EB3400FBEEFCEFFDEC4D60278C828D836C
:1026A000A3A3E06A7003A3E06B700E74016970DC91
:1026B000EA24FF1AEB34FF80DAEC122E12ED122E10
:1026C0001780D40238F374F1120C18ECFEEDFF8978
:1026D0000A740F12130E122779741112130EE07080
:1026E00020740B12279B122789900EA2122773A326
:1026F000EAF0A3EB122781900EA61227737B0A80C3
:102700003C741312279BA374FFF0A3F085080C857B
:10271000090D750E00780C12107B7C087D007AA4E0
:102720007B0E1242001210C7122789900EACE8F0FF
:10273000A3E9122781900EAE1227737B127A0080D4
:10274000268A82A882EE28F582EF124952C0E08BD9
:1027500008E50828F8E43400F9749E28F582740E20
:1027600039F583D0E0F00AEAC3950A40D4EB250A94
:10277000F98047E8F0A3E9F022E0F508A3E0F509C5
:1027800022F01229D012279522900F371229D31246
:10279000279322A3A3E0F8A3E0F922250A900E9E36
:1027A000124BB9240B122D1CE8900E9FF0E9A3F0F8
:1027B000900F63E0900EA1F022F07F07020E2974C3
:1027C000F6120C18E9FE740A12130EE0F8900F6569
:1027D000E064017002E4F0EEC3946740027E67900B
:1027E0006193E0542270F89061A3E0C2E6F0539A3E
:1027F000FEE8F5087808121083900F6FE02404F5C6
:1028000008A3E03400F509780812107FEEF9121DD4
:102810005674031210C775E1EE7591FD7A9E7B0E1A
:10282000121CCC9061A3E0D2E6F0439A0175E1E975
:10283000900F657401F0900F63E004F079000237A7
:102840005EC082C083C2AF1238D075F00570051229
:102850002888A3E0A424D490618FF0900F38124C04
:10286000C0900F3812348DA3A3E0906172F0900FE6
:10287000381234AF906173F09061A4E0D2E1F0E0DF
:10288000D2E0F0D2AF022E4A900F381234B4A32215
:1028900074F5120C18900F6CE064016012E0640291
:1028A000600DE064066008E0640560030229A1751C
:1028B000081175090F750A001238D06003022963E8
:1028C000900F75E0701D900F37E024051229AC9031
:1028D000106B122C95740BF0900F6DE4F0900F7547
:1028E00004800A900F6DE06005900F75E4F0900F82
:1028F00037E024051229ACC394195054900F6DE0B1
:1029000060030229A11229B1E004F0122A0012107A
:102910007B7C087D007ABD7B0F1242001210C790AD
:102920000FC574911229E0900FC6122C95A3E09068
:102930000FC7F0A37401124A7F740C124A8A121056
:1029400083790C123AE91210C71229BB7C32804EEF
:1029500090106AE4F090106BE088828983F0121D79
:1029600062803690106A12481A502C122A001210F7
:102970007B7C087D007ABD7B0F1242001210C7904D
:102980000FC5122B45121083790C123AE91210C7A9
:102990001229BB7C1E8007E4F01237637C50122999
:1029A000F17F03020E29900F37E0240FF8122F2F2A
:1029B00022121D62124967A3A3A3221229D0740F09
:1029C000F0A3E4F090103C7468F0A3741DF022F0C2
:1029D000900F371229D722E0F8A3E0F583888222EE
:1029E000123ADF1229E722E0240212352622F07C77
:1029F000057D007A027B00900F6BE0F9121A1A2213
:102A000012303F7401124B1578082274F7120C181B
:102A100012473D7404122E06744B122C8EF075086A
:102A200000780812108379047CBD7D0F8A828B8325
:102A30001236CE121D5C74011210C70238F374F600
:102A4000120C18900F37E0240B123514900F6CE025
:102A500014602614600A24FD601F14601C022B37CA
:102A6000900F3FE4122C9504124B03122B451210C9
:102A700083790C124AE9022B27888289837441F0FA
:102A8000A37488124BB52409124957123036749A30
:102A9000122B3A900FBE122FF91229AD900FBF12D0
:102AA000300D900FC01230007508017509008E823C
:102AB0008F83E07808121217E50814900FC11247AF
:102AC0002F750801F5098E828F83E078081212179E
:102AD000E50814900FC3F07508007509FF8C828D0E
:102AE00083E00478081212B1E508900FC4F0790869
:102AF00078008018740EC398C0E0890874BD25085A
:102B0000F582740F1236C0D0E0F009088C828D83F4
:102B1000E0FEE8C39E40DD75080078081210837C53
:102B2000BD7D0F8A828B83123AEC1210C712376375
:102B30007CE87D031229F302375EF0900F37E02422
:102B400010122F2E227491123ADF1229E7900FC62D
:102B5000F088828983A3E0900FC7F0A3E4F0900F80
:102B60006E740C12394822C082C083900F73E070DB
:102B70000B7901121EFA900F737401F0022E4AC0F5
:102B800082C083900F73E0600A7901121F06900FD4
:102B900073E4F0022E4A74F7120C18E9900F6B12CE
:102BA0003ADF7439F0A3740FF0121C6C121E10C2BD
:102BB0009379087C117D0F7A0C7B78121CC67908FA
:102BC0007C117D0F7A6A7B61121CC0900F3BE4F090
:102BD000A3F0A3740BF0900F3912472D900F40749F
:102BE00011F0A3740FF0900F6FE4F0A3F0900F4872
:102BF000F0A3F0900F4BF0A3F07C10FDF97A527B1C
:102C00000F1219067C057D0079007A4D7B0F121991
:102C100006900F65E4F090151FF0A3F0900F660486
:102C2000F09080281212EB900F671212F71229B160
:102C3000740BF0900F76E4F0FB7A0179C4121E2237
:102C40007CF47D017A081229F57CE87D037A101264
:102C500029F51236CB121D680238F374F7120C18DE
:102C600012302274921229E0900FBE122C95A3E02C
:102C7000900FBFF01818122888E0900FC0700474ED
:102C8000018001E4122C8EF0750801022A21F090D7
:102C90000F6E740422F08882898322C082C08390E0
:102CA0000F6F1236CE122D12E84960208013EA24ED
:102CB0000FF582EB122CF0F012198A900F6F12367A
:102CC000CEEA4B70E9122D03E4F0A3F0122D12901E
:102CD0000F6F122773900F37E0240F1234C1124C7C
:102CE000B42412124CB42410122CFEE4F0022E4A2A
:102CF000124071122795900F6FE8F0A3E922F812A5
:102D00002D0E22900F37E0240D122D0D22F8123ACD
:102D10004C22900F37E0240D122D1C22123526F87C
:102D2000A3E0F922C082C083901525E0FA900F74C9
:102D3000E0F83395E0F9E86A7001E960117B00E0A2
:102D4000FA79C2121E22900F74E0901525F0123706
:102D5000637C0A022E4774F7120C18EA2412F582DB
:102D6000EB122E17FD122D038008E8122E12E91225
:102D700036C012349149601188828983A3A3E06C24
:102D80007003A3E06D70E38004780079008A828B81
:102D900083A3A3123486A3A3E0FAE8240DFEE9344A
:102DA00000FFEA8E828F83F090106C600BE4122E8D
:102DB00029FAA3E03400800DE070347401122E294A
:102DC000122E1FFAE9FB1230327405122E067432ED
:102DD000F08E828F83E0900FC1124A8412108379A3
:102DE000057CBD7D0F8A828B83123AEC1210C78E50
:102DF000828F83E0900F741248157498F0A3741DAD
:102E0000F07C040239EAF0A3E4F0A374FFF0A322FB
:102E1000E5082411F58222124071E0FCA3E02212A1
:102E20002E2322F8123515E822F01247B5900F37FD
:102E3000E0240922C082C083900F37E0122F1F04C4
:102E4000F07A007B0080031229F1D083D082020D3A
:102E5000F574F6120C18EAFEEBFF901042124A8E3F
:102E60009408900F37E05032124B559010431227C0
:102E70008C8A828B83122773900FBD749B124A7FBA
:102E80007401124A8A12108379017CBD7D0F8A82F7
:102E90008B83123AEC1210C78065122F1FFA7583CC
:102EA00010758240C3E09AA3E09400400C888289A8
:102EB00083E004F012353C8052901043122F1B889F
:102EC000828983A3A31236CE12494CFC900F6FE087
:102ED000240E1229AC6C701E121D4AE9F8123496A9
:102EE000E4F0EEFAEFFB121DB0123463240F12343B
:102EF000EF122F0E8012121D4A9010421234C7900A
:102F0000103C74AAF0A3741D1229EE02375E9010D3
:102F10003C7474F0A3741D22124071122795222470
:102F2000101234F3900F37E0240F122F2E22F812D4
:102F300035272274F4120C18123022749612472F7F
:102F4000900F6F1229E3900FBF122C95E0900FC0E5
:102F5000F0A3E4122B3A900FC2122FF91229AD60A0
:102F600004F5088003750801E508900FC312300DC1
:102F7000900FC4123000750A01750B008E828F838A
:102F8000E0780A121217E50A14900FC512472F8E27
:102F9000828F83E0900FC7F0750A00750BFF8C825B
:102FA0008D83E004780A1212B1E50A900FC8F07917
:102FB0000C78008018740EC398C0E0890A74BD258F
:102FC0000AF582740F1236C0D0E0F009088C828DA9
:102FD00083E0FEE8C39E40DD750901780912108385
:102FE0007CBD7D0F8A828B83123AEC1210C7122FA0
:102FF0000E1229EE7F04020E29124BB9240F18225B
:10300000124BB9241308122E24FEE9FF22124BB9E9
:103010002412080808122E24FCE9FD8C828D83E01E
:10302000042212303F7421F0A3748C124B641230CE
:1030300032228A828B8374FFF0A3F0900FBD22901E
:103040000F37E0240B123A4B2274F4120C18EA24C6
:1030500002F508EB3400F509850882F583123491F6
:10306000FCE9FDEA2412FEEB3400FF8C828D83E044
:1030700024FC70030232EB14700302322D1470032F
:103080000233752475602A1470030233F924FD702D
:103090000302311724FE70030233E824FD7003029B
:1030A000342F14700302343F147003023399023436
:1030B000527A137B001221528A088B09EA122E12CF
:1030C000EB124518A31237F1F0A3F0EEFCEFFDEA86
:1030D0002404FAEB3400FB121FA81229A6900F6FEC
:1030E0007012E508F0A3E509124BB5240D1818126B
:1030F0002CFF800D123A40E508F0A3E509F0900F8F
:103100006FE508F0A3E5091229EE90103C748CF0ED
:10311000A3741DF0023452EEFCEFFD900F6FE0241B
:1031200004FAA3E03400FB121FA2E9640160030269
:10313000345285088285098312348AA3E0C0E09066
:103140000F6FE0240C122CFED0E0F0900F6FE02403
:103150000E123514900F6FE0240CFAA3E03400FB3C
:10316000900F37E0240FFC12347B60551234632437
:103170000D1C1C12347BFCA3E0FD901043ECF0A36B
:10318000ED12481574AAF0A3741D1237F1E0640122
:1031900088828983700C124BB324121229AC04026A
:1031A0003448E4F01234BBC0E0123568D0E0123489
:1031B000F9E004124BB52413122CFE1235550234DB
:1031C000498A828B83E06401702688828983124B4E
:1031D000B324121234EF121DA48A088B09A808A97F
:1031E00009740EC398F8E499F9123496E9F0802D29
:1031F000121DA48A08900F6F123486E508F0A3EB25
:10320000F0900F6FE0240E1234C11234EF1234BB71
:10321000C0E0123568D0E01234F9123555C292D2AE
:103220009390103C74B0F0A3741D023448123471B2
:10323000E0F508E9F5097808120D93000002002076
:1032400000493249006032523490103C749EF0A321
:10325000741DF090103EEAF0A3EBF07C0A02344BB0
:103260008C828D83A3A3A3E014600914602B1460E7
:103270005102345290106E1236C45003023452126E
:103280003455700512376380097C887D137A0412E7
:1032900029F590106EE402311390106F1236C4506D
:1032A000030234527B007A0279C512345B70051236
:1032B000376380097C887D137A041229F590106F9A
:1032C00080D39010701236C450030234527B007ABF
:1032D0000379C512345B700512376380097C887DE1
:1032E000137A041229F590107080AA900F6CE06494
:1032F0000170508E828F8312356E1234D98E828F78
:1033000083122F1B12357BF8E912352C1234A6C01C
:10331000E08E828F8312356ED0E0F01234A6F890E2
:103320000F37E028122E1F241412494F04F085088D
:1033300082850983E02403F8A3E012352C121E1CB9
:10334000023452E0640660030234528C828D83A3FF
:10335000123471A3E0F8744B68700374FF69600362
:10336000023452900F6C7405F07B007A0079C6121B
:103370001E2202345290106D1236C4500302345291
:10338000123455700512376380097C887D137A04E6
:103390001229F590106D023295901040E0123FA472
:1033A000A31234C7900F37E0240F122E1FFEE9FF3F
:1033B000901040C0828E828F83E0F8758310D08297
:1033C000C3E098A3E09400401412353C8E828F83B2
:1033D000E004124BB524101234EF02322190103C5D
:1033E00074AAF0A3741D80608E828F831236CE1271
:1033F0001D4A122B3B0402311390103C746AF0A357
:10340000741E1229EE7C887D137A041229F5123A73
:103410003D7401F0900F6DF0900F75E4F0900F6C1B
:10342000E06401C2927004C2938027D293802390FB
:103430000F6DE06401701B7C887D137A048010900E
:10344000103C7470F0A3741EF07C057D007A0212AB
:1034500029F5022FF47B007A0179C0121E22900F09
:103460006DE022901042E4F0901040F0A3124BB9AE
:1034700022A3E0F98C828D83A3A322A3E03400FD74
:103480008C828D83E0221234A022E0F8A31229DA84
:1034900022122795E82212349DE8F0A322900F6FA4
:1034A0001237B8A3A322850882850983E0F8A31206
:1034B00034B4E0221229DAA3A3A32212351C24FE7D
:1034C00022124CB8241322E4F0A3E02411122D1C84
:1034D000901043E8F0A3E9F022E0F8900F37E028DD
:1034E000122E232414F582E9124071E014F0221206
:1034F00034F32212352604F02212351B1235002235
:10350000F8900F37E028123514E82412F582E934D8
:1035100000F58322F8A3E03400F922F0900F6FE069
:10352000240C12352622F8123A50E02212263FFBD4
:1035300088828983E0FA79C1121E1622900F6FE00B
:10354000240E122F2EF9121D508A0812349DE50800
:10355000F0A3EBF022E00412351BFA123500E0FB79
:103560001A1A79C1121E2222900F6F12496A12276D
:103570009512357BF582E912407122900F37E028D1
:10358000F8A3E039F9E824192274F7120C1812375D
:103590006824FC700302367814602A146041247099
:1035A000607314607A24FD60591460030236A4909D
:1035B000103C7470F0A3741EF07C057D007A02123A
:1035C00029F50236A4123786F8EBF9E87003743255
:1035D0006960030236A41236A77D000A0A80E090D3
:1035E000103CE4F0A3F09010711236C4400E7B0042
:1035F0007A0179C0121E22901071E4F07CF47D01F2
:1036000080BB900F6DE0640160030236A47C887D6E
:10361000137A0480AA12378FE4F0A3F00236A4A331
:10362000E0FD88828983A3A3E0F8EDF974FE687059
:1036300003740F69706EEA2412F582EB1236C01221
:1036400036CE122782C3E89AE99B5026EAC398F83F
:10365000EB99F9E875F0E8A4C8AAF075F003A42A7C
:10366000FA75F0E8E9A42AF9E8244AFCE934FCFDFB
:10367000809F7C327D008099900F6CE064067024FE
:1036800088828983A3123775A3E0F8EBF9744B683D
:10369000700374FF69700D900F6C7405F07B0079F6
:1036A000C6121E220238F390103C7476F0A3741EEA
:1036B000F07C0A22F0050C850C0AEE250AF582EF53
:1036C00012407122E004F0C394092290103EE0FA07
:1036D000A3E0FB2274F6120C1812376824FB603941
:1036E0002473601024FC601E14605624FD604A148C
:1036F000601C806A90103C746AF0A3741EF07C0514
:103700007D007A02805512378F1236AA80F290100F
:103710003C7470F0A3741E80E4123786F508EBF554
:10372000097808120D93000002000032343700338C
:1037300034375E371236A7801E7C887D137A04806A
:103740001A123775E0F8EBF974FE687003740F69AC
:10375000700C1237637CC87D000A0A1229F57F02BB
:10376000020E29122F0EF0228A828B831227938851
:10377000828983E02212377922A3E0FAE4CAFB8827
:10378000828983A3A322A3A3123779A3A3E022A350
:10379000E0FB88828983A3A3E0F8EBF9900F37124E
:1037A00037B8E8F0A3E9F0E89061741229CFA3E0FC
:1037B000906175F090103C22E0FAA3E0F5838A82D4
:1037C0002274F6120C18EAFEEBFF7A327B00121913
:1037D000188A828B83A3A3741A1237F1EEF0A3EF39
:1037E00012463BE06008900F6BE0F9121924023793
:1037F0005EF08A828B8322C082C0837A007B0012B3
:103800001B5EC2BD020800022E4AC082C083E9606E
:103810000C14601014601424FE6017801FEC8A8260
:103820008B838015EC8A828B83800FEC8A828B835A
:103830008006EC8A828B83A3A3A3A3F0022E4A7492
:10384000F7120C18E9FE900F3CE0F9C39490400782
:103850001238BA34708018C3E9946040071238BA3D
:1038600034A0800BC3E9943040061238BA34D0F04B
:10387000EE601414602414602114600B14600814AA
:10388000602514602280311238D0700479008002E3
:1038900079301238C4121D80801E1238D07004791D
:1038A00000800F7930800B1238D07004796080026C
:1038B00079901238C4121D7A8039900F3BE02400B1
:1038C000F0A3E022900F3BE02400F0A3E039F022C7
:1038D0001238D422900F3712496EA3A3E0227CBD88
:1038E0007D0F8A828B83123AEC1210C790103CE451
:1038F000F0A3F07F01020E2974F7120C1812392E72
:10390000121083790380D774F7120C1812392E1213
:10391000108379037CBD7D0F8A828B83123AEC126F
:1039200010C790103C74ECF0A3741D0239E71247E5
:103930004174971229CFE0900FBEF0A374FEF0906F
:103940000F6E740312394822F0750800780822C0FF
:1039500082C083900F37E02404123514900F78E072
:10396000700788828983E48006240A88828983120A
:103970003E91F07C32022E4774F7120C1812392E49
:1039800012108379037CBD7D0F8A828B83123AECFF
:103990001210C7900F6CE064066005E064057013B8
:1039A0001239E070071239D9346080171239D934CE
:1039B0009080101239E07006E0F8A3E0800512391B
:1039C000D93430F9900F3BE8123E5590103C7468A2
:1039D000F0A3741DF07C648011E02400F8A3E022C1
:1039E0001238D4900F7922F07C321229F10238F388
:1039F000C082C083900F77123E6E900F6CE064011E
:103A0000600AE064026005E064057016121D6290B1
:103A10000F75E4F0123A3D1248147468F0A3741D57
:103A20008015E064067011121D62124A9B70051227
:103A30002F118003E4F0A3F07C64022E47900F372F
:103A4000123A4422E02411123A4B22F8123A502240
:103A5000A3E03400F9888289832274F7120C18904D
:103A60000F6CE06401600AE064026005E0640670C7
:103A70005612473D7497123ADF12348AE0900FBE17
:103A8000F0900F6CE06401600FE06406600AE0648F
:103A9000056005E06402700D900F6DE07007900FF7
:103AA000BF74FE8005900FBF7401124A7F74031229
:103AB0004A8A12108379037CBD7D0F8A828B831220
:103AC0003AEC1210C7800BE0640570061236CB1278
:103AD0001D6E90103C74F8F0A3741D0239E7E4F0F9
:103AE000900F3722900F6EE0F9124AEDE0FAA3E052
:103AF000FB121D5C74012274F1120C188A0A8B0BE4
:103B0000E9FF7E00197A007800800F8808E50A2511
:103B100008F582EB1249522AFA08E8C39940EC8F63
:103B200082858208E50A2508F8EB3400F9E824FFCD
:103B3000F582E934FFF583E06A60190227BA240AA6
:103B4000850C82850D83123E91F07C327D00122916
:103B5000F30E0E0E8E82A882EF24FFFAE434FFFBF0
:103B6000C3E89AE49BA2D265D03350CFE50A28F887
:103B7000E50B3400F9E82402FAE93400FBEAFCEB37
:103B8000FD88828983A3AA82AB83900F37E0240447
:103B9000F50CA3E03400F50D88828983E02454708D
:103BA00003023E04147003023E49147003023E2DCA
:103BB000147003023DF3147003023D971470030266
:103BC0003D2E147003023D17147003023CF514706F
:103BD00003023D3E147003023D53147003023D6422
:103BE000147003023D75147003023D8614700302C5
:103BF0003CE4147003023CD424EE606314700302AE
:103C00003CCD147003023CA014600724EF606602F0
:103C10003B53900F6CE064066005E06405701B8503
:103C20000C82850D83E08C828D837007123EBF3439
:103C3000608021123EBF3490801A850C82850D83EE
:103C4000E07008123E62900F3B800E8C828D8312D2
:103C50003EBF3430F9900F3BE8123E55023B511203
:103C60003E62900F79F0A3E912481574F2F0A37444
:103C70001DF0023B51900F76E08A828B83700E120A
:103C80003E6E123EA2F0900F767401800DE0900F10
:103C90007712481574FEF0A3741DF07C14023B4C9F
:103CA0008C828D83E064018A828B837010E0900F98
:103CB0007812481574E6F0A3741D023B49E06003D6
:103CC000023B3E850C82850D83E4023B4674092E3F
:103CD000FE023B548A828B83E090104A123E5D9034
:103CE000104B808D8A828B83E0901049123E5D904C
:103CF0001046023C718A828B83E054079010471271
:103D000037F1123E7B90104C1248157440F0A374AA
:103D10001EF07C00023B4C123E62900F7112277421
:103D20007A007B00121E467CE87D03023B4E900F1A
:103D30006DE06003023B511237637C8480EB8A8222
:103D40008B83E0901051123EAF7A517B10121DD43C
:103D5000023B518A828B83E0901056123EAF7A5616
:103D60007B1080E98A828B83E090105B123EAF7AF1
:103D70005B7B1080D88A828B83E0901060123EAF0C
:103D80007A607B1080C78A828B83E0901065123E38
:103D9000AF7A657B1080B68A828B83E024FE600A4E
:103DA00024FE603114603D023B5190103C744CF095
:103DB000A3741E123E5D5407901047123E8B123EB4
:103DC0007BA2E5E43390104F123E5DA2E6E433900F
:103DD0001050023D1190103C7464F0A3741EF07CEE
:103DE0001E023B4C90103C74CEF0A3741DF07C0579
:103DF000023B4C8A828B83E090104D123E5D901006
:103E00004E023C71900F6CE064016012E064066049
:103E10000DE064056008E064026003023B51124853
:103E20001474E0F0A3741DF07C0A023B4C8A828B70
:103E300083E07003023B5190103C7452F0A3741E57
:103E4000123E5D901047023B4990103C745EF0A317
:103E5000741E023B49F0A3E9F0121D6222123E8B50
:103E6000E0228A828B83E0F98C828D83E022E090CD
:103E70000F6CF0F9121DDA121D9222E01313135485
:103E80001F5403901048123E8BE022F08C828D83E9
:103E900022F0D292C293900F6CE0F9121DDA123E1A
:103EA000A222121D6290103C7468F0A3741D2212AD
:103EB0003E8B123EB622E0FC8A828B83E0F922120E
:103EC0003EB6EC2400F8E92274F7120C1874FF12C5
:103ED00011287C017D00851882851983AA82AB8315
:103EE000121BA6901072E0702A851882851983E053
:103EF00064AA70089010727401023FA0E064AB6085
:103F000003023FA1900F71E4F0A3F0FAFB121E46EA
:103F1000023FA164017029851882851983E0901001
:103F200073F0901074E4F0A3F0901073E0C3941F4A
:103F30004007E4F090107280679010727402806005
:103F4000E06402705C901074E02419F8A3E0340F70
:103F5000F9901073E024FFFAE434FFFB75831075C9
:103F60008274C3E09AA3E09B851882851983E08858
:103F7000828983F0901074E050092401F0A3E034AA
:103F800000801D123FA4901073E0F97A197B0F1284
:103F90001E04901073E4F0901072F0901074F0A36F
:103FA000F0022A362401F0A3E03400F022C082C0DF
:103FB0008374E31211288518828519837401F01225
:103FC000130E7403F01412130EE4F0740312130EA4
:103FD000744012472F740A12130E748012472F7404
:103FE0001212130E748012472F740512130E7406EA
:103FF000F0741612130E7401F0741B12130E740A6F
:10400000F0A3741EF0851882851983AA82AB837988
:1040100000121BA07C137D007A007B807900121BAC
:10402000AC741D1210C7022E4AC082C083900F7B51
:10403000E0700E900F7C74AA12472F900F7B7402D1
:10404000F01240D8E9124054EA124054EB1240CC2E
:10405000F9022E4A1240D204F0F8747C28F58274DA
:104060000F12407122F0050C850C0AEE250AF5822C
:10407000EF3400F5832274F6120C18780079028070
:10408000108908747C2508F582740F12495228F8AB
:1040900009900F7BE0FAE9C39A40E6E8C0E01240DD
:1040A000D8D0E01240CC24FE900F7DF0900FBC746D
:1040B000011240D2FC7D007A7C7B0F7900121BAC90
:1040C000900FBCE4F0900F7BF002375E1240D204F8
:1040D000F022F0900F7BE022E0F8747C28F58274E7
:1040E0000F1240712274F7120C18900FBCE070FA96
:1040F000121E16121E1C79010238F374F1120C18EC
:10410000EAFEEBFF8C088D09750CFE750D14750E1B
:1041100000780C12107B1241FC1210C790104A124A
:104120004230F090104B12422BF090104912422B6B
:10413000A31246497404F07A0878058A0A1236BA3E
:104140007401F012450F12450F0A18E870ED901037
:104150004CE0601214604214605814606414607083
:1041600014607C0241F27C00EC75F003A4F8A9F025
:10417000EE28F8EF39F988828983A3A3A3A3A3A328
:10418000A3A3740112420C74A012420CA37404F095
:104190000CECC39403505B80CF8E828F83A3A3A3C8
:1041A000A3A3A3A3A3740112420674A0124206A300
:1041B000803DEE240B124223240C12421B240D805E
:1041C0002BEE240E124223240F12421B2410801CBB
:1041D000EE2411124223241212421B2413800DEEEE
:1041E0002414124223241512421B24161236BD74C5
:1041F00004F0EA8508828509830227B97C047D00E2
:104200001218FA74032212464DA3A322F088828961
:1042100083A3A3A3A3A3A3A3A3A32212406E74A06A
:10422000F0EE2212406E7401F0EE22124230A32210
:10423000E08E828F83A3A3A3A322E9F8EA7004741B
:10424000C0800274A0C398F9020DF574EC120C182A
:10425000EAFEEBFF8C128D13EE2406F510EF34000E
:10426000F511EE2405F508EF3400F509EE2404F508
:104270000AEF3400F50B901047E06402600302433C
:1042800039750C15750D15750E00780C12107B1212
:1042900041FC1210C7901050E0700690104AE08068
:1042A0000274FF850A82850B83F0901050E070063F
:1042B00090104BE08001E4850882850983F0750841
:1042C00007901050E07006901049E0800274488515
:1042D0001082851183F075090090104FE0FAE5090E
:1042E00075F005A4F8A9F0745428F582741039F516
:1042F00083E0F9121E2E85080A1236BAE9F0050885
:1043000085080A1236BA7402F005080509E509C3E2
:10431000940340C590104DE0C0E085080A1236BAFB
:10432000D0E0F0050890104EE0C0E085080A123693
:10433000BAD0E0F00508024501750CFE750D147544
:104340000E00780C12107B1241FC1210C790105016
:10435000E0700690104AE08001E4850A82850B83B4
:10436000F0901050E0700690104BE08001E485085A
:1043700082850983F0901050E07006901049E0802B
:10438000027448851082851183F0750808901050DA
:10439000E0701090104FE06401700474488006745F
:1043A000048002740A8E828F83A3A3A3A3A3A3A372
:1043B000F0750900E50975F005A4F8A9F074452821
:1043C000F8741039F985080AEE250AFAEF3400FB73
:1043D00074012508FCE8240C12494F601414606A2B
:1043E00024FD70030244AB24FE70030244D6024451
:1043F000F58A828B837401F08C0A250AF5089010E7
:1044000050E0700512494C80027498C0E08C0CEEAC
:10441000250C1236BDD0E0F085080B7401250BF594
:1044200008901050E0701090104FE0640170047418
:10443000068006740380027408C0E0850B0CEE252C
:104440000C1236BDD0E0F00244F58A828B837402F0
:10445000F08C0C14250CF508E8240DF8E93400F96B
:10446000901050E0700790104FE0FA80027A0088B8
:10447000828983E0F9121E2EE9C0E0850C0EEE253C
:104480000E1236BDD0E0F0AC0874012CF508901087
:1044900050E0700C90104FE06401700474058002CD
:1044A0007402C0E08C0EEE250E80968A828B837497
:1044B00008F00508E8241012494FC0E08C0EEE25E4
:1044C0000E1236BDD0E0F0050885080EEE250E125E
:1044D00036BD7402801C8A828B83E4F005088C0E42
:1044E000EE250E124515050885080EEE250E12362E
:1044F000BDE4F005080509E509C39405500302432E
:10450000B4851282851383E508F07F0C020E290A18
:104510008A0AEE250AF582EF124071E4F02274F166
:10452000120C18EAFEEBFF8C088D09750CFE750D58
:1045300014750E00780C12107B1241FC1210C78EFD
:10454000828F83A3A3A3A3E4124636124636A37434
:1045500048124649740AF0750C089014FDE0600E8C
:1045600014604214603F147003024616800F9010CE
:1045700047E064067012780512465470FB85088285
:10458000850983E50C0227B9780312465470FB7C39
:10459000067D007900850C0AEE250AFAEF3400FB4F
:1045A00012190680D8901047E06406701A78051238
:1045B00036B774061236B474981236B47407F00520
:1045C0000C18E860B880E878001236B77406F0740A
:1045D00001250CF50A7401250AF50CE8C394034083
:1045E00003E480027498C0E01236BAD0E0F0A90C5F
:1045F000740129F50CE8C394034003E480027407B6
:10460000C0E0890A1236BAD0E0F008E8C394054049
:104610000302457D80B3901047E06406700C780576
:10462000124654700302457D80F67803124654709A
:104630000302458F80F612463BA32212463F22F02A
:104640008E828F83A3A3A3A32212464D2212463F3C
:10465000A3A3A3221240687401124065749812400B
:10466000657408F0050C18E82274F7120C18901005
:104670007612479250251247A1121E28750800781D
:1046800008121083123AE41210C790103C7440F0E4
:10469000A3741EF07C021229F18009901076124852
:1046A00014F0A3F00238F374F6120C18805A124773
:1046B0003D749012472F900F711227797408780873
:1046C000121271E508900FBFF0900F71E0900FC0CB
:1046D000122C8E124A8A12108379047CBD7D0F8AB7
:1046E000828B83123AEC1210C7900F71C3E09401D1
:1046F000A31247344006900F63E014F0900F71E06E
:104700002418F0A3E034FCF0C3900F721247345029
:104710009D900F6DE090103C7005122F118003E406
:10472000F0A3F07CD07D071229F302375E740FF0FE
:10473000A3E4F022E09400A2D265D03322124741D4
:10474000221247B9124B698A828B8374FFF0A3F05F
:10475000900FBD2274F7120C1890107712479250E8
:10476000251247A1121E3475080078081210831212
:104770003AE41210C790103C744CF0A3741EF07C05
:10478000021229F18009901077124814F0A3F00268
:1047900038F3E0F9740129F0901046E0F8E9C39885
:1047A000221247B5124AF174FFF0A3F07C6E7D0F20
:1047B0007ABD7B0F221247B922900F37E0240BF805
:1047C000123A507441F0A37488F02274F7120C1856
:1047D00090107812481A50221247A1121E3A7508FA
:1047E000007808121083123AE41210C790103C743B
:1047F00052F0A3741EF07C038017E4F0900F7174E4
:10480000E8F0A374031248157446F0A3741EF07CFC
:104810000A0239EAE4F090103C22124A92940222F1
:1048200074EC120C188A088B098C0E8D0F741412FC
:10483000130EE0F50AA3E0F50B751200900F37E0B8
:104840002404124957E0FE124963E0F50CA3E0F599
:104850000D8A828B83740B12496274FFF0A3800966
:104860007419F005121238D004F01238D0C3941A1B
:104870005079121D80121D62121D7A751300A80A4C
:10488000A90B12493D70FB751000751100802A12AA
:104890001D26A80AA90B12493D70FB121D2CE9F830
:1048A000E513C398A2D265D03350028813E51024D3
:1048B00001F510E5113400F511C3E510950EE51171
:1048C000950F40CB851210E5082510F582E50912F9
:1048D00036C0E513C3944CA2D265D033508275F034
:1048E00003E513A4F874FF98024862750E0078007F
:1048F000880AE508250AF582E509124952F9850E6C
:104900000AE508250AF582E509124952C3995002C1
:10491000880E08E8C3940F40D7740B250EC0E01230
:1049200029B4D0E0124BB5F8A312288BEE124962DD
:10493000E50CF0A3E50DF0121D6202450AE8FAE964
:10494000FBEA24FF18EB34FFF9EA4B22E8240EF5CA
:1049500082E9124071E022122E23FAE9FB8A828B4F
:104960008322F012496722900F3712496E221249B2
:104970007222E0F8A3E0F5838882A3A32274F512E3
:104980000C1874F0121128906189E0FEE0D2E4F076
:10499000750820750903780812107F7C2C7D01743E
:1049A0000212130EAA82AB83121E5874021210C791
:1049B000EE9061891240D27010900F7C74AAF0A31F
:1049C000740FF0900F7B7402F01240D874C3124041
:1049D000CC851882851983A982AA8389088A0975DA
:1049E0000A00780812107B7C0F7D00900F7BE0F8A6
:1049F000747C28FA740F3400FB1242001210C79026
:104A00000F7BE0240FF0121E1C123A3DE0700812DA
:104A100037637C321229F174101210C70229A17475
:104A2000F7120C18901079124A8E940950361247DA
:104A30003D7406122E06744AF0A37401F090107AA9
:104A4000E004900FC2124A7F7406124A8A12108341
:104A500079067CBD7D0F8A828B83123AEC1210C7D7
:104A60007C078018E4F090107AE004F0124A9B7002
:104A700005122F118003E4F0A3F07CC80239EAF09C
:104A8000900F6E22F0900F6E740512394822124A70
:104A90009222E0F8740128F0E8C322900F37123A0E
:104AA00044E090103C2274F7120C18900F3F124B08
:104AB000B3240B122CFE7421124B037495F0900F4B
:104AC0006CE06402700B900F62E02402900FC680CD
:104AD00005900FC67401124A7F740A124A8A121096
:104AE00083790A124AE90238E6124AED227CBD7D3A
:104AF0000F124AF522900F37124972A3A3A3A3A362
:104B0000A3A322124B157C117D0F7ABD7B0F121FC0
:104B1000A8900FC522F0A374C8F0124AF5740FF0E4
:104B2000A3123ADE1229D774FFF0A3F02274F71211
:104B30000C18900F37E0124B558A828B8312472D49
:104B4000900FBD749C124A7F7401124A8A1210831E
:104B500079010238DE240B122D0D7461F0A37488E4
:104B6000124B6422F0124B6922900F37E024091295
:104B70003514E8FAE9FB2274F7120C1812473D7459
:104B80000512472F900F6CE06402900FBF700F74F6
:104B900020124BB524291229AC900FC0800674FF57
:104BA000F0A37433F0A37401124A841210837905C0
:104BB0000238DE7401124BB922123ADFE02274F49B
:104BC000120C18EAFEEBFF5480606E8010121DBCC0
:104BD00075E1ED75E1EDAA08AB0912191E900F6B96
:104BE000E0F912192A8A088B09E50845096042850F
:104BF0000882850983A3A3E0641A70D4900F6CE047
:104C000014601A14600924FD601314601080C185BB
:104C100008828509831236CE121DC280B3850882B0
:104C20008509831236CE900F6DE070A1121DB680FB
:104C30009FEEFAEF6480FB8078EE5402601C9010C7
:104C40003C12349149600C1236CB90103D12348DD9
:104C5000122166EE6402FAEF80DCEE5404602C90C0
:104C60000F6DE4124BB52411124CB412348B124761
:104C70002DD292C293900F37E0F8A3124CC0123796
:104C8000637C001229F1EE640480CBEE5410601DA9
:104C9000900F76E070127B007A0179C4121E227C9C
:104CA000F47D017A101229F5EE641080A97A007B58
:104CB00000022FF4124CB822123A4B123ADEE022D4
:104CC0001229DAE0906174F0900F381229DAA3E02B
:104CD000906175F022C082C083900F65022CEBC0FA
:104CE00082C083900F647401022CECC082C08302E6
:104CF0004E7774F7120C18E9FE901090E0600312E2
:104D00001AEC9010907401F0901526E06008791D5F
:104D1000121F78024DEFEE901091F06402700512B0
:104D20001C428045E0600764016003121AEC901099
:104D300094E4F09003E9E0240E124DF2A2E650054F
:104D40009004658003900447E0901092124E4E70DC
:104D50001590042EE0600F901092E0C3940340047D
:104D600074028001E0F0121F42901097E0705A9098
:104D700003E9E0F8A3E0F9E8497003121AEC9003A4
:104D8000E9E02402124DF2FAA3E0F5838A82E054AE
:104D900020901096F088828983125060E0901095E0
:104DA000F0125057E0FA88828983E024FFF8A3E0EC
:104DB00034FFF98882898374022AF075E1EE740168
:104DC0002AF9AA82AB83121CCCA2AFE433F8C2AF9B
:104DD00090107BE0700E90107DE0700890109012A3
:104DE0004EC7800B9010907402F0E8A2E092AF02E0
:104DF0004FB9F8A3E03400F988828983E02274F681
:104E0000120C18121CE4750801750900901092E04C
:104E10007808121217E5081459901093124E4E702C
:104E200005121C368003121C307F02020E29C0823C
:104E3000C0839061A4E0C2E0F090107DE4124E4E79
:104E400064027005121C488003121F4E8032F090DD
:104E50001091E022C082C083901091E0701412166D
:104E6000C0E9F8901093E0C3984007791C121F78AE
:104E70008003121C3C8009901090E4F0901097F091
:104E8000D083D082020DF5C082C083901097740148
:104E9000124E4EF9121F3C80E7C082C08390107BF7
:104EA000E0700690107DE06003121AECA2AFE433CC
:104EB000F8C2AF901090E064027005124EC78005F2
:104EC000E8A2E092AF80B97483F0E8A2E092AF125A
:104ED0001F482274F6120C18901091E060076401CC
:104EE0006003121AEC9010907404F0121F189010C6
:104EF00094E004F0F8900446E0C398500779E1127A
:104F00001F788032900452E0FA901092E02401F869
:104F1000E43400F98A08E89508E99400C365D033C1
:104F20005004E0048001EAFEEEF0121F429010905F
:104F30007483F0121F4E024E2974F7120C18A2AFA0
:104F4000E433FEC2AF901090E06483701E90109620
:104F5000E0901090700F7485F0EEA2E092AF7900AF
:104F6000121F78800B7486F0121C54EEA2E092AFF0
:104F7000804774F7120C18E9FEEAFFA2AFE433F59C
:104F800008C2AF901090E0648670287487F0121CFD
:104F90005AE508A2E092AF901095E06E700EEF60B7
:104FA00007791B121F788011790080F779E9121FA9
:104FB000788006E508A2E092AF7F01020E2974F71F
:104FC000120C18A2AFE433FEC2AF901090E06486DA
:104FD00070127487F0121C5AEEA2E092AF79E912B7
:104FE0001F788005EEA2E092AF80CE74F7120C1805
:104FF000E9FE901097E4F0901090F0121F18121D27
:1050000008121D14EEF91216DE80AE74F4120C189C
:105010009003E9E0F8A3E0F9E8497003121AEC12F2
:105020001C068A088B098C0A8D0B9003E9E0F8A313
:10503000E0F5838882A3A3A3A3A378081212C01269
:105040001C8A8A08125057A3A3A3A3A3E508F0A3C0
:10505000EBF07F04020E299003E9125060A3A32213
:10506000E0FAA3E0F5838A82A3A322740DF5D57537
:10507000D404740DF5D375D20C020DF57901020D2F
:10508000F5020DF5020DF5FF4A86F582EB1267B4C5
:10509000A2E22274091210C77F04020E29E0F5086B
:1050A000750900750A00750B002234FFF583221282
:1050B00068E0E822EE2412FAEF3400FB1217DAE976
:1050C0002279051217E67402221258F71210C77FD0
:1050D00008020E29F09003E9E0221218D69004533A
:1050E0001268E07A147B002279031A1AEFFB121778
:1050F000E07402221250FDE8F0A3E9F02224FFF848
:10510000A3E034FFF98A828B8322E0F50CA3E0F55B
:105110000D22E00267578E828F83A3A3A3A322A34D
:10512000E08E828F8312512922F0EE24FF1EEF348D
:10513000FFFF227F0A020E29E50824FBF582E5091C
:105140000250AAF582EF1267B4227F06020E2912DE
:10515000679EE0227AE07B0312193C740222E0FE93
:10516000A3E0FF2212516822EE12674FEF12517135
:10517000223400F583E022A2AFE492E0FAC2AF90BD
:1051800003E7E004F0EAA2E092AF22EE240EF582FB
:10519000EF3400F58322E0FEA3E0FFEE22EE240DC3
:1051A0001267B1640122A3A302511A7F07020E29DC
:1051B000F0EEFAEFFB22C082C083126B0C7903027F
:1051C0005DFDC082C083126B0C7905025DFDC0825B
:1051D000C08374FE12112880077AE07B03125213F9
:1051E0009003E0E07002A3E070EF9003E2E0700251
:1051F000A3E060097AE27B0312521380ED9003E092
:10520000E4F0A3F09003E6F09003E7F09003E8F0F9
:105210000258D5121936851882851983EAF0A3EB56
:105220001252271217C822125370AA82AB8322741B
:10523000F4120C188982AE82EE248DF582E43424B7
:10524000F583E493F508FA7B00121918EA7001EB74
:105250006012EA2508125E5EE48A828B83A3A3A310
:10526000A3F080287A027B00121918EA7001EB6023
:1052700017EE24B9F582E43424F583E4938A828B13
:1052800083F0741AA31254C07A007B00025098C0B5
:1052900008740629FBEAA2E0501EEB75F00A84AA06
:1052A000F0EA6014740A2BC39AFBEAC39405400425
:1052B000740A2BFB740B2BFBE9C394134004781482
:1052C00080027806E82BFB8B0874092508F8E43483
:1052D00000F97A0A7B00120AC7E8F9D008020DF536
:1052E000C082C083900406E05402600A122002E9E2
:1052F0006004790180027900025876C082C08390F0
:105300000406E05402601F9003E6E070159003E984
:10531000E07002A3E0600F9003E9E024101255BB97
:105320005004790180027900025876C082C08390CF
:1053300003E8E0C0E0908025E0FCD0E0C39C50058D
:1053400012191880047A007B00025876C082C0834C
:105350001217C87900025876A3A312573BE0221215
:105360007440A3A3A322E0240FF8A3E01255C422A3
:10537000F085188285198322A3E0F583888222A311
:10538000A3A3A3A3E022C082C0839003EBE070023A
:10539000A3E0600B9003EB1257371221668002796D
:1053A0000002587674F7120C18EAFEEBFFEE240D9B
:1053B00012518E7401F0EE242F125143C0E01251AD
:1053C0008BD0E0F0EE2430125143C0E0EE241212F4
:1053D000518ED0E01267A9C0E0EE241312518ED096
:1053E000E0F0EE242B12518E120F2EEE2422FCEF51
:1053F0003400FDEE242D125143F91250EE1210C765
:10540000E97007EEFAEFFB1216EA025BC8C082C031
:10541000831217AAE9600479208002790102587684
:10542000C082C083EA12674FEB125146D2E080037C
:10543000F0A3E0F0025876C082C083EA240DF58222
:10544000EB125146FCEA240FF582EB1251917401E4
:105450006C7011E0A2E3400C8A828B83A3E0F91206
:10546000179E8059E0A2E650128A828B83A3E0F94E
:105470009014CC125737122166804274016C700967
:10548000E0A2E350047430802D8A828B83A3E0FD78
:10549000741B6D70047422801D8C82A882ED700ACA
:1054A000E82482F582E434248008E824B9F582E413
:1054B0003424F583E4938A828B831254C002587695
:1054C000F0900401E0F912192422C082C0839003F5
:1054D000E9E07002A3E0604B9003E9E01255A5E912
:1054E0007003E48016741B69703C9003E9E0240D9E
:1054F000FCA3E012648F640570E8E98A828B831252
:1055000050D4FAA3E0FB1216D89003E9E0240E125F
:1055100055BB5003126B9A9003E9E4F0A3F07910A5
:1055200012179802587674E969705C9003E9E024D8
:1055300011125369604C9003E9E0240EFAA3E012C3
:105540005A1AA2E2400C88828983E014F0121F5498
:1055500080D19003E9E0240F181812536AC2E712B1
:1055600050D4240D1253696403700F9003E9E024B2
:105570001008080812536AD2E2F01255AE122166E2
:10558000808774E90254FB741C6960030254FA1AA0
:10559000E0FB9014D21257371221669003E9E4F031
:1055A000A3F00255232401FAA3E03400FB22900368
:1055B000E912676D9014CA12573B221255C1A2E737
:1055C00022F8A3E0126754E02274F2120C18750C52
:1055D00000750D00A2AFE492E0F50AC2AF9003E9B6
:1055E000E07002A3E06009E50AA2E092AF0256A3D0
:1055F000125734122166E94410FA9003E0800985BD
:10560000080C85090D1251381256AB7002E509607D
:10561000D6E5082410F8E5093400F9E8FEE9FF8E24
:10562000828F83E05A6A70D7780C12107FAC08AD75
:10563000091251541210C79003E9E508F0A3E509D7
:105640001256BC40619003E7E014F0E50AA2E09234
:10565000AF9003E9E0240EA3E034001E1EFF8E820B
:105660008F83E0FA9003E91256B1E0F91216A2E92D
:105670009003E4F0A3E41256BC50189003E9E02430
:10568000121256B7121D0E9003E9E024131256B7FA
:10569000121D029003E9125366A2E1B3E492E0F90D
:1056A000121F3C02514A9003E6809D1272B1E50838
:1056B0002212743CA3A3221255C1F922F08E828FCC
:1056C00083E0A2E72274F7120C18EAFEEBFF121730
:1056D000C2EE240F125143A2E3400A12519D7005FD
:1056E0009080238003908024E0F9EEFCEFFD7AE0C7
:1056F0007B03121942E9602FEEFAEFFB9014CE12F1
:105700005737122166EE240EF582EF12508D4008B5
:105710001251771216E48019EEFAEFFB9014C812BA
:105720005737122166800A74F18E828F83A3125735
:1057300040025BC89014D012573B22E0F802537825
:105740001251B01216D822C082C0831216E4025839
:105750007674F7120C187900900406E0FCEA242F06
:10576000F582EB125191EC54027007E0A2E2500274
:1057700079E8EC54607007E0A2E1500279E88A828F
:105780008B83A3A3A3A3E0C39475400279E8EA2422
:105790002DF582EB1251467013EA242AF582EB12A2
:1057A0005146700879F512179E025BC8E970F7122E
:1057B00016C680F5C082C083740D8A828B83F01276
:1057C0001FFC025876C082C083E48A828B83F0A3D8
:1057D000F0EA242F12508A40199003E7E0C0E090CD
:1057E0008023E0FCD0E0C39C401979F112179E029F
:1057F00058769003E6E0C0E0908023E0FCD0E0C360
:105800009C50E71254C180E774F5120C18890AEA1B
:1058100024D8F582E43424F583E493244AFA8A8276
:10582000AE8289082508FAE43400FB121918EA70E0
:1058300001EB60128A828B83A3A3A3A3E50AF0EA9B
:105840002E125E5E80047A007B007F03020E29C068
:1058500082C083E49003FFF0900400F09003F31201
:10586000587D74029003F5F09003FC12587D74018A
:105870009003FE025433D083D082020DF57498F069
:10588000A37417F022C082C08374F112112874022D
:10589000851882851983F0740112130EE9F06004F3
:1058A0007AFF7BFF740212130EEAF0A3EB12734F20
:1058B000740F800274111210C780BBC082C0837441
:1058C000FE121128740A851882851983F07401125A
:1058D000130E12734E740280DD74F0120C181270E5
:1058E000F91212CF7808790C120B28780812107769
:1058F0007AF67B030250C91218CA74042274F41297
:105900000C1874CE121128900433E0640F600774F1
:105910002E12616E80237AED7B031250DA120ACFC9
:1059200088088909750A00750B0078081210777AC3
:10593000ED7B031258F71210C7743202509574F2BF
:10594000120C18EAFEEBFF7C00EE2421F50CEF347C
:1059500000F50D850C82F583E0FA74026A60077425
:10596000036A60027CE8EE2417FAEF125A1AFDC3AC
:10597000940B4045EDC3941D503FEC703E79E1120D
:10598000185EEE2422F50AEF3400F50BAA0AFB7923
:105990005012185EEE2419F508EF12721E850C8263
:1059A000850D83E064027022850882850983126870
:1059B000D4900442125E6980267CE8EC8E828F834C
:1059C000A3F07417125AA702514A90044274FEF0D1
:1059D000A374FFF0AC08AD097A397B04121FA890BC
:1059E00003FFE04401C0E012518BD0E0125A27744B
:1059F000021265682424126554850A82850B83127D
:105A00000F2EAC08AD0979831250EA1210C7E97065
:105A1000B6EEFAEFFB1216EA80AD125A1E223400DF
:105A2000FB8A828B83E022F0EE240DF582EF025197
:105A300091C082C08374F7121128900400E0703284
:105A40007401F0F9121F00851882851983AA82ABB0
:105A5000831217CE900448120F2E9003FFE04401EA
:105A6000FB740212130EAC82AD837A031250C11282
:105A700010C774090258B674F7120C18125C427001
:105A80000774EB88828983F0900400E0A2E250035F
:105A9000C2E2F0E0A2E15005125C518005742A12C6
:105AA0005AA7025BC874298E828F831251B01217D5
:105AB000B02274F7120C1874FE121128125B5812DF
:105AC0005D82851882851983125DA8E0F508701241
:105AD000851882851983AA82AB83795312185E12C6
