:020000040000FA
:100000000205BF020803FFFFFFFFFF02080BFFFF0F
:10001000FFFFFF020813FFFFFFFFFF02081BFFFFA8
:10002000FFFFFF020823FFFFFFFFFF02082BFFFF78
:10003000FFFFFF020833FFFFFFFFFF02083BFFFF48
:10004000FFFFFF020843FFFFFFFFFF02084BFFFF18
:10005000FFFFFF020853FFFFFFFFFF02085BFFFFE8
:10006000FFFFFF020863FFFFFFFFFF02086BFFFFB8
:10007000FFFFFF020873FFFFFFFFFF02087BFFFF88
:10008000FFFFFF020883FFFFFFFFFF02088B626F85
:100090006F74006A756D700074F5120469890874D4
:1000A0000B1205DBE0FEA3E0FF740F5508F50A759F
:1000B0000B00740B780A12058CEA2400F8EB3480EC
:1000C000F9E82400E9350BF9E5C7F509E508C4545A
:1000D0000FFAE5C754F84AF5C7801C88828983E087
:1000E0008C828D83F088828983A3A882A9838C82E5
:1000F0008D83A3AC82AD83EEFAEFFBEA24FF1EEB07
:1001000034FFFFEA4B70D48509C77F0402051789C5
:10011000C1A2E950FCC2E92274F81204697800799E
:1001200000801A8A828B83E0F5C1A3AA82AB83A2E6
:10013000E950FCC2E9E8240108E93400F9C3E89C6D
:10014000E99DA2D265D03340DA7F01020517C08253
:10015000C08379007800A28B401B0974FC6970038E
:1001600079000874FC6870EE900101E0640170E6AB
:10017000E4F0F98004C28BA9C1D083D0822274F745
:10018000120469900101E4F012014EE9647E6004FA
:10019000790080627401F012014EE9900110F09034
:1001A00001641201FE60E9E89001111201FB60E0B8
:1001B000E89001121201FB60D7E8900113120209C6
:1001C000F07E0080191201FF60C68E0874142508A5
:1001D000F58274013400F583E8120209F00E9001F3
:1001E00013E0F8EEC39840DD1201FF60A3900164B4
:1001F000E068709C79017F02020517120209F01273
:10020000014EE9F8900101E022F0900164E028221B
:1002100074F7120469797E12010F900110E09001C9
:1002200064F0F912010F9001111202849001111271
:10023000027A90011212027A9001131202747E0067
:1002400080208E0874142508F874013400F988821F
:100250008983E0FA900164E02AF08882898312029F
:10026000740E900113E0F8EEC39840D6900164122A
:1002700002748082E0F912010F22E0F912010FA34B
:1002800012028422E0F8900164E028F0227E007FD0
:1002900002750A0143FE0443FE0853BEFBE59DA21E
:1002A000E650FA0078F8790100E824FF18E934FFF5
:1002B000F9E84970F375C680C2927480659E70FA41
:1002C000D29243BE049062707408F043FE0443FE71
:1002D0000875F80075FC0B75FAD843FC2043F10251
:1002E00043F4E053F4F143900EC29143FE0E53F5F4
:1002F000DFD2FED2917401F5D575D40175081D8E3B
:1003000009780812059F7CE37D077AE37B07790073
:10031000120098EF12057253FDDF53C6BFE59EA28F
:10032000E640FA53C6B875F10075F33C53FF3F43FE
:10033000868043C50B43C2D8C2E9438640C28BA224
:10034000857C047D00500302045E7A097B01120162
:100350001843FE18C2948049D2F0A29430F001B341
:100360009294750800750900750C40750D00780CA5
:1003700012059F7C147D01AA08AB09A90A120098F6
:1003800074021205729001137440F0120210E50815
:100390002440F508E5093400F509C3940840C9056F
:1003A0000A12017EE960FA900100E4F0900102F087
:1003B000900111E024BF600C14700302044E24FB72
:1003C000609680DDEEF8EF5401F9E849701A8E0866
:1003D0008F09740978081205B0E508C3339062727A
:1003E000F0906270E0D2E0F0900113E01313543FFC
:1003F000F89001017401F0A37414F0A37462F0A3E7
:100400007473F0A3E0541FF0E8333354FCA3F0906E
:100410000105E4F09001077412F0A37442F053D187
:10042000FE75D601EE906271F0EFA3F01207E39033
:100430000113E01313543FF8EE28FEEF3400FFA33E
:10044000E4F09001137402F01202100203A1900173
:10045000147455F0A3E4F0900113740380E97A0E4C
:100460007B01120118020800222518C582C0E0E5B0
:100470001934FFC583C0E0E518C3958224F910AF95
:10048000088583198582188008858319858218D28A
:10049000AFCEF0A3E520F0A37808E608F0A3DEFADB
:1004A000EFF0A3E58124FBF8E608F0A3E608F0A34B
:1004B0000808E608F0A3E608F0A315811581D0E04E
:1004C000FED0E0F815811581E8C0E0EEC0E0221210
:1004D00005EAB90003020511E490010178097901E8
:1004E0008002F0A3D8FCD9FA900109AA82AB8390CC
:1004F000008E780B79018015E493A3AC82AD838ADA
:10050000828B83F0A3AA82AB838C828D83D8E9D9B6
:10051000E712028D1205E5851983851882E0A3FE96
:10052000E0A3F5207808E0A3F608DFFAE0A3FFE0F7
:10053000A3C0E0E0A3C0E0E0A3C0E0E0A3C0E010FF
:10054000AF088582188583198008858218858319EC
:10055000D2AFD083D082222518F58210AF08F518CB
:10056000400215198008F51840021519D2AF8519F7
:100570008322C0D0251810AF08F518500205198045
:1005800008F51850020519D2AFD0D02270042260AD
:100590000D18C6C333C608C633C6D5E0F418227496
:1005A000028000C0E0F404120557D0E01205CE220C
:1005B000600C08C6C313C618C613C6D5E0F422756E
:1005C000D0007581407518017519010204CFCAC0A9
:1005D000E0E6F0A308DAFAD0E0FA222518F582E482
:1005E0003519F5832200000080FB790122FFFFFF0F
:1005F000FFFFFFFFFFFFFFFFFFFFFFFFFFFFFFFF0B
:10060000FFFFFFFFFFFFFFFFFFFFFFFFFFFFFFFFFA
:10061000FFFFFFFFFFFFFFFFFFFFFFFFFFFFFFFFEA
:10062000FFFFFFFFFFFFFFFFFFFFFFFFFFFFFFFFDA
:10063000FFFFFFFFFFFFFFFFFFFFFFFFFFFFFFFFCA
:10064000FFFFFFFFFFFFFFFFFFFFFFFFFFFFFFFFBA
:10065000FFFFFFFFFFFFFFFFFFFFFFFFFFFFFFFFAA
:10066000FFFFFFFFFFFFFFFFFFFFFFFFFFFFFFFF9A
:10067000FFFFFFFFFFFFFFFFFFFFFFFFFFFFFFFF8A
:10068000FFFFFFFFFFFFFFFFFFFFFFFFFFFFFFFF7A
:10069000FFFFFFFFFFFFFFFFFFFFFFFFFFFFFFFF6A
:1006A000FFFFFFFFFFFFFFFFFFFFFFFFFFFFFFFF5A
:1006B000FFFFFFFFFFFFFFFFFFFFFFFFFFFFFFFF4A
:1006C000FFFFFFFFFFFFFFFFFFFFFFFFFFFFFFFF3A
:1006D000FFFFFFFFFFFFFFFFFFFFFFFFFFFFFFFF2A
:1006E000FFFFFFFFFFFFFFFFFFFFFFFFFFFFFFFF1A
:1006F000FFFFFFFFFFFFFFFFFFFFFFFFFFFFFFFF0A
:10070000FFFFFFFFFFFFFFFFFFFFFFFFFFFFFFFFF9
:10071000FFFFFFFFFFFFFFFFFFFFFFFFFFFFFFFFE9
:10072000FFFFFFFFFFFFFFFFFFFFFFFFFFFFFFFFD9
:10073000FFFFFFFFFFFFFFFFFFFFFFFFFFFFFFFFC9
:10074000FFFFFFFFFFFFFFFFFFFFFFFFFFFFFFFFB9
:10075000FFFFFFFFFFFFFFFFFFFFFFFFFFFFFFFFA9
:10076000FFFFFFFFFFFFFFFFFFFFFFFFFFFFFFFF99
:10077000FFFFFFFFFFFFFFFFFFFFFFFFFFFFFFFF89
:10078000FFFFFFFFFFFFFFFFFFFFFFFFFFFFFFFF79
:10079000FFFFFFFFFFFFFFFFFFFFFFFFFFFFFFFF69
:1007A000FFFFFFFFFFFFFFFFFFFFFFFFFFFFFFFF59
:1007B000FFFFFFFFFFFFFFFFFFFFFFFFFFFFFFFF49
:1007C000FFFFFFFFFFFFFFFFFFFFFFFFFFFFFFFF39
:1007D000FFFFFFFFFFFFFFFFFFFFFFFFFFFFFFFF29
:1007E000FFFFFFC082C08343C708906270E0D2E180
:1007F000F0E0A2E740FB53C7F7D083D08222FFFF8F
:04000005000005BF33
:00000001FF
