:020000040000FA
:1000000002071C020803FFFFFFFFFF02080BFFFFB0
:10001000FFFFFF020813FFFFFFFFFF02081BFFFFA8
:10002000FFFFFF020823FFFFFFFFFF02082BFFFF78
:10003000FFFFFF020833FFFFFFFFFF02083BFFFF48
:10004000FFFFFF020843FFFFFFFFFF02084BFFFF18
:10005000FFFFFF020853FFFFFFFFFF02085BFFFFE8
:10006000FFFFFF020863FFFFFFFFFF02086BFFFFB8
:10007000FFFFFF020873FFFFFFFFFF02087BFFFF88
:10008000FFFFFF020883FFFFFFFFFF02088B576F90
:10009000726B466F72596F7572447265616D006262
:1000A0006F6F74006A756D7000090174F51205C6F2
:1000B0008908740B120738E0FEA3E0FF740F55089F
:1000C000F50A750B00740B780A1206E9EA2400F8A9
:1000D000EB3480F9E82400E9350BF9E5C7F509E5CB
:1000E00008C4540FFAE5C754F84AF5C7801C888243
:1000F0008983E08C828D83F088828983A3A882A97A
:10010000838C828D83A3AC82AD83EEFAEFFBEA246D
:10011000FF1EEB34FFFFEA4B70D48509C77F040252
:10012000067489C1A2E950FCC2E92274F81205C61E
:1001300078007900801A8A828B83E0F5C1A3AA82B5
:10014000AB83A2E950FCC2E9E8240108E93400F9D4
:10015000C3E89CE99DA2D265D03340DA7F01020654
:1001600074C082C08379007800A28B401B0974FCA4
:1001700069700379000874FC6870EE900101E06416
:100180000170E6E4F0F98004C28BA9C1D083D0826B
:100190002274F71205C6900101E4F0120161E964CE
:1001A0007E6004790080627401F0120161E99001BF
:1001B00010F090016412021160E9E890011112023E
:1001C0000E60E0E890011212020E60D7E890011371
:1001D00012021CF07E00801912021260C68E087492
:1001E000142508F58274013400F583E812021CF02E
:1001F0000E900113E0F8EEC39840DD12021260A3E6
:10020000900164E068709C79017F0202067412021A
:100210001CF0120161E9F8900101E022F090016404
:10022000E0282274F71205C6797E1201229001108F
:10023000E0900164F0F912012290011112029790EE
:10024000011112028D90011212028D9001131202FF
:10025000877E0080208E0874142508F8740134000D
:10026000F988828983E0FA900164E02AF088828923
:10027000831202870E900113E0F8EEC39840D690E7
:1002800001641202878082E0F912012222E0F91251
:100290000122A312029722E0F8900164E028F022E4
:1002A00074EF1205C6890E7411120738E0F8A3E046
:1002B000F9E8FEE9FF8C088D097404780812070D2F
:1002C00085080A85090BEC540F600CE50A2401F53A
:1002D0000AE50B3400F50BE50E600AE5B354F8446B
:1002E00002F5B3800353B3F8E5B35470F50F750806
:1002F000007509008047E4F5B10511E511C39410BC
:100300004075750C0F850C1074FF2510F50C0470EA
:10031000F4751100E5B2C0E0120399EE250CF582E8
:10032000EF350DF583D0E0F00511E511C3941040D1
:10033000E3E5082401F508E5093400F509C3E508FB
:10034000950AE509950B504C43B30185080C8509C6
:100350000D7404780C1206E9A80CA90D7410650F31
:1003600060CF7420650F60C97430650F60C374502E
:10037000650F60BD751100120399C3E50C9CE50D76
:100380009D40030202F6EA250CF582EB350DF5835C
:10039000E00202F77F0A02067485110CE8250CF5CD
:1003A0000CE93400F50D227E007F02750A0153BE70
:1003B000FBE59DA2E650FA0078F8790100E824FFF9
:1003C00018E934FFF9E84970F375C6807480659EBA
:1003D00070FA43BE049062707408F043FE0443FD5B
:1003E00080438F0143FE0443FE0875F80075FC0B43
:1003F00075FAD843FC2043F10243F4E053F4F1438F
:10040000900EC29143FE0E53F5DFD2FED2917401DD
:10041000F5D575D40175081D8E0978081206FC7C87
:10042000E37D077AE37B0779001200ABEF1206CF7A
:1004300053FDDF53C6BFE59EA2E640FA53C6B8752A
:10044000F10075F33C53FF3F43868043C50B43C225
:10045000D8C2E9438640C28B53B38F43B340900167
:1004600024E0F8A3E0F9E5B354F84404F5B343B34A
:10047000017A008A08E82508F582E93400F583E06E
:10048000F5B10AEAC3941040EAA2857C047D0050CD
:10049000030205BB7A1A7B0112012B43FE18C2949A
:1004A000803F750800750900750C40750D00780CCB
:1004B0001206FC7C147D01AA08AB09A90A1200AB44
:1004C00074021206CF9001137440F0120223E50863
:1004D0002440F508E5093400F509C3940840C9052E
:1004E0000A120191E960FA900100E4F0900102F033
:1004F000900111E024BF600C1470030205AB24FBD3
:1005000060A080DD75081475090178081206FC7971
:10051000017C107D007A147B011202A07402120685
:10052000CFEEF8EF5401F9E849701A8E088F09747C
:1005300009780812070DE508C333906272F09062E3
:1005400070E0D2E0F0900113E01313543FF89001F3
:10055000017401F0A37414F0A37462F0A37473F037
:10056000A3E0541FF0E8333354FCA3F0900105E4FA
:10057000F09001077412F0A37442F053D1FE75D6C7
:1005800001EE906271F0EFA3F01207E3900113E027
:100590001313543FF8EE28FEEF3400FFA3E4F0906D
:1005A00001137402F01202230204E1900114745545
:1005B000F0A3E4F0900113740380E97A1F7B011229
:1005C000012B020800222518C582C0E0E51934FF7E
:1005D000C583C0E0E518C3958224F910AF08858370
:1005E000198582188008858319858218D2AFCEF0CC
:1005F000A3E520F0A37808E608F0A3DEFAEFF0A365
:10060000E58124FBF8E608F0A3E608F0A30808E675
:1006100008F0A3E608F0A315811581D0E0FED0E034
:10062000F815811581E8C0E0EEC0E022120747B955
:10063000000302066EE4900101780979018002F05E
:10064000A3D8FCD9FA900109AA82AB8390008E78D6
:100650001E79018015E493A3AC82AD838A828B83DB
:10066000F0A3AA82AB838C828D83D8E9D9E71203E9
:10067000A7120742851983851882E0A3FEE0A3F53F
:10068000207808E0A3F608DFFAE0A3FFE0A3C0E0CB
:10069000E0A3C0E0E0A3C0E0E0A3C0E010AF0885A5
:1006A00082188583198008858218858319D2AFD076
:1006B00083D082222518F58210AF08F51840021564
:1006C000198008F51840021519D2AF85198322C088
:1006D000D0251810AF08F518500205198008F51834
:1006E00050020519D2AFD0D022700422600D18C676
:1006F000C333C608C633C6D5E0F41822740280009E
:10070000C0E0F4041206B4D0E012072B22600C08FB
:10071000C6C313C618C613C6D5E0F42275D000753B
:10072000814075180175190102062CCAC0E0E6F077
:10073000A308DAFAD0E0FA222518F582E43519F593
:10074000832200000080FB790122FFFFFFFFFFFFF3
:10075000FFFFFFFFFFFFFFFFFFFFFFFFFFFFFFFFA9
:10076000FFFFFFFFFFFFFFFFFFFFFFFFFFFFFFFF99
:10077000FFFFFFFFFFFFFFFFFFFFFFFFFFFFFFFF89
:10078000FFFFFFFFFFFFFFFFFFFFFFFFFFFFFFFF79
:10079000FFFFFFFFFFFFFFFFFFFFFFFFFFFFFFFF69
:1007A000FFFFFFFFFFFFFFFFFFFFFFFFFFFFFFFF59
:1007B000FFFFFFFFFFFFFFFFFFFFFFFFFFFFFFFF49
:1007C000FFFFFFFFFFFFFFFFFFFFFFFFFFFFFFFF39
:1007D000FFFFFFFFFFFFFFFFFFFFFFFFFFFFFFFF29
:1007E000FFFFFFC082C08343C708906270E0D2E180
:1007F000F0E0A2E740FB53C7F7D083D08222FFFF8F
:040000050000071CD4
:00000001FF
