:10000000020960022003FFFFFFFFFF02200BFFFF3A
:10001000FFFFFF022013FFFFFFFFFF02201BFFFF78
:10002000FFFFFF022023FFFFFFFFFF02202BFFFF48
:10003000FFFFFF022033FFFFFFFFFF02203BFFFF18
:10004000FFFFFF022043FFFFFFFFFF02204BFFFFE8
:10005000FFFFFF022053FFFFFFFFFF02205BFFFFB8
:10006000FFFFFF022063FFFFFFFFFF02206BFFFF88
:10007000FFFFFF022073FFFFFFFFFF02207BFFFF58
:10008000FFFFFF022083FFFFFFFFFF02208B576F60
:10009000726B466F72596F7572447265616D00497B
:1000A0006E697469616C0D0A0056657269666965EE
:1000B00064204572726F720053746172740D0A008D
:1000C000626F6F74006A756D7000090154324D3AA9
:1000D000A600890F74F51207FE8908740B120994A3
:1000E000E0FEA3E0FF740F5508F50A750B00740BD2
:1000F000780A1207D0EA2400F8EB3480F9E82400EB
:10010000E9350BF9E5C7F509E508C4540FFAE5C769
:1001100054F84AF5C7801C88828983E08C828D83DD
:10012000F088828983A3A882A9838C828D83A3AC63
:1001300082AD83EEFAEFFBEA24FF1EEB34FFFFEA09
:100140004B70D48509C77F040208AC74F71207FE10
:100150007409120994E0F508A3E0F509ED90010196
:10016000F0ECA3F0A37462F0A37473F0A3E0541F47
:10017000F0E508333354FCA3F074067808120951F3
:10018000E508900105F09001077412F0A37442F0A5
:1001900053D1FE75D601EA906271F0EBA3F012071D
:1001A000E302034AC082C083801D198A828B83E0E8
:1001B0008C828D83F08A828B83A3AA82AB838C820C
:1001C0008D83A3AC82AD83E970E0D083D082228995
:1001D000C1A2E950FCC2E922C082C0838A828B831B
:1001E00080041201CFA3E0F970F880DE74F81207E2
:1001F000FE78007900801A8A828B83E0F5C1A3AA79
:1002000082AB83A2E950FCC2E9E8240108E934008A
:10021000F9C3E89CE99DA2D265D03340DA7F0102A0
:1002200008ACC082C08379007800A28B401B09749F
:10023000FC69700379000874FC6870EE900101E0BD
:10024000640170E6E4F0F98004C28BA9C10201CA1E
:1002500074F71207FE900101E4F0120222E9647EB5
:100260006004790080627401F0120222E9900110AA
:10027000F09001641202D260E9E89001111202CFFD
:1002800060E0E89001121202CF60D7E890011312EB
:1002900002E1F07E0080191202CB60C68E08741451
:1002A0002508F58274013400F583E81202E1F00EAE
:1002B000900113E0F8EEC39840DD1202CB60A390EA
:1002C0000164E068709C790102034A1202D722128D
:1002D00002E1F01202D722120222E9F8900101E0B5
:1002E00022F0900164E0282274F71207FE797E1252
:1002F00001CF900110E0900164F0F91201CF90015C
:100300001112035F9001111203559001121203554F
:1003100090011312034F7E0080208E08741425086C
:10032000F874013400F988828983E0FA900164E06E
:100330002AF08882898312034F0E900113E0F8EEB1
:10034000C39840D690016412034F7F020208ACE0CC
:10035000F91201CF22E0F91201CFA312035F22E0CC
:10036000F8900164E028F02274F71207FEE96008B3
:10037000E5B354F844048006E5B354F84406F5B3F5
:1003800043B30178008808EA2508F582EB3400F5CC
:1003900083E0F5B108E8C3941040EA80AD74EF1231
:1003A00007FE890E7411120994E0F8A3E0F9E8FE43
:1003B000E9FF8C088D097404780812095185080A30
:1003C00085090BEC540F600CE50A2401F50AE50BD6
:1003D0003400F50BE50E600AE5B354F84402F5B3BA
:1003E000800353B3F8E5B35470F50F750800750931
:1003F000008047E4F5B10511E511C394104075750F
:100400000C0F850C1074FF2510F50C0470F4751199
:1004100000E5B2C0E0120496EE250CF582EF350D32
:10042000F583D0E0F00511E511C3941040E3E50831
:100430002401F508E5093400F509C3E508950AE546
:1004400009950B504C43B30185080C85090D7404C4
:10045000780C1207D0A80CA90D7410650F60CF742A
:1004600020650F60C97430650F60C37450650F60FC
:10047000BD751100120496C3E50C9CE50D9D40036B
:100480000203F3EA250CF582EB350DF583E0020358
:10049000F47F0A0208AC85110CE8250CF50CE93450
:1004A00000F50D2274F01209067E007F087508041D
:1004B00053BEFBE59DA2E650FA0078F8790100E80A
:1004C00024FF18E934FFF9E84970F375C680748099
:1004D000659E70FA43BE04906270EFF043FE0443E1
:1004E000FE087401F5D575D401750A1D8E0B780AC6
:1004F0001209317CE37D077AE37B0779001200D48F
:1005000074021208EC53FDDF53C6BFE59EA2E6401D
:10051000FA53C6B875F10075F33C53FF3F4386802C
:1005200043C50B43C2D8C2E9438640C28B53B38F45
:1005300043B3407901900145E0FAA3E0FB12036860
:1005400079017A097B01120368750A10780A120989
:10055000317402120994AC82AD837AF07B0779037F
:100560001200D474021208EC85188285820A8583F1
:100570000B780A12093179017C107D00740212098E
:1005800094AA82AB8312039D74021208EC85188230
:10059000C082C083900147780C120942D083D08278
:1005A000780C12091C600302062F7A1A7B011201D3
:1005B000D890014B12098885188285198312097C0D
:1005C00079087404120994AC82AD837A0C7B78129A
:1005D00001A4780A12093179007C107D007402129E
:1005E0000994AA82AB8312039D74021208EC9062F4
:1005F0007274061207AC750A048E0B780A12093160
:100600007402120994AC82AD837AFC7B0712014B11
:1006100074021208ECA2857C047D00500302079C42
:100620007A3B7B011201EC43FE18C29402070D8550
:100630001882851983C082C08390014B780C1209FF
:1006400042D083D082780C12091C70797908740C1E
:10065000120994AC82AD837A0C7B781201A48F0CC2
:100660008E0D7404120994A882A983740C12099443
:10067000AA82AB83AC0CAD0DEC24FFF50CED34FF7E
:10068000F50DEC4D6035E8FCE9FD8C828D83A3A867
:1006900082A9838A0A8B0B850A82850B83A3AA828F
:1006A000AB838C828D83E0FC850A82850B83E06CB2
:1006B00060C27A247B011201D880FE7A337B01125A
:1006C00001D80206157A247B011201D880FE750A32
:1006D00000750B00750C40750D00780C1209317C0B
:1006E000147D01AA0AAB0BA9081200D474021208E7
:1006F000EC9001137440F01202E8E50A2440F50A78
:10070000E50B3400F50BC3940840C90508120250EC
:10071000E960FA900100E4F0900102F0900111E02C
:1007200024BF600914606524FB60A380E0EEF8EF4D
:100730005401F9E84970158E0A8F0B7409780A1272
:100740000951E50AC3339062721207AC900113E0BD
:100750001313543FF50A750B00780A1209317C1403
:100760007D01EEFAEFFB12014B74021208EC9001CE
:1007700013E01313543FF8EE28FEEF3400FFA3E418
:10078000F09001137402F01202E880819001147459
:1007900055F0A3E4F0900113740380EA7A407B01E2
:1007A0001201EC02200074101208EC22F09062702A
:1007B000E0D2E0F0222518F58210AF08F5184002CB
:1007C00015198008F51840021519D2AF8519832232
:1007D000700422600D18C6C333C608C633C6D5E000
:1007E000F41822C082C08343C708906270E0D2E14F
:1007F000F0E0A2E740FB53C7F7D083D08222251850
:10080000C582C0E0E51934FFC583C0E0E518C39593
:100810008224F910AF0885831985821880088583A2
:1008200019858218D2AFCEF0A3E520F0A37808E6B0
:1008300008F0A3DEFAEFF0A3E58124FBF8E608F068
:10084000A3E608F0A30808E608F0A3E608F0A3155D
:10085000811581D0E0FED0E0F815811581E8C0E077
:10086000EEC0E0221209A3B900030208A6E4900139
:1008700001780979018002F0A3D8FCD9FA90010926
:10088000AA82AB8390008E784779018015E493A308
:10089000AC82AD838A828B83F0A3AA82AB838C82E5
:1008A0008D83D8E9D9E71204A412099E851983859E
:1008B0001882E0A3FEE0A3F5207808E0A3F608DFA5
:1008C000FAE0A3FFE0A3C0E0E0A3C0E0E0A3C0E043
:1008D000E0A3C0E010AF08858218858319800885E1
:1008E0008218858319D2AFD083D08222C0D0251838
:1008F00010AF08F518500205198008F518500205C8
:1009000019D2AFD0D022251810AF08F51840021523
:10091000198008F51840021519D2AF22E066701050
:1009200008A3E066700A08A3E066700408A3E06606
:100930002274028000C0E0F4041207B5D0E012096E
:100940006F22E0F608A3E0F608A3E0F608A3E0F6BD
:1009500022600C08C6C313C618C613C6D5E0F4221D
:1009600075D000758140751801751901020864CAB7
:10097000C0E0E6F0A308DAFAD0E0FA22EAF0A3EB4E
:10098000F0A3ECF0A3EDF022E0FAA3E0FBA3E0FC7F
:10099000A3E0FD222518F582E43519F58322000035
:1009A0000080FB790122FFFFFFFFFFFFFFFFFFFF3A
:1009B000FFFFFFFFFFFFFFFFFFFFFFFFFFFFFFFF47
:1009C000FFFFFFFFFFFFFFFFFFFFFFFFFFFFFFFF37
:1009D000FFFFFFFFFFFFFFFFFFFFFFFFFFFFFFFF27
:1009E000FFFFFFFFFFFFFFFFFFFFFFFFFFFFFFFF17
:101FF000871F0A9EC76017B71EDF5D3060AF62BBE8
:10200000022AD00221FAFFFFFFFFFFFFFFFFFFFFC1
:10201000FFFFFF022216FFFFFFFFFFFFFFFFFFFF93
:10202000FFFFFFFFFFFFFFFFFFFFFF023B42FFFF3E
:10203000FFFFFFFFFFFFFFFFFFFFFF02226BFFFF1E
:10204000FFFFFFFFFFFFFFFFFFFFFF0227DFFFFF95
:10205000FFFFFF02211CFFFFFFFFFF0227EEFFFF34
:10206000FFFFFF0227FAFFFFFFFFFF023B37FFFFE3
:10207000FFFFFFFFFFFFFFFFFFFFFFFFFFFFFFFF70
:10208000FFFFFF02216AFFFFA6F30101010FFEFF20
:102090000300030003000300030003000300030028
:1020A000030005000A00140028004F009E000000F5
:1020B0001D311D311D31E52FDF2F1D319B3C0000EF
:1020C0000000393C000000000C0000000C00019FE3
:1020D00004FF0100D4100000000D11640002020290
:1020E000071E02051E020A03B80BF0FF02011700CB
:1020F000FF477530600401A00401A00401A00401A1
:1021000000000100000F00FF48FF00000000000079
:1021100000000000000E000000020206C0E074F2A1
:102120001224B3E5A7F8E5A1F95854106008123558
:10213000E553A1EF802FE8A2E0C0D0E9A2E092F041
:10214000122A6C158182F0501C906198E0F890136F
:102150000BE4F090130AE0C398A2D265D03350028A
:10216000E8F053A1FE7F0102256AC0E074F2122458
:10217000B39061A4E0F8759B00E59158540860089D
:102180007591F71236278055E591585410600875FF
:1021900091EF12362D8046E8A2E0C0D0E591A2E092
:1021A00092F0122A6C158182F05009E0C2E0F01220
:1021B00038AF8029E59158540260085391FD1238D8
:1021C0005B801AE8A2E0C0D0E591A2E092F0122A6A
:1021D0006C158182F050065391FE1238619061A314
:1021E000E0F8E5E9585404600E12388575E9FB9073
:1021F0006193E0A2E640F2022165C0E074F212248D
:10220000B39061A5E0F8E5BF585404600653BFFBE6
:102210001238C7022165C0E0C0D0E8C0E0E9C0E0E4
:10222000C082C083E5C1C0E0901275E0F874F42864
:10223000F58274113400F583D0E0F0901274E0F868
:10224000A3E0687006E595901277F0901275E004AF
:10225000F0C394804002E4F0A374C6F0D083D0822F
:10226000D0E0F9D0E0F8D0D0D0E032C0E0C0D0E883
:10227000C0E0C008C009C082C0839012F8E0F8A393
:10228000E0687008539AFBA374018026C2E990129B
:10229000F8E0F50874012508F074782508F58274D3
:1022A000123400F583E0F5C19012F8E0C394804049
:1022B00002E4F0D083D082D009D00880A6C3E4988D
:1022C000F8E499F91222FE8026C3E49AFAE49BFB13
:1022D000E920E7E91222FEE498F8E499F922C3E440
:1022E00098F8E499F91222FEE498F8E499F9C3E425
:1022F0009AFAE49BFB22EB20E7CFE920E7E0B90064
:1023000010BB0008E88AF084F8AAF022E4FBC8FABF
:1023100022EB70227B10C833C8C933C9335007C3BE
:102320009AC3DBF280069A50012ADBEAC833F4C86C
:10233000C933F4C9FA2275F008E4C833C8C933C9EF
:1023400033C99AC99B5004C92AC93BD5F0ECFBC8D4
:1023500033F4C8E4C9FA22080808EAC0E0EBC0E098
:1023600086F0E7A4FA180986F0E7A42AFA18098685
:10237000F0E7A42AFA180986F0E7A42AFA1986F0E9
:10238000E7A4FBE5F02AFA190886F0E7A42BFBE5A1
:10239000F03AFA190886F0E7A42BFBE5F03AFA18B0
:1023A000180986F0E7A4C5F02BFBE43AFA1908E710
:1023B000C5F0C6A426F6E5F03BFBE43AFA1886F031
:1023C000E7A4F6E5F00826F6E43B08F6E43A08F65A
:1023D000D0E0FBD0E0FA22E4CFC0E0E4CEC0E0E4FD
:1023E000CDC0E0E4CCC0E075F020C3E633F608E6EB
:1023F00033F608E633F608E633F6181818EC33FC23
:10240000ED33FDEE33FEEF33FFC3EC9709ED970993
:10241000EE9709EF97191919400FFFEC97FC09ED9A
:1024200097FD09EE97FE191906D5F0BEECF709EDF8
:10243000F709EEF709EFF7191919D0E0FCD0E0FD24
:10244000D0E0FED0E0FF222518C582C0E0E51934B7
:10245000FFC583C0E0E518C3958224F810AF088556
:1024600083198582188008858319858218D2AFCE9A
:10247000F0A3E520F0A37808E608F0A3DEFAEFF079
:10248000A3E58124FAF8E608F0A3E608F0A3E6083D
:10249000F0A30808E608F0A3E608F0A3158115816B
:1024A000D0E0FED0E0F8158115811581E8C0E0EE9E
:1024B000C0E022C0D02518C582C0E0E51934FFC5B0
:1024C00083C0E0E518C3958224F310AF0885831913
:1024D0008582188008858319858218D2AFC8F0A339
:1024E000E9F0A3EAF0A3EBF0A37908E709F0A3D899
:1024F000FAECF0A3EDF0A3EEF0A3EFF0A3D0E0F040
:10250000A3D0E0F0A3D0E0F0A3E520F0A3E5F0F045
:10251000A322122B32B90003022554E49003017860
:10252000E579178002F0A3D8FCD9FA9019E5AA82C0
:10253000AB8390208A789379018015E493A3AC82D1
:10254000AD838A828B83F0A3AA82AB838C828D8336
:10255000D8E9D9E77582227583FD740212260E75BB
:10256000823D75833B740012260E8519838518827F
:10257000E0C0E0A3E0F9A3E0FAA3E0FBA37808E061
:10258000F608A3DFFAE0FCA3E0FDA3E0FEA3E0FF72
:10259000A3E0C0E0A3E0C0E0A3E0F5D0A3E0F52015
:1025A000A3E0A3F5F010AF08858319858218800891
:1025B000858319858218D2AFD082D083D0E0F8D03D
:1025C000E032D083D082ECC0E0EDC0E0E493A3FC25
:1025D000E493A3FDED4C600D1226E4EC24FFFCED2A
:1025E00034FFFD80EFE493A3FCE493A3FDED4C6086
:1025F0000D12278AEC24FFFCED34FFFD80EFD0E0C4
:10260000FDD0E0FCE493A3C0E0E493C0E022C0F07E
:10261000F5F0E59F5407C0E0E59F54F845F0D0F091
:10262000F59FE473859FF053F0F8D0E045F0F59FF7
:1026300022D083D082E59F5407C0E0E493C0E074C9
:102640000193C0E07402935407C0F0F5F0E59F5485
:10265000F845F0D0F0F59F22851983851882E0A314
:10266000FEE0A3F5207808E0A3F608DFFAE0A3FF78
:10267000E0A3C0E0E0A3C0E0E0A3C0E0E0A3C0E0CE
:10268000E0A3C0E010AF0885821885831980088513
:102690008218858319D2AFD083D082022624D083BA
:1026A000D082E9C0E0E493A3C386F0C5F095F0F9C9
:1026B00008E493A386F0C5F095F0700BE493A3C3F0
:1026C000994005E9048002A3E475F002A42582F58F
:1026D00082E5F03583F583D0E0F9E493A3C0E0E42C
:1026E00093C0E022C0E0C3E4939608740193961867
:1026F000400FE493667008087401936618700070C8
:1027000019A3A3C3E49396087401939618A3A34056
:102710000DD0E0D0E0D0E00225FEA3A3A3A3A3A3A5
:10272000D0E022D083D082C5F0E493A3C5F0C39556
:10273000F0F5F0E493A3C395F04005E5F0048001C3
:10274000E475F002A42582F582E5F03583F583E493
:1027500093A3C0E0E493C0E0227404800474028078
:1027600000CCC0E0EDC0E0E518C39CCCAD19500131
:102770001D10AF068C188D1980068C188D19D2AFDC
:10278000122828D0E0FDD0E0FC22C0E0C0F088F0A4
:10279000E4936670080874019366187000A8F0A3AB
:1027A000A3700BD0F0D0E0D0E0D0E00225FEA3A3D0
:1027B000D0F0D0E022D083D082CCC0E0E493A360FC
:1027C000061228681470FAE493A3600612294114D3
:1027D00070FAD0E0FCE493A3C0E0E493C0E022C030
:1027E000E074F21224B31235437F0102256AC0E07F
:1027F00074F21224B312354980EFC0E074F212244F
:10280000B312354F80E3CAC0E0E493A3C582CCC5C0
:1028100082C583CDC583F0A3C582CCC582C583CDD7
:10282000C583DAE5D0E0CA22CAC0E0E0A3C582CC05
:10283000C582C583CDC583F0A3C582CCC582C583BF
:10284000CDC583DAE6D0E0CA227009080808226004
:1028500016181818C6C333C608C633C608C633C60A
:1028600008C633C6D5E0EA22C0E0E493A3D39C5067
:1028700010E493A3C39C400AD0E0D0E0D0E002274C
:10288000D2A3A3A3D0E022C008C3E096F50808A312
:10289000E096420808A3E096420808A3E09645089F
:1028A0007001D3D008227404800A74038006740275
:1028B00080027401C0E0F4041228C1D0E0122B0D94
:1028C000222518F58210AF08F51840021519800866
:1028D000F51840021519D2AF85198322BB0102E712
:1028E00022C082C08389828A83BB0003E08002E425
:1028F00093D083D08222C0D0251810AF08F518508D
:102900000205198008F51850020519D2AFD0D0225F
:102910006016080808C6C313C618C613C618C6131F
:10292000C618C613C6D5E0EA22C3E0C696F608A3C9
:10293000E0C696F608A3E0C696F608A3E0C696F6AB
:1029400022C0E0E493A36C7009D0E0D0E0D0E002B4
:1029500027D2A3A3D0E022251810AF08F518400213
:1029600015198008F51840021519D2AF22E06670DB
:102970001008A3E066700A08A3E066700408A3E0EC
:102980006622C3E7960809E7960809E7960809E76B
:1029900096A2D265D03322C3E09608A3E09608A39E
:1029A000E09608A3E096A2D265D03322C3E697F65C
:1029B0000809E697F60809E697F60809E697F62269
:1029C000C3E096F008A3E096F008A3E096F008A311
:1029D000E096F022E627F60809E637F60809E6371A
:1029E000F60809E637F622E026F608A3E036F608F0
:1029F000A3E036F608A3E036F622E657F60809E625
:102A000057F60809E657F60809E657F622E056F6A3
:102A100008A3E056F608A3E056F608A3E056F6220F
:102A2000E056F008A3E056F008A3E056F008A3E053
:102A300056F022E647F60809E647F60809E647F6A3
:102A40000809E647F622700422600D18C6C333C693
:102A500008C633C6D5E0F41822E026F008A3E03615
:102A6000F008A3E036F008A3E036F022C0E0E8C0AA
:102A7000E0E58124FCF8E6A2E7D0E0F8D0E022E42B
:102A8000C396F608E496F608E496F608E496F6226D
:102A9000C6F4C608C6F4C608C6F4C608C6F4C622FC
:102AA000600D08C6A2E713C618C613C6D5E0F32208
:102AB000C3E7960809E7960809E7960809E796220A
:102AC000C3E09608A3E09608A3E09608A3E0962248
:102AD00075D0007581407518017519030002251223
:102AE000600C08C6C313C618C613C6D5E0F422E6A8
:102AF000F008A3E6F008A3E6F008A3E6F022E0F66B
:102B000008A3E0F608A3E0F608A3E0F622CAC0E0B6
:102B1000E6F0A308DAFAD0E0FA22E0FAA3E0FBA399
:102B2000E0FCA3E0FD22EAF0A3EBF0A3ECF0A3EDC0
:102B3000F022E5C754F84401F5C77901222518F5BC
:102B400082E43519F58322122631248E02122631B1
:102B5000378E02122631DC8E02122631628F02126B
:102B60002631A18F02122631E38F02122631CF9037
:102B700002122631D29202122631DC920212263142
:102B8000E69202122631F092021226310A930212C4
:102B900026311493021226311E93021226312893F5
:102BA00002122631499302122631AD9302122631C8
:102BB0001F94021226315395021226317695021285
:102BC00026313996021226315F96021226313F973E
:102BD00002122631A09902122631079B02122631D9
:102BE000C69C02122631189D02122631FB9D02124C
:102BF0002631489E02122631B39E02122631BD9E16
:102C000002122631A8A002122631CDA002122631CE
:102C10001EA1021226311FA20212263157A2021251
:102C2000263197A202122631FAA20212263113A4EB
:102C30000212263173A40212263157A50212263140
:102C40005DA70212263179A7021226311EA90212AF
:102C5000263164A90212263142AA02122631ACAAF8
:102C600002122631DDAA0212263119AB02122631D8
:102C7000A7AB02122631AAAB0212263116AC021201
:102C800026311481011226316681011226319D837D
:102C900001122631E98301122631AB84011226315B
:102CA0001A85011226314286011226317F880112CF
:102CB0002631168901122631B68F011226313C9039
:102CC00001122631B992011226319D93011226314B
:102CD0004994011226317A9701122631DA970112AE
:102CE0002631909801122631BB980112263148995D
:102CF00001122631359A01122631099B0112263123
:102D0000989B01122631C59B01122631E79B0112C7
:102D10002631E09D01122631BB9E01122631089F0B
:102D200001122631699F011226312BA00112263192
:102D300060A001122631AEA001122631DEA00112E0
:102D400026311CA10112263174A10112263179A16C
:102D500001122631D4A101122631FCA10112263123
:102D60001BA30112263187A301122631F1A3011200
:102D700026317AA40112263199A60112263177A7AD
:102D800001122631E6A80112263178AA0112263155
:102D900008AB011226310FAC0112263198AC01129A
:102DA0002631DFAC0112263156AE011226316AAE51
:102DB0000112263184AE011226319FAE0112263156
:102DC000ABAE01122631C9AE01122631D3B00112C9
:102DD0002631C6B1011226310AB2011226318DB256
:102DE0000112263191B3011226314DB40112263160
:102DF000C8B501122631A2B60112263139B7011227
:102E00002631CBB701122631E2B70112263106B8BE
:102E1000011226314AB8011226319BB8011226311F
:102E2000CFB8011226313BB9011226319DB90112EA
:102E3000263116BA0112263126BB01122631D2BB29
:102E400001122631BFBC0112263123BD01122631E9
:102E5000BABD011226318ABE01122631B9BE011255
:102E6000263118BF01122631C6BF01122631ECBF30
:102E70000112263164C00112263189C001122631A7
:102E8000ACC001122631E7C001122631C5C20112C1
:102E90002631B2C3011226316AC40112263101C69D
:102EA0000112263155C60112263174C6011226318F
:102EB000E3C60112263157C701122631B0C70112ED
:102EC0002631D6C70112263111C8011226313DC85C
:102ED0000112263188C801122631E1C801122631BB
:102EE000D0C901122631F9C9011226315FCA011277
:102EF0002631B9CA01122631DECA0112263124CB8D
:102F00000112263141CB01122631EBCB01122631C1
:102F1000A33F00122631D73F00122631AD400012E8
:102F20002631814100122631AC4200122631304454
:102F300000122631AE4400122631754500122631AA
:102F40009646001226310847001226316A470012C1
:102F50002631B84700122631C247001226310048F8
:102F60000012263169480012263108490012263124
:102F70008649001226313B4A00122631AD4A001222
:102F80002631D34A00122631034B00122631304B32
:102F900000122631D64B00122631E64B00122631A4
:102FA000394C00122631454C00122631514C00128A
:102FB0002631B24C00122631124D00122631634DDB
:102FC000001226317E4D00122631AE4D0012263100
:102FD000CF4D00122631094E00122631274E001225
:102FE0002631904E00122631A34E00122631BA4EE1
:102FF000001226314D4F001226314C50001226315E
:10300000485100122631CA5100122631D451001203
:1030100026313752001226314852001226318B5287
:1030200000122631D25200122631085300122631E6
:103030003E53001226315C53001226318053001299
:103040002631C15300122631B45400122631FA54ED
:1030500000122631355500122631945500122631C2
:10306000BC5500122631F5550012263103560012C8
:103070002631645600122631A15600122631E3563D
:1030800000122631145700122631485700122631FB
:103090005357001226317157001226313958001249
:1030A0002631435800122631885800122631F25832
:1030B00000122631065900122631FE59001226311F
:1030C000175A001226312C5A00122631CC5A0012FF
:1030D0002631305B00122631025C001226311E5C64
:1030E00000122631765C00122631AD5C00122631CA
:1030F000C75C001226313B5D00122631CC5D001208
:103100002631145E001226312F600012263199609C
:10311000001226310461001226315D63001226314F
:103120006D63001226317063001226317C63001239
:103130002631906300122631986300122631CD6348
:10314000001226317B6400122631EB640012263116
:103150004F6500122631E8650012263182660012A2
:103160002631B06600122631466700122631756797
:1031700000122631976700122631BE6700122631F1
:103180002468001226318E690012263191690012DE
:103190002631C06900122631D569001226314C6AE9
:1031A00000122631386B00122631106C00122631C5
:1031B0009A6C00122631CF6D00122631816E0012FA
:1031C0002631BA6E00122631EB6E00122631F46EF3
:1031D00000122631E06F001226315C700012263199
:1031E000EC7000122631B671001226313A720012CC
:1031F0002631707200122631B97200122631EF7238
:10320000001226319E7B00122631AC7B0012263143
:10321000117C00122631E37E001226310F7F00124E
:1032200026312F7F0012263180F901122631C8F98C
:103230000112263136FA0112263159FA01122631CD
:10324000F9FA0112263102FB011226314FFB01125D
:10325000263178FB01122631D8FB011226316EFC93
:1032600001122631BBFC0112263115FD0112263157
:1032700043FD01122631CBFD0112263110FE011251
:1032800026314FFE0112263184FE011226311889A3
:1032900002122631A8FE01122631C4FE0112263187
:1032A0007BFF01122631BBFF01122631BB950312B1
:1032B0002631838803122631E788031226310B89D1
:1032C00003122631048A031226315CC00212263111
:1032D0003BC10212263177C10212263114C30212F9
:1032E000263156C3021226310AC5021226314EC5B6
:1032F00002122631EB8D02122631BCC60212263193
:1033000047C7021226319DC702122631DDC70212BD
:1033100026317FC90212263108CB021226311FCD79
:10332000021226312DCD0212263192CD0212263103
:103330006BD002122631EB98031226312BF70212C2
:1033400026313EF702122631DCF70212263117F839
:103350000212263132F80212263157F802122631B3
:103360009CF802122631CDF802122631FEF8021224
:10337000263175FA02122631B996031226312D979D
:10338000031226316F97031226317F9703122631DD
:10339000899703122631A197031226312DDD0212DF
:1033A000263145DD0212263181DD021226319FDDF4
:1033B0000212263102DE0212263181DF021226318C
:1033C000B6DF02122631E1DF02122631F1DF0212EE
:1033D0002631FDDF0212263149E002122631EEE0ED
:1033E0000212263113E1021226311DE102122631AA
:1033F00036E10212263158E10212263193E102121F
:103400002631ACD002122631FBD0021226319FD2D7
:103410000212263155D4021226319DD402122631D1
:10342000E3D5021226312ED70212263150D70212CE
:1034300026319AD7021226311CD8021226314E911B
:10344000031226317C9103122631D49103122631C6
:1034500053F0021226313EF102122631F4F102122B
:10346000263123F302122631EC7F00122631728AB4
:1034700003122631C18A031226317A8B03122631B8
:10348000E08B031226318FFD02122631E5FD021278
:103490002631B9FF021226312D8E031226313B8EC2
:1034A00003122631E4FF011226315199031226310D
:1034B0006399031226319D9303122631C49303129C
:1034C0002631499403122631A29403122631DD9E3F
:1034D00003122631F17F001226316C990312263136
:1034E0006F990312263172990312263175990312CE
:1034F000263178990312263177E50212263185E5C7
:1035000002122631FFE502122631CBE602122631E5
:1035100077E802122631DCE80212263137E902127E
:103520002631F87F001226310080031226312B81CC
:1035300003122631C08103122631DB8F031226319C
:103540001490031226313190031226318F9003120A
:103550002631F490031226313E8203122631DC829A
:10356000031226315C830312263174830312263141
:10357000ED83031226314C8403122631608403123A
:10358000263150D802122631A3D802122631ABDAE6
:1035900002122631DDDA02122631FFDA021226315A
:1035A00018DB0212263131DB0212263133DC021223
:1035B0002631C1DC02122631518C03122631838C54
:1035C000031226318F8C03122631C28C031226314E
:1035D000F38C03122631218D031226312E8D031216
:1035E0002631A38D03122631D28D031226318CFA97
:1035F00002122631B2FA02122631EFFA02122631F5
:1036000001FB021226311DFB021226318BFB021236
:10361000263194FB02122631F3FB0212263117FCED
:1036200002122631D6FC02122631E3FC02122631A8
:10363000F4FC02122631837F00122631CD7F001266
:103640002631E8E1021226312AE30212263137E35D
:10365000021226314AE30212263169E302122631B0
:103660007FE30212263193E3021226310DE40212A7
:1036700026318BE40212263104E5021226314CE594
:103680000212263162E502122631529803122631C7
:103690007698031226319E9803122631C69803129B
:1036A00026316A84031226318384031226318F84E3
:1036B00003122631A38403122631C184031226315A
:1036C000CB8403122631D58403122631E8840312F9
:1036D000263110850312263149850312263177855C
:1036E00003122631C58503122631128603122631B4
:1036F0002D8603122631378603122631488603129F
:1037000026318E860312263164FF02122631ACFF69
:103710000212263125CC011226315ECC011226314F
:1037200008CE011226318DCE011226317BCF011237
:103730002631FDCF011226314ED001122631BFD1E4
:1037400001122631EFD1011226313DD3011226316B
:1037500054D30112263174D3011226317BD40112C5
:10376000263127D501122631C2D5011226316DD658
:10377000011226319FD601122631DCD601122631E4
:1037800090D7011226315AD8011226316CD9011274
:10379000263156DF0112263194E20112263197E3D9
:1037A00001122631C6E301122631D9E30112263176
:1037B0000EE401122631C1E401122631D0E40112D7
:1037C00026311AE50112263144E501122631C8E5F9
:1037D0000112263116E601122631BAE6011226310F
:1037E000CFEA01122631ABEB0112263129EC01128E
:1037F000263165EC01122631E4EC01122631FAEC97
:10380000011226313FEE0112263150EE011226310F
:1038100098F101122631E8F20112263126F3011245
:103820002631B9F30112263130F40112263184F425
:1038300001122631D6F5011226318AF601122631FF
:1038400024F701122631A7F701122631F3F70112EE
:1038500026310FF8011226314AF80112263167F994
:103860000112263173F901122631647300122631D8
:10387000907300122631AC7300122631BF73001210
:103880002631D5730012263141740012263174742A
:1038900000122631D17700122631FC780012263131
:1038A0002F79001226319479001226317C7A001289
:1038B0002631A47A00122631B97A00122631C97A4B
:1038C000001226310D7B00122631627B0012263158
:1038D000727B001226316A920312263185920312FE
:1038E0002631AE9203122631C89203122631ED9290
:1038F000031226310C93031226312493031226312E
:103900005293031226316C9303122631A4970312AB
:103910002631DD9703122631D3EC02122631DAEC80
:1039200002122631E6ED0212263116EE021226317F
:103930003CEE021226316FEE0212263181EE0212A7
:103940002631BBEE0212263121EF021226315AEF48
:1039500002122631A6EF02122631D3EF02122631CF
:10396000F3EF02122631918603122631A986031243
:1039700026319B8703122631BB94031226311A95F8
:1039800003122631589503122631999503122631D8
:10399000C2F302122631E1F3021226312CF4021294
:1039A000263148F40212263180F4021226318DF4B9
:1039B00002122631AAF4021226318DF502122631A6
:1039C00094F6021226319FF602122631B1F6021247
:1039D0002631BAF602122631C4F6021226314BE91C
:1039E00002122631C5EC021226311D99031226312E
:1039F000068902122631DE8802122631BB880212A5
:103A000026318D87021226316887021226311687E9
:103A100002122631F18602122631AE8602122631BA
:103A2000BE85021226312E85021226317D840212B5
:103A30002631A383021226315783021226313683A0
:103A400002122631F98202122631BE82021226317A
:103A50009A82021226317F82021226310F820212CE
:103A600026313D8102122631A28002122631318098
:103A700002122631128002122631658D0212263181
:103A8000C18C021226314B8C02122631C58A0212D9
:103A90002631628A0212263100800212263131C09C
:103AA0000212263113C0021226314ABF02122631F9
:103AB000A68902122631AEBE021226313ABD02128A
:103AC0002631E6BA021226311AB8021226312FC662
:103AD00002122631BFB70212263141B70212263137
:103AE000E9B60212263146B5021226316CB4021232
:103AF00026314CB4021226319FB30212263121B274
:103B000002122631E8B1021226311DB1021226310D
:103B1000A9B00212263178B002122631AAAD0212E3
:103B2000263168AD0212263170AC0212263122898C
:103B30000212263196FE01758900C2C532000000CE
:103B400080FBC2C732E47300013636010100010276
:103B5000010001030100010401060605020000073F
:103B60000100340801000F090401010D0100FF0EDE
:103B700008000017020000190100FF1A0100011BD4
:103B80000100FE1C0100081D0200001F01000120B1
:103B9000010001210200002301000F240200002681
:103BA00001000127010008280200FF2A0100072B5D
:103BB0000102402C0100002D0100012E0100012F07
:103BC0000100FF30010B1C310800003A0100083BE6
:103BD00001000F2F01000003027102300160021189
:103BE0000270020102020202028002100261023A25
:103BF0000041006302730272026202430200021378
:103C00000238000002000204021202000200020058
:103C100002000204020402370037003C02440200A2
:103C20000239000002000265020002350281020032
:103C300002050282028302000201037103010301F3
:103C40000301030103010322030203010310030024
:103C5000030003000300030003000300034203000A
:103C600003240306030003000304031203250323B4
:103C70000325032303040304030003000300034498
:103C800003000300032303000365032100350381C0
:103C90000300030503000300030003030071003069
:103CA00001600011007000310220035004800010F8
:103CB00000610000001400630073007200620043A2
:103CC00000000013000600000000000400120000C5
:103CD0000000000000000004000400370037003C32
:103CE00002440000000000000000006500000035F4
:103CF0000081000000050000008300000003047143
:103D000004020460041104700402040204010402A9
:103D10000410046104000414046304730472046254
:103D20000443040004130406040004000404041201
:103D300004000400040004000451046400000400B2
:103D400004000444040004000400040004650400AA
:103D500004350481046400050400048304000401A4
:103D60000171010101010111010101310101010193
:103D7000018001100161013B0014006301730172B5
:103D800001620143010001130106013D01350004F8
:103D900001120100010001000100010401040133CE
:103DA0000133013C0144013201360000010001658C
:103DB000010001350081010001050182018301003C
:103DC0000136000100060000000F000000000000A6
:103DD0000000000000000003FFFF00000403FFFFDD
:103DE0000000FFFF0FF4010005C4040320000100E0
:103DF000000B000000000000000003010F01BB2CBD
:103E000006D92C08D32C0BE52C10432C02C12C0511
:103E1000CD2C07C72C0CA32C0DAF2CFF00000300EA
:103E200003000400080010001F003E007B00F600A5
:103E3000EC01D703AF075D0FB91E713D00003F30A5
:103E40006F3045304B3069305D30573075307B30E6
:103E500081308D305130393033309C36063A703DE8
:103E6000D9404344AD47174B814EEA5100160F002D
:103E7000000B150B020002220F32000006000102A7
:103E8000030405060708090A0B0C0D0E0F1D312F40
:103E900031353109303B3103300F309B31B931BFFF
:103EA00031A131AD31A7314F2F492F852F8B2F7F76
:103EB0002F372F00011916181616152303000C0EA4
:103EC000020B040B0A0708000F30301618192023C4
:103ED0001A1C1E3000034948424D181725050200E0
:103EE000383C3E363B3B352B432C303017181921DC
:103EF000301B1D1F3083314131473153314D316308
:103F0000308730B331933099305B2F612F552F912B
:103F10002F0005150D091008040000000000000026
:103F2000BE040A672F792F15000C0105080928081F
:103F3000100A090000030FF582EB126349A2E22286
:103F400074091228F67F04022658E0F50875090066
:103F5000750A00750B002234FFF58322126475E8A0
:103F600022900451E0FA900436E022EE2412FAEF97
:103F70003400FB1230F9E922F0023F667905123174
:103F80000574022212537A1228F67F08022658F08E
:103F90009003ECE0221231F59004561264757A1405
:103FA0007B0022C082C083123FCF7001EB600312FE
:103FB00032C19003DD12530074089003DFF09003C8
:103FC000E0E4F0A3F090042CF09003E2024EB690EF
:103FD00003E0126302EA2274F512244774F71229EF
:103FE00057EAFEEBFF12484B74051254AA7403F013
:103FF000EE2402EF34000A0AFB8A828B83E012402F
:10400000A01258EEEE2421FCEF3400FD8C828D834B
:1040100012408DEE241FF508EF126DB38C828D8354
:10402000E0600B85088285098374FFF0A3F08508A2
:1040300082850983A312408D8508828509831241F8
:1040400067F074038E828F83A3A3A3A3F012485654
:10405000122B3D7403F090044B12275D7402122B57
:104060003DAC82AD837903EEFA1240851228F6E961
:104070007007EEFAEFFB122FFD74091228F60252B8
:10408000CD79031A1AEFFB1230FF74022212416736
:10409000124676124097221240A0E8F0A3E9F022DF
:1040A00024FFF8A3E034FFF98A828B832274F11293
:1040B0002447EAFEEBFF890E740F122B3D12415884
:1040C0007411122B3D12427824020A0A12468FF80C
:1040D000A3E034FFF9850D0B124175E50C12417B0D
:1040E000E50E12416390045012416090044F12415A
:1040F0006085090B124175E508F088088A828B8378
:10410000E0C395088E828F83A3A3A3A31263331207
:1041100058EEEE240EF8EF3400F98C828D83A3A3C1
:10412000A3A3A3A3A3A3E06403700474018001E428
:10413000888289831254AA7409F07508FF7509FFF3
:1041400078081228AE1240811228F6E97007EEFABC
:10415000EFFB122FFD024A36E0F50CA3E0F50D222D
:1041600012416712416B22E00262ECF0E824FF1872
:10417000E934FFF922E50B8882898312416B0262E0
:10418000EC74F0122447EAFEEBFF890B8C0E8D0FC6
:10419000750A00A2AFE492E0F50CC2AF9003E38091
:1041A0003E1242A15036E5082402F8E509126B2EB2
:1041B0001251BF125D2E64037022125FF48A828B4B
:1041C00083E02405FCA3E03400FDEEFAEFFB123996
:1041D000871244277410250AF50A150B12454B1255
:1041E0006E42E50B6008E5087002E50970B3E50C66
:1041F000A2E092AFA2AFE492E0F50CC2AF9003E36D
:1042000080208C828D8312427DA3A31260071EEB57
:10421000FF8C828D8312513412441C050A150B1237
:10422000454B12427824FFFAEF34FFFBE508700299
:10423000E5096034E5082402F8E509124291F583A6
:10424000888212428B70D81242A140B6E508240F32
:10425000F582E509124564A2E550C47401850E8219
:10426000850F83F0E50B70B7E50CA2E092AF8E826C
:104270008F83E50AF0023F8A126E46EE22124DFB52
:1042800080048E828F83A3A3A3A322125D326402D3
:10429000223400F9E8FCE9FD8C828D83E0F8A3E08C
:1042A000221262E2E509126349A2E62274EC1224AA
:1042B0004774F6122957890F8A0B8B0AE4851882F6
:1042C000851983F09003E9E0FAC39408400575105E
:1042D0000780028A10E51033333354F8900435FA1E
:1042E000E02A2433F50C125B247001EB70030244C6
:1042F00008EA250CF8EB3400F9EA2402F512EB3455
:1043000000F513851282F5831258EE900435E0FC17
:10431000FAC3E49AFAE49400FBE82AFEE93BFF9032
:104320000433124411780C1228AA126DAA1228F62E
:10433000851882851983AC82AD83A910EE24FFFA1B
:10434000EF34FFFB122F1F8A0C8B0DAE0CAF0DE468
:1043500012441EE50AC454F0C0E090042DE0C433BA
:104360003354C0C0E090042FE0A2E0E492E01313C5
:104370005480FAD0E04AFAD0E04A440F12441EE5D5
:104380000BC454F0450F8E828F83F0EEFA851282B3
:10439000851383E0C39A850882850983A3A3A3A319
:1043A000F0851282851383EEF0A3EFF0E508240E6A
:1043B000F582E509124851E4F0E508240DF582E59F
:1043C00009124851E4F07409122B3DE4F0F50AF5A6
:1043D0000B780A1228AE7403122B3DAE82AF831203
:1043E00030E7EEFCEFFDAA08AB091240871228F671
:1043F000851882851983E0600985128285138312EE
:104400004556AA08AB0980047A007B00740A027042
:10441000D5E0F50CA3E0F50D750E0022A3E08E8229
:104420008F8312442622F0EE24FF1EEF34FFFF227A
:1044300074F11224478A0C8B0DA2AFE492E0F50EC2
:10444000C2AF7508007509009003E38034EE2410B4
:10445000F50AEF1245685026850C82850D8312728D
:10446000B18E828F83A3A31262FE1230EDE9600E3B
:10447000850A82850B83E0C2E6F08E088F0912441C
:10448000A51248F27001EF70C4E5087002E50960FA
:104490000B1262E2E509124564D2E6F0E50EA2E0F5
:1044A00092AF024A36EE24FBF582EF023F5774EEDC
:1044B0001224478A0E8B0F8C0C8D0D751000A2AF45
:1044C000E492E0F511C2AF7E007F009003E3801A12
:1044D000AE08AF09850A82850B83E0D2E4F0EE24B2
:1044E0000F124561D2E7F012454B12512E7002E5D2
:1044F00009603FE5082410F50AE50912456850E710
:10450000850882850983A3A312275DAC0CAD0DAA93
:104510000EAB0F1230F374021228F6E960C9EE7088
:1045200001EF60AC1248F970098E828F83A3A31249
:104530004556E511A2E092AFEE7001EF6006122F32
:10454000F7751001A9107F0A022658E50824FBF52B
:1045500082E509023F571251BEE0D2E4F022EE2478
:104560000BF582EF126349223400F50B850A82F5C0
:1045700083E0A2E72274F212244774FE12295775D1
:104580000C00750D00851882851983E4F0A3F0A254
:10459000AF92E0F50AC2AF9003E3124689802D88FE
:1045A000828983126E42780C1228AE12467B122842
:1045B000F6EEFCEFFD851882851983AA82AB831283
:1045C000325BAE08AF099003E9E014F0EE7001EF42
:1045D000602CEE24FBF8EF34FFF91249025015EE7F
:1045E000240BFA12468FF0A3E034FF1246767002D5
:1045F000A3E060AB8E0C8F0D88828983809CE50AD6
:10460000A2E092AF9003E9E06030900436E0640FDE
:10461000600690042CE070227AD77B031231F5906B
:1046200080F41227597AD77B0312537A1228F68026
:104630000974F0888289831251C385188285198391
:10464000AA82AB831232618A088B09AE08AF09EEE9
:104650007001EF6017122F2B8E828F83A3A882A97F
:1046600083124743A2E250C974E980C7740212283A
:10467000F67F06022658126333E022EEFCEFFD7A45
:10468000E37B0312326D740222E0FEA3E0FF22EF0F
:104690001254A124FF2274F7122447EAFEEBFF1202
:1046A0002F2BEE240BF8EF3400F9E8FEE9FF12514E
:1046B000B7123B45E96401900452700AE02401F806
:1046C000A3E034008004E0F8A3E0F98E828F831227
:1046D00058EE9003E9E0701F900436E0640F701705
:1046E0007AD77B031231F59080F41227597AD77B61
:1046F0000312537A1228F6A2AFE492E0FAC2AF9006
:1047000003E912476102564D74F7122447EAFEEBA3
:10471000FF124743C2E4F0122F2BEEFCEFFD7AE3C9
:104720007B03123267A2AFE492E0FAC2AF9003E9D2
:10473000124761900436E0640F700579081230ABBF
:1047400002564D12474722EE1262E4EF1247502202
:104750003400F583E022A2AFE492E0FAC2AF900306
:10476000EAE004F0EAA2E092AF2274F71224477460
:10477000EA122957EAFEEBFF90042FE0603574013E
:10478000851882851983F0122B3DE41247FA122B0B
:104790003DAA82AB831239878E828F83124DDBC094
:1047A000E0740A122B3DD0E0126356740B122B3DBD
:1047B0001257EC741602558EC082C083122F13025A
:1047C00052F974F712244774EB122957EAFEEBFFF3
:1047D00074068518828519831247FA122B3DAA8226
:1047E000AB83123987EE2407FCEF3400FD740A1204
:1047F0002B3D1257EC741502558E1262F174022291
:1048000074F712244774F7122957EAFEEBFFEE24DF
:10481000211245616032124856122B3D7403F0900C
:10482000044B12275DEE241F12484E12275D9004A0
:104830005EE0F97404122B3DAC82AD83EEFAEFFB1F
:10484000122F1974041228F602558CEE240EF582EC
:10485000EF3400F583221260DE851882851983AA61
:1048600082AB8312398774082274F21224478A08B3
:104870008B09750A00750B00750CE7A2AFE492E096
:10488000F50DC2AF9003E380078E0A8F0B1244A58B
:104890001248F27001EF602F12490250EC1248F9F1
:1048A00070E7EE242EF582EF1266AB8508828B83CB
:1048B000A3A3E06A70D3780A1228AE12467B1228AE
:1048C000F69003E9E014F0E50DA2E092AFEE70017E
:1048D000EF6013EEFAEFFB122F2B79F0EEFAEFFBFD
:1048E0001230B1750C00A90CAA08AB091230B10244
:1048F0004671E0FEA3E0FFEE22EE240D1263466453
:104900000122124747A2E72274F412244774F712D7
:104910002957EAFEEBFF122F6DE9F508704CEE24E3
:104920000E12456160447A007909122FAFEA7001D6
:10493000EB60377408122B3D12497A12275D750817
:10494000FF7509FF78081228AE8E828F83A3A3A378
:10495000A3A3A3A3A3E0F97404122B3DAC82AD83FF
:10496000122F1974041228F6800D8E828F83A3E50E
:1049700008124AFD122F79023F40126C088E828F76
:1049800083A3A302428674F1122447EAFEEBFF756B
:1049900008008E828F83A3A3A3A3A3A3A3A3E0FAFB
:1049A000C3940B4006EAC3941D40037508E88E8249
:1049B0008F83A3A3A3A3A3A3A3A3A3A3E0FAC39456
:1049C0001040057508E88005740F6A600B900409B3
:1049D000E0540870037508E812455EFBEAC39B507B
:1049E00008740F6B60037508E890044FE064FF7073
:1049F00004A3E064FF70037508EC7A237B00123295
:104A0000BB9003E0EAF0A3EBF0EA7001EB60228ECA
:104A1000828F83A3A3AC82AD838C0C8D0D750E00A9
:104A2000780C1228AA7C237D00125BE21228F68003
:104A30000375081AA9087F0702265874F71224473D
:104A4000EAFEEBFF8E828F83A3A3A3A3A3A3A3A35A
:104A5000E0900436126B32900451F012455E9004DF
:104A600031125825A3A3A3A3A3A3E090042DF0F92A
:104A70001236B190042DE0601AEE2404FAEF3400EF
:104A8000FB795012317DEE2406FAEF3400FB79E118
:104A900012317D740190042C123F78640F60047A07
:104AA0000180027A00EA9003E2F002564D74F71298
:104AB0002447EAFEEBFF8E828F83A3E07003124A45
:104AC000C9742C12552A02564D9003E0126302124B
:104AD0002F732274F7122447EAFEEBFF123FCF70C8
:104AE00001EB600A9003E0E4F0A3F01232C1740815
:104AF0008E828F83124AFD1239DB02564DF0EEFA98
:104B0000EFFB2274F612244790042CE0601290030D
:104B1000E2E0700C124B23EA7001EB6003122FFDF0
:104B20000265C8900431E0FB123F61F9122F252283
:104B300074F412244774FA1229578A088B098A825E
:104B40008B83A3A3A3A3A3A3E0A2E25075EA24123C
:104B5000FEEB3400FFEA242A124BC7FCA3E0FDEE73
:104B6000FAEFFB122F31E970599080C2E0640170B6
:104B700035E508241AF582E50912456464027026B9
:104B800074101272301264697402122B3D1258EEC6
:104B9000850A82850B831264697404122B3DE8F048
:104BA000A3126EE3801C1230E7E9FA850A82850BB6
:104BB0008312275D7B30EEFCEFFD7901123F7E1200
:104BC00028F67406023F42F8EB3400F9880A890B94
:104BD0008882F583E022C082C08390042DE06003C8
:104BE0001231590252F9C082C0839004247423F018
:104BF000A3743FF090042674A7F0A3743EF09004D1
:104C0000287409F0A3743FF0901A1F74FDF0A37488
:104C10003CF090040E740DF0A3742FF0901A0B74F6
:104C20003DF0A3742FF0901A0D7443F0A3742FF08D
:104C3000900409E04402024EB3C082C0831266A110
:104C40007903025882C082C0831266A17905025896
:104C500082C082C08374FE12295780077AE37B03E7
:104C6000124C969003E3E07002A3E070EF9003E52E
:104C7000E07002A3E060097AE57B03124C9680EDB8
:104C80009003E3E4F0A3F09003E9F09003EAF090DE
:104C900003EBF0025358123261851882851983EABA
:104CA000F0A3EB124CAA1230DB22124DF3AA82AB16
:104CB000832274F41224478982AE82EE24DFF582C7
:104CC000E4343EF583E493F508FA7B00123243EABC
:104CD0007001EB6012EA25081258E3E48A828B83A4
:104CE000A3A3A3A3F080287A027B00123243EA70C8
:104CF00001EB6017EE24EAF582E4343EF583E49399
:104D00008A828B83F0741AA3124F437A007B0002CD
:104D10003F45C008740629FBEAA2E0501EEB75F07F
:104D20000A84AAF0EA6014740A2BC39AFBEAC394BB
:104D3000054004740A2BFB740B2BFBE9C39413404E
:104D400004781480027806E82BFB8B087409250888
:104D5000F8E43400F97A0A7B001222F6E8F9D00868
:104D6000022624C082C083900409E05402600A1223
:104D700039E1E960047901800279000252F9C082C8
:104D8000C083900409E05402601F9003E9E07015AD
:104D90009003ECE07002A3E0600F9003ECE02410BD
:104DA00012503E50047901800279000252F9C0820B
:104DB000C0839003EBE0C0E09080C0E0FCD0E0C393
:104DC0009C500512324380047A007B000252F9C0E5
:104DD00082C0831230DB79000252F9A3A31251BEC4
:104DE000E022126FD5A3A3A322E0240FF8A3E012C0
:104DF000504722F085188285198322A3E0F5838825
:104E00008222A3A3A3A3A3E022C082C0839003EEC7
:104E1000E07002A3E0600B9003EE1251BA123B4522
:104E2000800279000252F974F7122447EAFEEBFF80
:104E3000EE240D12484E7401F0EE242F124561C08D
:104E4000E012484BD0E0F0EE2430124561C0E0EEB5
:104E5000241212484ED0E012633EC0E0EE2413123A
:104E6000484ED0E0F0EE242B12484E12275DEE247F
:104E700022FCEF3400FDEE242D124561F91240872B
:104E80001228F6E97007EEFAEFFB122FFD02564DDD
:104E9000C082C0831230BDE96004792080027901AC
:104EA0000252F9C082C083EA1262E4EB124564D276
:104EB000E08003F0A3E0F00252F9C082C083EA244C
:104EC0000DF582EB124564FCEA240FF582EB1248E3
:104ED0005174016C7011E0A2E3400C8A828B83A3B1
:104EE000E0F91230B18059E0A2E650128A828B8339
:104EF000A3E0F9901A0F1251BA123B458042740197
:104F00006C7009E0A2E350047430802D8A828B8398
:104F1000A3E0FD741B6D70047422801D8C82A88236
:104F2000ED700AE824C9F582E4343E8008E824EAFA
:104F3000F582E4343EF583E4938A828B83124F43F7
:104F40000252F9F0900404E0F912324F22C082C0FC
:104F5000839003ECE07002A3E0604B9003ECE0125E
:104F60005028E97003E48016741B69703C9003ECD0
:104F7000E0240DFCA3E0126022640570E8E98A8257
:104F80008B83123F8FFAA3E0FB122FEB9003ECE030
:104F9000240E12503E500312672F9003ECE4F0A34E
:104FA000F079101230AB0252F974E969705C900329
:104FB000ECE02411124DEC604C9003ECE0240EFA6E
:104FC000A3E012549DA2E2400C88828983E014F091
:104FD00012393380D19003ECE0240F1818124DEDF4
:104FE000C2E7123F8F240D124DEC6403700F900343
:104FF000ECE02410080808124DEDD2E2F012503116
:10500000123B45808774E9024F7E741C696003027D
:105010004F7D1AE0FB901A151251BA123B459003CE
:10502000ECE4F0A3F0024FA62401FAA3E03400FB65
:10503000229003EC126302901A0D1251BE221250FC
:1050400044A2E722F8A3E01262E9E02274F21224FB
:1050500047750C00750D00A2AFE492E0F50AC2AFEF
:105060009003ECE07002A3E06009E50AA2E092AFD1
:105070000251261251B7123B45E94410FA9003E35E
:10508000800985080C85090D12454B12512E7002BE
:10509000E50960D6E5082410F8E5093400F9E8FED2
:1050A000E9FF8E828F83E05A6A70D7780C1228AE9F
:1050B000AC08AD0912467F1228F69003ECE508F023
:1050C000A3E50912513F40619003EAE014F0E50ABC
:1050D000A2E092AF9003ECE0240EA3E034001E1E89
:1050E000FF8E828F83E0FA9003EC125134E0F912C4
:1050F0002FB5E99003E7F0A3E412513F5018900355
:10510000ECE0241212513A1236D59003ECE024134D
:1051100012513A1236C99003EC124DE9A2E1B3E400
:1051200092E0F912391B0246719003E9809D126EDC
:1051300046E50822126FD1A3A322125044F922F0AF
:105140008E828F83E0A2E72274F7122447EAFEEBF7
:10515000FF1230D5EE240F124561A2E3400A124837
:10516000F970059080BE80039080BFE0F9EEFCEFFF
:10517000FD7AE37B03123273E9602FEEFAEFFB90C6
:105180001A111251BA123B45EE240EF582EF123F6E
:105190003A4008124756122FF78019EEFAEFFB90AB
:1051A0001A0B1251BA123B45800A74F18E828F831A
:1051B000A31251C302564D901A131251BE22E0F8A9
:1051C000024DFB124AFD122FEB22C082C083122F28
:1051D000F70252F974F71224477900900409E0FCB1
:1051E000EA242FF582EB124851EC54027007E0A23A
:1051F000E2500279E8EC54607007E0A2E1500279D5
:10520000E88A828B83A3A3A3A3E0C39475400279A9
:10521000E8EA242DF582EB1245647013EA242AF59E
:1052200082EB124564700879F51230B102564DE9EF
:1052300070F7122FD980F5C082C083740D8A828BDB
:1052400083F01239DB0252F9C082C083E48A828B78
:1052500083F0A3F0EA242F123F3740199003EAE0CD
:10526000C0E09080BEE0FCD0E0C39C401979F11210
:1052700030B10252F99003E9E0C0E09080BEE0FC5A
:10528000D0E0C39C50E7124F4480E774F5122447E6
:10529000890AEA2411F582E4343FF583E493244A31
:1052A000FA8A82AE8289082508FAE43400FB1232B9
:1052B00043EA7001EB60128A828B83A3A3A3A3E568
:1052C0000AF0EA2E1258E380047A007B007F030282
:1052D0002658C082C083E4900402F0900403F0904A
:1052E00003F612530074029003F8F09003FF125378
:1052F000007401900401024EB6D083D082022624AD
:1053000074ABF0A37430F022C082C08374F1122910
:10531000577402851882851983F07401122B3DE9B8
:10532000F060047AFF7BFF7402122B3DEAF0A3EBDE
:10533000126EE4740F800274111228F680BBC082D2
:10534000C08374FE122957740A851882851983F068
:105350007401122B3D126EE3740280DD74F012248E
:1053600047126C8E122AFE7808790C12235778089F
:105370001228A67AF97B03023F841231E9740422D1
:1053800074F412244774CE122957900436E0640F47
:105390006007742E125BF380237AF07B03123F9533
:1053A0001222FE88088909750A00750B0078081218
:1053B00028A67AF07B0312537A1228F67432023F41
:1053C0004274F2122447EAFEEBFF7C00EE2421F542
:1053D0000CEF3400F50D850C82F583E0FA74026A57
:1053E000600774036A60027CE8EE2417FAEF125437
:1053F0009DFDC3940B4045EDC3941D503FEC703EA2
:1054000079E112317DEE2422F50AEF3400F50BAA82
:105410000AFB795012317DEE2419F508EF126DB3B5
:10542000850C82850D83E0640270228508828509DF
:10543000831264699004451258EE80267CE8EC8E55
:10544000828F83A3F0741712552A02467190044587
:1054500074FEF0A374FFF0AC08AD097A3C7B041233
:105460003987900402E04401C0E012484BD0E012BA
:1054700054AA74021260FB24241260E7850A828514
:105480000B8312275DAC08AD097983124083122883
:10549000F6E970B6EEFAEFFB122FFD80AD1254A1C3
:1054A000223400FB8A828B83E022F0EE240DF58209
:1054B000EF024851C082C08374F712295790040349
:1054C000E070327401F0F91238DF85188285198393
:1054D000AA82AB831230E190044B12275D90040244
:1054E000E04401FB7402122B3DAC82AD837A0312BF
:1054F0003F7C1228F6740902533974F712244712BC
:1055000056C7700774EB88828983F0900403E0A289
:10551000E25003C2E2F0E0A2E150051256D6800547
:10552000742A12552A02564D74298E828F83124A8C
:10553000FD1230C32274F712244774FE1229571249
:1055400055DD12580785188285198312582DE0F50C
:10555000087012851882851983AA82AB8379531249
:10556000317D126E4E1262F8A908123027900403A2
:10557000E0A2E1500A8E828F83A3E0F912302DE47D
:10558000900402F0900403F074028002740912285F
:10559000F602564D74F7122447EAFEEBFF74EB8EC9
:1055A000828F83A3F0900403E0A2E1500579EB120F
:1055B000302DEEFAEFFB12305D02564D74F71224D7
:1055C000471255DDE4900402F0900403F07AFF7B6B
:1055D000FF8E828F83A3E0F91230278070EAFEEB02
:1055E000FF79011238E57AF07B031231F57AF97B05
:1055F000031231F52274F7122447EAFEEBFF123052
:1056000057804374F7122447125735A3A3A3E060D1
:10561000047A0080027AEB1256525003C2E2F0E0A4
:10562000A2E150051256D68014A2E05010742A8EC2
:10563000828F83F074EB8882898312552EEEFAEF05
:10564000FB12300F8007EEFAEFFB12314D7F0102A3
:1056500026588E828F83A3A882A983EAF090040340
:10566000E0A2E22274F7122447EAFEEBFF90040363
:10567000E0D2E1F079011238DFEE240B12484E122D
:10568000275DEE2402EF3400FF0E0E7401C0E0121D
:1056900030E7E9FAD0E0FBEEFCEFFD123F7C02556B
:1056A0008E74F71224471256C7700774EB888289EC
:1056B00083F0900403E0A2E25003C2E2F0E0A2E132
:1056C00050031256D68086125739A882A9838E823B
:1056D0008F83E0642022C2E1F088828983E0F9129E
:1056E000302D2274F7122447EAFEEBFF79011238BD
:1056F000E57AF07B0312704DE060047A0080027A54
:10570000EB1256525003C2E2F0E0A2E150031256EF
:10571000D602563D74F7122447125735A882A98342
:1057200074EB12565C5003C2E2F0E0A2E1500312A7
:1057300056D602564D12573922EAFEEBFF79011276
:1057400038E58E828F83A32274F712244712575EA6
:1057500002564674F712244712575E02564DEAFE6F
:10576000EBFF7AF07B031231F5EEFAEFFB1230819A
:105770002274F712244774EF122957EAFEEBFFEE6A
:105780002412FCEF3400FD7A3C7B04123975E96089
:10579000567409851882851983F07401122B3D74A3
:1057A000EFF0125807F87402122B3DE812582DA39F
:1057B000A3E0C0E07404122B3DD0E0125825E06451
:1057C0000870138A828B83125801E0C0E0740512BE
:1057D0002B3DD0E080067405122B3DE41263567415
:1057E00006122B3D1257EC741102558EAA82AB8320
:1057F000123117851882851983AA82AB831239DB8F
:1058000022124DE2A3A322125819F8A3E0F98882CC
:105810008983E0FCA3E0F9EC22EE2402F8EF127198
:10582000AC8B83E02212582922F0024282F0A3E9D5
:105830001246761251BFA3A322C082C083123159EF
:105840000252F9C082C083900420743EF0A3743EDB
:10585000F090042274FFF0A3743EF0901A19745F64
:10586000F0A3743DF0901A1B74D7F0A3743BF09032
:10587000040C7421F0A37430F0900409E044010298
:105880004EB31230CF0252F974F612244774FE124E
:105890002957900405E07002A3E060077A057B04B5
:1058A0001230DBE490040BF09010BAE07002A3E039
:1058B000602E800D851882851983AA82AB831230F1
:1058C000DB900404E0F91232558A088B09A808A974
:1058D000098518828519831258EEE87001E970D4A1
:1058E0000265C3F8EB3400F98A828B83A3A3E80234
:1058F000409B74F7122447E9FA7B00900404E0F916
:1059000012327902564D74F412244774F112295759
:105910008A828B83E024BEF582E4343EF583E493EF
:10592000851882851983F0640B700DE98A828B8358
:10593000A3F012313B0259F9E070030259F9640CEB
:1059400060030259F17403122B3DEAF0A3EBF0EA75
:10595000242EF582EB124564C0E07402122B3DD078
:10596000E012632EA3A3A3A37808122AFE740512E3
:105970002B3D7808122AEF8A828B83A3A3A3A3A3CB
:10598000A3A31272B17409122B3DECF0A3EDF0EA5F
:10599000240EF582EB124564A2E450047C008011D1
:1059A000EA2411F582EB124564FC900458E0C39C94
:1059B000FC740B122B3DECF0EA2414F582EB12453B
:1059C00064C0E0740C122B3DD0E0F0EA2415F5829F
:1059D000EB124564C0E0740D122B3DD0E0F0EA24D8
:1059E00016F582EB124564C0E0740E122B3DD0E038
:1059F000F07401122B3D126EE3740F023F42C0821D
:105A0000C08390040BE0FA600574026A70047901A7
:105A1000800279000252F9C082C08390040BE064D6
:105A20000370047901800279000252F974F612249D
:105A30004790040B125AC32417F582E9341AF583F0
:105A4000125E05C2E7F0C333FCE82CF582E9124888
:105A500051A3E493FEC333FCE433FDEC2417F58239
:105A6000ED341AF583E07002A3E06005EE90040BBC
:105A7000F08A828B83E0C333FCE433FDE82CF582AB
:105A8000E93DF583E493F508C4540FC333241AF5B4
:105A900082E43404F583123F5C7001E97005123131
:105AA00029801D740F5508C333FCE82CF582E912D8
:105AB0004851E493C0E0740193F583D082123B45D2
:105AC0000265C8E0C333F8E433F9E82274F0122425
:105AD0004774FE122957890CEAFEEBFF125BBC12D9
:105AE0005B247001EB602D8A828B83E50CF0E4A3CC
:105AF000F08E0C8F0DF50E780C1228AA125BCEEAF0
:105B000024020A0AEB125BDF1228F6AA08AB09127C
:105B10004F44800B851882851983E50C125BE8746D
:105B200002023F87FA7B001232438A088B09EA227D
:105B300074F012244774FE122957890D8C088D09C0
:105B4000125BBCF50CEA60067405250CF50CAA0C7A
:105B50007B001232438A0E8B0FAE0EAF0FEE700138
:105B6000EF60498E828F83E50DF0E4A3F0EE250C03
:105B7000F8EF3400F98E828F831258ECE48E828F16
:105B800083A3A3A3A3F085080C85090DF50E780C5B
:105B90001228AA125BCEEE2417FAEF125BDF12284E
:105BA000F6EEFAEFFB124F447900800D85188285DE
:105BB0001983E50D125BE8791A025B1F89828582E1
:105BC0000AE924D4F582E4343EF583E49322E50A1D
:105BD00024B3F582E4343EF583E493FC7D00223463
:105BE00000FB123225740322F0791AAA82AB8312C9
:105BF00030B122851882851983F0AA82AB831230D6
:105C0000C322C082C083900407126469EA687002EC
:105C1000EB697007900407E4F0A3F00252F974F7FF
:105C2000122447EAFEEBFFEE7001EF700312349589
:105C3000A2AFE492E0F508C2AF8E828F83123F5C80
:105C40007001E96028E824FBFAE934FFFB900407BF
:105C50001272B3E86C7002E96D7007900407E4F00B
:105C6000A3F08E828F83E4F0A3F01232C1E508A284
:105C7000E092AF02564DC082C083900445E064FEBE
:105C80007004A3E064FF70097C3C7D0412397B80C2
:105C90001974028A828B83A3A3A3A3A3A3A3A3F053
:105CA0001264668A828B831258EE0252F9C082C057
:105CB0008390044FC3E094FEA3E094FF4004790373
:105CC000800279020252F974F7122447125E0B8C9B
:105CD000828D83125D2E6E7050EA2405F582EB12E0
:105CE0004851EC2405F8ED3400F974026E7028E098
:105CF000FE88828983E06E70308A828B83A3A3A39F
:105D0000A3A3A3E0FA8C828D83A3A3A3A3A3A3E000
:105D10006A70167901801474036E700DE8FCE9FD59
:105D2000AA82AB831239818002790002564D125D3E
:105D30003222A3E01313543F54032274F612244773
:105D4000ECF8EDF9740A122B3D1272B3ECFEEDFF84
:105D50007508008E828F83125D2EF5098A828B83EF
:105D6000A3A3A3A3A3A3A3A3E065097055EE2405F1
:105D7000FCEF3400FD74026509703B8A828B83C09E
:105D800082C0838C828D83125DC7A3A3E0FBECFAF3
:105D9000D083D082E06A7003A3E06B70258E828F7F
:105DA00083A3A3A3125DC7E0FBEC687002EB6970EC
:105DB00011750801800C740365097006123981E9B8
:105DC000F508A9080265C8E0FC024282C082C083CF
:105DD0008A828B83A3A3A3A3A3A3A3A3E0640270DB
:105DE00016900445125E05687003A3E0697004799B
:105DF00001800F7900800BEAFCEBFD7A3C7B0412FA
:105E000039750252F91264750254A48A828B831286
:105E10005D32FE2274E81224478A0E8B0F8C128D9D
:105E2000137418122B3D1241587508008C828D8313
:105E3000A3A3A3A3A3A3A3A3E0F510E9A2E750089B
:105E4000750AFF750BFF800690044B12600EE9C2C5
:105E5000E7F9EA240FFAEB3400FBE50E240EFCE52B
:105E60000F126022A2E5500474088001E48A828B3C
:105E700083F0E50E2410126016A2E25004748080B4
:105E80000274108A828B83F0E50E2411126016A230
:105E9000E45003E48004900458E08A828B83126A01
:105EA00046E0A2E05003750820E50E2402F516E551
:105EB0000F3400F517851682F583E024FFFEA3E07A
:105EC000125FFB124564F514C39402400B74FF2566
:105ED0001412441E74038002E5144508F508891461
:105EE000751500740E7814122A46E515F50974022A
:105EF00069701190045012441D90044F12600712F3
:105F0000442780187403697010125FF47C5F7D046D
:105F1000EEFAEFFB12398780E6E96026E51060149F
:105F2000E50C650A7004E50D650B700874404508C2
:105F3000F508800E8E828F83E50B126027E50A122A
:105F4000442285100A750B00740A780A122A46E565
:105F50000B4509F5097402651070178512828513C7
:105F60008312441C85128285138312600712442712
:105F7000801A740365107010125FF4AC12AD13EE4A
:105F8000FAEFFB12398780E5E510600E8E828F8371
:105F9000E50D126027E50C124422EEF8EFF9E82433
:105FA000FF1EE9125FFB124564700590043B8003FD
:105FB000900447E0FA04F0EA88828983127236E599
:105FC00009126027E508F0E50E2404F8E50F340017
:105FD000F9EEFA851682851783124167FBE02BC321
:105FE0009AF0851682851783EEF0A3EFF079007F93
:105FF00010022658EE24F9FE02442B34FFFFE50E72
:10600000240DF582E50F22E08E828F83F022E0F5E9
:106010000AA3E0F50B220AE50F3400FB8C828D8386
:10602000E0223400FD80F51244268E828F83227494
:10603000EE122447890C8A0D8C088D098B0E741280
:10604000122B3D12600EAA0E122FAF8A108B11A8D0
:1060500010A911E8FEE9FFE87001E9603912484B28
:10606000E50E1254AAE50CF0780A1228AEAC08AD81
:1060700009A90D1240871228F6E9701AE50C1227BB
:106080002307018F6089608960124743D2E5F0EEF3
:10609000FAEFFB122FFD02454674F7122447EAFE81
:1060A000EBFF7A01EE242312456160027A05124863
:1060B0004BEA1254AA74041260FB24221260E7EE29
:1060C000242012484E12275D1260DE1240811228F1
:1060D000F6E97007EEFAEFFB122FFD02564DEE24A3
:1060E00017FCEF3400FD2212634688828983F07426
:1060F000018E828F83A3A3A3A3F022F0125819125A
:106100004097EE2274EE1224478A0A8B0BECFEEDC8
:10611000FF74058A828B8312633E8A828B83A3A3DA
:10612000F0EA2403126308F510A3E0F511EE24242D
:1061300012484E780C122AFEE5102411F582E51162
:10614000124851E50CF0A3E50DF0A3E50EF0A3E530
:106150000F1262F1AA10AB1112397B8508828509F2
:106160008312667BF582EF1266ABA3E0FB8882891F
:1061700083A3A3A3A3A3A3A3A3A3EAF0A3EBF0EE9B
:10618000242E124561C0E0E81262E4E9124851D0C1
:10619000E012634D241512631612634D240E126330
:1061A00016126356850882850983E02416FAA3E057
:1061B0003400FB1231178E828F83A3A3A3A3A3A362
:1061C000E0C0E0850882850983E0240DF8A3E01291
:1061D00062E9D0E0F0EE2402FCEF126022FAA3E0C4
:1061E000FB850882850983123F5C240BF508E912C0
:1061F000631EF0A3E4126337E0F50D85088285097C
:1062000083E0F0A3E0450D12632EE0F508A30A0A2F
:10621000AB83A2E7E492E0C0E0E8240FF582E91244
:106220004851D0E0F0740755086004780180027886
:106230000075F003A428F8EA28FAEB3400FBE50A1D
:106240002405F508E50B12631E126337850A828563
:106250000B83A3A3A3A3A3A3EAF0A3EB12634DF5BF
:106260000EF50C7407550CC333F50C7470550EC441
:1062700030E30244F0F50E3395E0F50F7403780E29
:10628000122A46E50E250CF8E50F3400F9EA28F845
:10629000EB39F9850A82850B83A3A3A3A3A3A3A348
:1062A0001258EC8E828F83A3A3A3A3E0FE8C828D71
:1062B000831262FEE50A2408F582E50B1248518E2E
:1062C0000AEA250AFCEB3400FDC3EC98ED99400680
:1062D000EEC3982A8008E4F0850882850983F002DD
:1062E0004546E5082410F582223400F98882898326
:1062F00022F0EE24120260E1851882851983126370
:106300000222E0FAA3E0FB22F508EB3400F5098550
:106310000882F583E022F8A3E01262E9E422340067
:10632000F5098A828B83E0850882850983221263BE
:1063300033A322F00240A8126333A3024CADF0EE67
:10634000243112634622F582EF12475022F085086D
:1063500082850983E022F0EE24070260E1C082C05A
:10636000837C0B7D0079001232310252F90226241F
:10637000C082C08379181230B10252F9C082C08342
:106380008A828B83E0C3940B50031231230252F9AB
:10639000C082C083791980DE74F7122447EAFEEBCD
:1063A000FF900405E07002A3E06010900405126203
:1063B000FE12312F7A057B041230DBEEFAEFFB126E
:1063C00030D5900405EEF0A3EFF002564D74F712AD
:1063D000244774DE122957EAFEEBFF1260DE8E823C
:1063E0008F83E01227B5011E1F35640303F7630591
:1063F000356418F7633E647416122B3DE4F0740B99
:10640000122B3DAA82AB831239877413122B3D7471
:1064100003F090044F1264697402122B3D1258EE7F
:10642000740A122B3D740212646D7414122B3DE831
:10643000F0A3E980107416122B3D740180BF74160E
:10644000122B3D7402F0740B127230A3E0C0E074A2
:1064500001122B3DD0E01263567417122B3D1257D8
:10646000EC742202558E90044512647522F090045B
:106470004B12647522E0F8A3E0F92274F512244768
:10648000EAFEEBFF750A00EE24201264DF7003A31E
:10649000E0696003750AE8EE2423F508EF126DB396
:1064A000EE2417123F6E6015E4850882850983F09B
:1064B000E50A701BEEFAEFFB12310B801F85088294
:1064C000850983E060EA90042CE070E4750AE88EA8
:1064D000828F83A3E50AF0741912552A0252CDF572
:1064E00082EF126A3A90044BE06822C082C0837443
:1064F000F11229577402122B3D740412632EE0C06E
:10650000E07403122B3DD0E0F0EA2420F582EB1278
:106510006A36740D122B3D1258EEEA2417FCEB3448
:1065200000FD7404122B3DAA82AB8312397B7404E4
:10653000122B3DAA82AB831230F9E960031265CDBC
:106540007402122B3DAA82AB831239DB02533374DF
:10655000F612244774E81229578A088B097402122C
:106560002B3D7403F0EA2412FEEB3400FFEEFCEF47
:10657000FD7404122B3DAA82AB83123987850882F1
:10658000850983124DDBC0E0740C122B3DD0E0F086
:10659000E5082407FCE5093400FD740D122B3DAA23
:1065A00082AB83123117EEFAEFFB1230F9E9600388
:1065B0001265CD7402122B3DAA82AB831239DB74B3
:1065C00018800274021228F67F020226588518826B
:1065D00085198374FFF0A3124CAA795312317D9070
:1065E000044574FFF0A3F02274F712244774D41208
:1065F0002957EAFEEBFF8E828F83A3A31251BAA321
:10660000E0A2E6501A90044B12667B124561687056
:1066100003A3E069700990042DE0603C12315974C5
:106620000B122B3DA882A9837403122B3D126DB867
:10663000742B125BF3900430E060087408122B3D59
:10664000E060107405851882851983F0AA82AB83F7
:106650001239DB742C02558E900454E060C1123F55
:106660006B70BC90044B12275D7B017C3C7D047AEF
:10667000037906123F7E1228F680D8126475EE2444
:106680002A22C082C08374EF1229577409851882A8
:10669000851983F07401122B3D74EE126EE40253DF
:1066A00037EAFCEBFDEA2413F582EB126349FA2288
:1066B00074F7122447A2AFE492E0FFC2AFE960038F
:1066C00012316B12363912672F90042DE0F9123611
:1066D000B112698412697A7A5F7B041236C37E0034
:1066E000EEC333F8E433F9E8240CF582E93404F519
:1066F00083126729E5827002E5836003123B450E31
:10670000EEC3940740DA1230A5E490046AF0122F29
:10671000A9E490042DF07A4E7B04795212317DEF7A
:10672000A2E092AF790002564D1264750262EC90BD
:10673000045EE0F91236D590045DE0F91236C92204
:106740001230C90252F9C082C08390041A748DF0CD
:10675000A3743EF090041C74F5F0A3743EF0900412
:106760001E749BF0A3743EF0900409E4F0A3F012B1
:1067700036330252F9C082C083903DC17C2E7D0425
:10678000743C1228061236ABE9900447F01236AB7F
:10679000E990043B024EB6E9C39440400CE9C3942F
:1067A0005E500674C029F98012E9C394E0400AE9FA
:1067B000C394E65004743E80EC792402262474F4D9
:1067C000122447EAFEEBFF123171E9FA8A087424B9
:1067D0006A700479F4804AA2AFE492E0F50BC2AF8C
:1067E00075090074027808122A46E5082447FAE57C
:1067F00009343BFB8A828B83E493242EF508E4342E
:1068000004F509750A0078081228AA8A828B83A3E6
:10681000E493FC126DAA1228F6E50BA2E092AF7980
:1068200000023F4574F11224478908EAFEEBFF7429
:10683000456508700B900433EEF0A3EFF002697524
:10684000123171E9FA8A0A74246A700579F40269CE
:1068500077750B007402780A122A46E50A2447FA73
:10686000E50B343BFBEA2402F8EB12631993F509BC
:10687000EA2403FCEB3400FDE50970088C828D836B
:10688000E493605E8C828D83E4936509700579FBE7
:106890000269777458650870218E828F83C3E094F3
:1068A0008FA3E09400400E8E828F83C3E094B1A347
:1068B000E09464400579E80269778E828F83E0C0B6
:1068C000E088828983E493F8D0E0C39840E78C8223
:1068D0008D83E493C0E08E828F83E0FCD0E0C39C84
:1068E00040D3A2AFE492E0F509C2AF8E0C8F0D75D4
:1068F0000E00780C1228AA8A828B83A3E493FC7D75
:10690000008A828B83E493242EFAE43404126DAF60
:106910001228F6E509A2E092AFE5081227B50007B4
:10692000503769524169533C69E06669E15369E255
:106930005D69E56D697569126984803912697A80CB
:106940003490044EE0790260051238D9802712385D
:10695000E5802290045EE0F91236D580187A5F7BDC
:10696000041236C3800F90045DE0F404F090045DDF
:10697000E0F91236C97900024A3690044F126302D8
:106980001236BD2290044B1263021236B722022641
:106990002474F7122447E9FE90046AE06E700479CB
:1069A00000801AE070151230B7E9600FEEF9123965
:1069B0000FE96007EE90046AF080E479E202564D38
:1069C000C082C08390046AE06008123909E4900430
:1069D0006AF00252F974F412244774078A828B8396
:1069E000126A40E08A828B83A3A3126A40A3A3E0C9
:1069F0008A828B83A3A3A3126A46A3A37808122AD0
:106A0000FE8A828B83A3A3A3A37808122AEFE48AC9
:106A1000828B83A3A3A3A3A3A3A3A3F0EC2415F5C4
:106A200082ED126A368A828B83A3A3A3A3A3A3A3B6
:106A30001258EC023F45126A3A221247500264761D
:106A4000126A46024981F08C828D832274F01224EE
:106A500047EAFEEBFFE490046CF0EE2406F8EF1238
:106A60006B2EC39404400674E890046CF0EE240787
:106A700008EF3400F9880889098882F583E0C39417
:106A80000F400F8A828B83E06403600F74E89004E8
:106A90006CF08A828B83E06403700E900409E0A29C
:106AA000E0400674E890046CF0EEFCEFFD7A6B7B3E
:106AB000041231958E828F83A3A3780C122AFE7460
:106AC0000A780C12291090047F780C122AEF85089E
:106AD00082850983E0900483126B32900484F07401
:106AE0000A900485F090045EE0900486F090047CA7
:106AF000125300740490047EF090046CE0701E90B9
:106B0000046DE0F9600674EA90046CF01236E174EA
:106B1000268E828F83F079041238D9800774298EEB
:106B2000828F83F0EEFAEFFB1230C3023F8A1258D5
:106B30001E22125829024E0274F412244774F712CE
:106B40002957EAFEEBFF90046DE07031900485E078
:106B5000640A60291236F3E9C0E0900485E0F890F9
:106B60000474E028F8A3E03400F974F528F5827481
:106B7000FF39F583D0E0F0900473E004F090047FD7
:106B80007808122AFE7401780812291090047F7880
:106B900008122AEF900485E004F0FAE508A2E0402C
:106BA00006EAC3941D40D6741D6A60567A857B043C
:106BB00079E112317D90046DE0FA600574026A702B
:106BC00009EEFAEFFB1231A7803B7408122B3D123D
:106BD0006C0890046DE06401700679087A80800486
:106BE00079077A837508FF7509FF78081228AE7B4C
:106BF000007402122B3DAC82AD83123F7E1228F648
:106C00008003125528023F407402124DF30265E2E0
:106C100074F0122447750801750900750A00750B98
:106C200000900485E078081228497808122A90908C
:106C3000046F7808122A2090046DE0FA74036A70D9
:106C40000F126C8E122AFE7808790C1223578032AC
:106C5000750801750900750A00750B00900483E042
:106C600078081228499080F878081229E79080F473
:106C7000780C122AFE7808790C122357EA70031256
:106C800036ED78081228A67A767B04023F849004B9
:106C900059123F4A9080F4780C2274F11224477400
:106CA000D4122957EAFEEBFF90046DE0FA74026AF1
:106CB000600874016A6003026DA2E490046CF074D1
:106CC0000B122B3DA882A9837403122B3D126DB8C1
:106CD000900484E0FA7003026D70900473E0FBC3CB
:106CE0009A4003026D70900474126E428B0A8040C9
:106CF000850882850983A3A3A3A3A3A3A3A3A312A7
:106D000064697414122B3DE0687003A3E06960139A
:106D1000740B122B3DAC82AD83AA08AB09123975F6
:106D2000E96017150AE5082421F508E509126DB395
:106D3000E50A70BC900473E07036740B122B3DA909
:106D400082AA83890C8A0D750E00780C1228AA7C01
:106D5000217D00900473E08CF0A4F8A9F0E50828E8
:106D6000FAE50939126DAF1228F6900473E004F0C9
:106D7000900430E0600E7408122B3DE07006900421
:106D800084E0700D851882851983AA82AB8312393D
:106D9000DB900484E0FA600A900473E06A700312E6
:106DA0005528742C1228F6024A367D00EEFAEFFBC5
:106DB000025BE23400F50922E8F0A3E9F0EEFCEF13
:106DC000FD851882851983AA82AB83123111227442
:106DD000F612244774FE122957EAFEEBFFEE241A3E
:106DE00012456164037052EE2423124561640370FE
:106DF00048126E4E8E828F83A3A3126E4285088244
:106E0000F583126E5C7950126E3C126E5C794B12F7
:106E1000317DAA08AB0979E1126E3CA3126E78129B
:106E2000409B851882851983AA82AB8379531231DE
:106E30007DE490046CF01255280265C312317D0286
:106E40006327126E4622E0F508A3E0F50922EE243E
:106E500012FAEF3400FB794A12317D22126E78F07B
:106E6000A3E9F0E5082402F508E5093400F50985F1
:106E70001882851983024CADE0FAA3E0F9EA024DCD
:106E8000F4C082C08390046CE064E860267A767B6C
:106E9000041231F51236E779041238E590046DE0FA
:106EA0006403700690046CE060097A867B0479E1E3
:106EB00012317D7A6B7B04025242C082C08374F52A
:106EC000122957EAFCEBFD851882851983AA82AB4B
:106ED000831231957401122B3D74FC126EE4740B15
:106EE000025339E9124CAA1239DB22C082C08379DD
:106EF0000702674074F012244790048BE4F0A3F07B
:106F0000900487E07002A3E06045900487126FCD83
:106F1000C082C083901A217808122AFED083D082C2
:106F200078081229975028126FBA900487E024023B
:106F3000F8A3E01270E6780812299750098A828B2C
:106F4000837808122AEF900487126FC61258EE90C9
:106F50000489E07002A3E090048B602DE07002A32E
:106F6000E0601B900489126FCDC082C08312705301
:106F7000122AFED083D082780812299750129004EA
:106F800089126FC61258EE8007E07002A3E06024F9
:106F9000127053122AFE901A21780C122AFE780CD5
:106FA0007908122982500DAA08AB09AC0AAD0B1260
:106FB00035D980031235DF023F8A1235C78A088B24
:106FC000098C0A8D0B2212647590048B22126FD1EA
:106FD00022126FD522E0F8A3E0F5838882A3A322D2
:106FE00074F012244790048BE07002A3E0605B12FF
:106FF0007053122AFE75831A758221780812299718
:10700000500D12349590048BE07002A3E0603B12A7
:107010006FBA90048B126FCD780C122AFE780C791F
:1070200008122AB0402490048B1248F2FAEFFB12A7
:10703000704DA3A3A3A3E0F98E828F83A3A3A3A380
:10704000A3A31251BA123B4580BB023F8A1231F50D
:1070500002428290048B126FD178082274EC1224C1
:10706000478A0C8B0D8C0E8D0F7414122B3D8018DB
:107070009080FC7810122AFE78107908122982502C
:10708000031234958E828F831248F27001EF6043B1
:10709000EE2402F8EF1270E6780C122A598A828BDD
:1070A000837808122AFE1270DD7002EF6970C190B9
:1070B00080FC7810122AFE7810790812298250B0CC
:1070C0009080FC7808122AFE8A828B837808122A24
:1070D000EF80B180031228F67F0C02265890048BB3
