:020000040800F2
:10000000E00C002051010008AD110008C90D0008E6
:100010006D100008ED0500087D20000800000000BC
:100020000000000000000000000000007F17000832
:10003000E10C000800000000651300086D1E0008B8
:100040006B0100086B0100086B0100086B010008E0
:100050006B0100086B0100086B0100086B010008D0
:100060006B0100086B0100086B0100086B010008C0
:100070006B0100086B0100086B0100086B010008B0
:100080006B0100086B0100086B0100086B010008A0
:10009000392000086B0100086B0100086B010008A3
:1000A0006B0100086B0100086B0100086B01000880
:1000B0006B0100086B0100086B0100086B01000870
:1000C0006B0100086B0100086B0100086B01000860
:1000D0006B0100086B0100086B0100086B01000850
:1000E0006B0100086B0100086B0100086B01000840
:1000F0006B0100086B0100086B0100086B01000830
:100100006B0100086B0100086B0100086B0100081F
:100110006B0100086B0100086B0100086B0100080F
:100120006B0100086B0100086B0100086B010008FF
:10013000DFF80CD000F04EF90048004775240008A5
:10014000E00C002030BF72B662B680F308887047BA
:100150000648804706480047FEE7FEE7FEE7FEE761
:10016000FEE7FEE7FEE7FEE7FEE7FEE7711E00089A
:100170003101000830B504460020034600E05B1C56
:10018000934203D2E05CCD5C401BF8D030BDF0B4AC
:1001900080EA0102D40F4200B2EB410F02D20246C4
:1001A000084611464A0042D0C30DDDB2C1F3C75222
:1001B000AD1A202D35DAC1F3160141F4000204B165
:1001C0005242C5F1200602FA06F12A411044B3EB6F
:1001D000D05F23D0C4B1012DA0EBC35009DCF0BC2B
:1001E0004FF0004202EAC352DBB200F5000000F01B
:1001F000C3B8400000F1807000EBC350A0F18070E4
:1002000040EAD170490009E0490841EAC071A0EB19
:10021000C35000F50000400800EBC350F0BC00F0F4
:10022000A2B86142012202EB4101001BF6E7F0BCDB
:10023000704781F00041AAE780F00040A7E730B4A2
:1002400080EA010202F0004530F0004221F0004057
:1002500013D090B1C30DD40DC2F31601C0F3160034
:10026000E41A41F4000140F400027D34914201D3CC
:10027000641C00E04900002C02DA30BC002070470A
:100280004FF400000023914201D3891A0343400830
:100290004FEA4101F7D151B1914202D14FF00041F3
:1002A00005E002D24FF0010101E06FF0010103EB24
:1002B000C450284430BC00F056B8420005D0C0F30A
:1002C000C7525242914201DC0020704700EBC150FE
:1002D000704796230022114600F04EB820F00040EF
:1002E000C10DC0F3160040F400007F2901DA0020A0
:1002F0007047962903DCC1F19601C84070479639D2
:10030000884070472DE9F05F0546002092469B46E5
:1003100088460646814640241BE02846414647461B
:10032000224600F078F853465A46C01A914110D33D
:1003300011461846224600F05FF82D1A67EB0108B7
:100340004F4622460120002100F056F817EB000925
:100350004E41201EA4F10104DFDC484631462A4606
:100360004346BDE8F09F0029A8BF7047401C4900E4
:1003700008BF20F00100704710B4B0FA80FC00FA0A
:100380000CF050EA010404BF10BC704749B1CCF135
:10039000200421FA04F411FA0CF118BF01212143C1
:1003A0000843A3EB0C01CB1D4FEA00614FEA10207C
:1003B00042BF002010BC704700EBC350104400291E
:1003C000A4BF10BC7047401C490008BF20F00100CA
:1003D00010BC7047064C074D06E0E06840F0010392
:1003E00094E8070098471034AC42F6D3FFF7A4FE18
:1003F0006C2A00088C2A0008202A04DB203A00FA24
:1004000002F1002070479140C2F1200320FA03F36B
:10041000194390407047202A04DB203A21FA02F069
:100420000021704721FA02F3D040C2F1200291402E
:1004300008431946704770B58C1810F8015B15F029
:10044000070301D110F8013B2A1106D110F8012B46
:1004500003E010F8016B01F8016B5B1EF9D12B076B
:1004600005D40023521E0DD401F8013BFAE710F821
:10047000013BCB1A921C03E013F8015B01F8015B0E
:10048000521EF9D5A142D8D3002070BD70B500230B
:10049000002200EB820401EB8206E55CF65C521C54
:1004A0007540E554042AF4DB5B1C042BF0DB70BDC3
:1004B000FFB5044600206D46002105EB800200EBED
:1004C0008103E35C5354491C0429F8DB401C0428D5
:1004D000F2DB13492846FFF7D9FF114F0926A03F49
:1004E000684600F0FEFC684600F018FD07EB0611B8
:1004F0006846FFF7CBFF16B1684600F0B0FC761EE9
:10050000EED50020002105EB800200EB8106535C54
:10051000491CA3550429F8DB401C0428F2DBFFBD6D
:10052000CC080020FFB5044600206D46002105EBF5
:10053000800200EB8103E35C5354491C0429F8DB7F
:10054000401C0428F2DB14492846FFF79FFF124F96
:100550000126684601F068FC684601F07FFA0A2E21
:1005600002D0684600F0E0FD07EB06116846FFF791
:100570008DFF761C0A2EECDD0020002105EB8002A9
:1005800000EB8106535C491CA3550429F8DB401C91
:100590000428F2DBFFBD00002C08002070B50A46DD
:1005A00006461D4600240649104600F0C9FC03E03B
:1005B0003019FFF77DFF1034AC42F9D370BD000055
:1005C0002C08002070B50A4606461D460024064940
:1005D000104600F0B5FC03E03019FFF7A3FF10341C
:1005E000AC42F9D370BD00002C080020FEE7C1B278
:1005F000000A40EA012070472DE9F84F0020ADF8CD
:1006000000004BF6BF7648F280084A4D4A4C40F64F
:100610008F7ADFF8289148F60F7B494F2FE0088842
:1006200010F00F0089F8000032D007EB8001D1F8FC
:10063000002CADF80020BDF8002012040BD5D1F835
:10064000002C02EA0A02C1F8002C3E4901EB8000AE
:1006500050F8040C8047BDF8000000060FD599F84B
:10066000000007EB8001D1F8002C02EA0B02C1F870
:10067000002C354901EB800050F8040C80472D48D0
:1006800044300068314908800004C8D4BDE8F88FC0
:1006900028682080208800F030006080208800F4E6
:1006A000405020802868304080F4005080F02000C6
:1006B00040EA080028600888C00617D4296801EAC3
:1006C0000B01296000F082FB28E02188890401D514
:1006D00080F400506188C90628D46188890601D554
:1006E00080F0200040EA08002860CFE72868ADF8D5
:1006F0000000BDF80000000506D5296801EA0A01DE
:10070000296001F077F909E0BDF800000004B6D5D2
:10071000286800EA0A00286000F0F0FD28682188B7
:100720003040C904D1D580F48050CEE780F010006D
:10073000D3E70000005C0040160000200400002009
:1007400000500040580000203C00002038000020ED
:10075000034610B50020024604E09C5C521C204475
:10076000C0B2D2B28A42F8D310BD0000810008485E
:100770000844D0F8001C490409D5D0F8001C48F6FC
:100780008F7211404CF280021143C0F8001C704778
:1007900000500040810008480844D0F8001C490679
:1007A00009D5D0F8001C48F68F72114048F2C002FB
:1007B0001143C0F8001C70470050004081000648FB
:1007C0000844D0F8001C48F68F62114048F28002BD
:1007D0001143C0F8001C704700500040124910B58A
:1007E0000A680628117801F07F0103D1012901D19F
:1007F000537913B121290AD013E09078222802D02E
:10080000212802D00DE0094904E0094902E003284B
:1008100007D1084929B10020916150828847002002
:1008200010BD022010BD000008000020790800085B
:10083000510800085D080008014901F0BDB9000039
:1008400084000020014901F0B7B900007C000020BD
:10085000014901F0B1B900009400002008B104483A
:100860007047044901200968088200207047000091
:100870007800002008000020014901F09DB9000027
:100880008C00002005490968C978042901D9002095
:100890007047034A02EBC10101F08EB90800002045
:1008A000CC00002009B9002800D0022070470000C9
:1008B00006490968097801F07F01212901D10B2837
:1008C00001D00220704700F071B80000080000203D
:1008D00070B52948002100688172C1722749C97921
:1008E0004172002000F04CFF4FF40071002001F035
:1008F00015F81021002000F0E7FF1821002000F07B
:100900006BFF5821002000F0C1FF0020FFF756FFC9
:100910001B4890F82C10002000F06EFF002000F023
:10092000A3FF4FF4C0642146012000F0F7FF982197
:10093000012000F051FF4021012000F05DFFE100A7
:10094000012000F079FF2146022000F0E7FF4FF47C
:100950008C71022000F09AFF4021022000F0A6FFD7
:100960002021022000F0B0FF064D01242C60002061
:1009700000F00EFF2C6070BD08000020D429000894
:100980009C000020100100200348807A002802D03B
:100990000249052008607047500300201001002024
:1009A00001490420086070471001002003480449F1
:1009B0000068C07808600020704700000800002030
:1009C000780000207047704710B500F0E3F9054843
:1009D00000240068847200F04BFD01F02FFB0248F8
:1009E000046010BD08000020100100202DE9F04730
:1009F000DFF89490254F4FF03008D9F8001001F13E
:100A00001005088A0E7A08B9042E04D0AC88A042DA
:100A100015D8042614E01E480178012903D00726C2
:100A2000102038802BE01B4A002112681A4B120458
:100A300003EBD2325160A7F8008001701FE002265C
:100A4000844200D90446A96820468847824600208F
:100A500000F092F901462246504601F011FB214672
:100A6000002000F023FF2888001B2880688820448D
:100A70006880A7F8008009494FF440500880D9F8F1
:100A800000000672BDE8F087080000201800002072
:100A900000000020505C0040006000401600002074
:100AA0002DE9F047224EDFF88C803027346834F887
:100AB000100FA168A9B100B3A588854200D90546E9
:100AC0002846884781462088401B2080608828442B
:100AD0006080002000F040F901462A46484600F0B8
:100AE00031FC208848B114494FF44050088000215F
:100AF000084600F0DBFEA8F800702088A188884234
:100B000001D3032001E020B1052031680872BDE85F
:100B1000F087316806200872084900200968084AF1
:100B2000090402EBD1314860A8F80070EFE700003B
:100B3000080000201800002016000020505C004033
:100B400000600040F8B55D4C5D4D09262068002727
:100B500029684278062A05D0AAB1082A4DD00A2A67
:100B600050D06BE00278520668D18078012804D01A
:100B7000022804D0032804D060E0C96956E0096A5D
:100B800054E0496A52E04288B2BBC288022A55D179
:100B900002798ABB0278530601D1838833B102F00F
:100BA0007F02012A04D0022A0CD047E045493DE0EB
:100BB0008A69407900219047F0B92068807A00283E
:100BC000F4D13BE0417901F00F0001F070020B0617
:100BD0003D4901EB8001D1F8001C03D5C1F301119F
:100BE000090102E0C1F301310903384B1B7883424C
:100BF00024D90AB90029D9D120E0007840061DD1B6
:100C0000334913E0027802F07F02012A16D1827A7A
:100C1000A2B1428892B9027982B9C288012A0DD163
:100C20008A6940790021904740B92A4931B120684A
:100C30004782816100208847002006E029682068FB
:100C4000096940788847032813D021680A8AA2F5E9
:100C50007F43FF3B0BD002280ED06AB10878000614
:100C600026D5C888009082420AD9088218E00E7200
:100C7000F8BD20680672F8BD4FF008000872F8BD94
:100C80000ED22868144B90F82C00824201D21F70BB
:100C900006E0B2FBF0F400FB142008B90120187044
:100CA000286890F82C008882BDE8F840FFF79EBEC7
:100CB00003200872094900030880F8BD08000020DD
:100CC0000C000020FD1B00080050004074000020B4
:100CD000911B0008D51B0008000000201600002012
:100CE0007047704710B540229821064800F02AFB53
:100CF0004FF44051012000F09FFD0349012008708E
:100D000010BD00006C0300203400002070477047C5
:100D100038B5054600208DF8001001216C46621898
:100D200012F8012C53061B0E6354120602D583F0F1
:100D30001B026254491C0429F1DB002125FA01F24F
:100D4000D20701D0625C5040491C0429F6DB38BD53
:100D500041617047016170470549096889B201EB3B
:100D6000C000044901EB4000008980B270470000D8
:100D7000505C0040006000400449096889B201EB02
:100D8000C000034931F8100080B27047505C004049
:100D9000006000400A4810B50168001D0468001D8D
:100DA000006808180BD00822064900F03DF80549F4
:100DB00020460422BDE81040103100F035B810BDC7
:100DC000E8F7FF1F1C000020FEE7000010B5134CE1
:100DD0002068017A022904D0042902D0062905D00E
:100DE00015E0FFF703FE2068007A11E0417805293D
:100DF00009D10178490606D1C07800F0C9FC08483D
:100E00000068006A804707480068806880470820BB
:100E100021680872BDE8104000F008BB08000020FF
:100E2000100000200C000020F0B500230A2430251B
:100E300037261F4610E0B4EB107F02D905EB107C7B
:100E400001E006EB107C01F813C001EB430C00013C
:100E50005B1C8CF80170DBB29342ECD3F0BD2DE942
:100E6000F841804600256E46002008EB8001495D70
:100E70003154401C0428F8DB00240E20315DFFF7BC
:100E800047FF0746601CC11700EB917121F0030179
:100E9000401A815D0B20FFF73BFF4740A01CC117A4
:100EA00000EB917121F00301401A815D0D20FFF7E5
:100EB0002FFF4740E01CC11700EB917121F00301A7
:100EC000401A815D0920FFF723FF474008EB8400AB
:100ED000641C4755042CD0DB6D1C042DC4DBBDE81D
:100EE000F88178B501226D46002100EB82048B1A4F
:100EF0001B1DDE1703EB967626F003069B1BE35CB7
:100F00006B54491C0429F2DB00216B5C6354491CBF
:100F10000429FADB521C042AE6DB78BD30B5074C05
:100F20000022002100EB82035D5C655D5D54491C7D
:100F30000429F9DB521C042AF3DB30BD4C020020EB
:100F4000FFB52DA21CCA8DE81C000023002201EB76
:100F5000830403EB8205455DA554521C042AF8DB8B
:100F60005B1C042BF2DBDFF89CC0012503AE0020E4
:100F700001EB0514002204EB820318B1034413F8BB
:100F8000013C01E013F80D3CB354521C042AF2DB7F
:100F9000E8B99DF80CE00022531CDF1703EB9777AC
:100FA00027F00307DB1B9B5D1CF80330B354521C76
:100FB000032AF1DB1CF80E208DF80F200DEB050342
:100FC0009DF80C2013F8013C5A408DF80C200022AB
:100FD00004EB82031F1816F802E017F8107C521C6D
:100FE00087EA0E071F54042AF2DB401C0428C1DBE9
:100FF0006D1C0A2DBBDDFFBD0102040810204080DE
:101000001B3600004C010020704700000F480021F3
:101010000161C160142242618161C161026842F0D4
:101020000102026042680A4B1A4042600268094BA2
:101030001A400260026822F480220260426822F4B0
:10104000FE0242608160C00300F006B8001002405A
:101050000000FFF8FFFFF6FE024A1140014302487C
:101060000160704780FFFF1F08ED00E0FEE7000011
:1010700070B52B4E01240546347001F073FC7E28B8
:1010800002D02870012070BD347001F06BFC317803
:10109000E1B1244D6870687501F064FC3178B9B134
:1010A000A870697D0844687501F05CFC317889B1ED
:1010B000E870697D0844687501F054FC317859B1D5
:1010C0002871697D00240844687512E0022070BD13
:1010D000032070BD042070BD052070BD01F042FCEE
:1010E000317891B12919641C4871697DE4B20844D2
:1010F00068752879A042F1D801F034FC697D327816
:1011000032B1814207D1002070BDA41DE0B270BD94
:101110002879801D01E02879C01DC0B270BD000093
:1011200018010020AC0300202DE9F841804600257D
:101130006E46002008EB8001495D3154401C0428B4
:10114000F8DB00240220315DFFF7E2FD0746601C5A
:10115000C11700EB917121F00301401A815D03205A
:10116000FFF7D6FD4740A01CC11700EB917121F09D
:101170000301401A815D0120FFF7CAFD4740E01CD2
:10118000C11700EB917121F00301401A815D01202C
:10119000FFF7BEFD474008EB8400641C4755042C54
:1011A000D0DB6D1C042DC4DBBDE8F88170477047AF
:1011B00030B50F23C27801780125F2B1144A1268C4
:1011C00001F1E02102F4E062C2F5E062120AC2F12C
:1011D0000404D3404278A24084781C401443220186
:1011E00081F80024007800F01F018D404009800044
:1011F00000F1E020C0F8005130BD01F01F00854033
:101200004809800000F1E020C0F8805130BD0000A6
:101210000CED00E0024908430249086070470000F5
:101220000000FA050CED00E070B52F4D2968087834
:101230004C78420606D000F07F00012828D0022812
:101240002BD035E0092C06D0052C07D0032C0ED06E
:10125000012C14D02CE000F01BFD28E0C8787F287A
:101260002ED8887860BB888850BB887A27E0C878F9
:1012700001281DD18888D8B900F026FD17E0C8786C
:10128000012815D1888898B9487A80060AD40FE0D9
:101290000B2C0DD100F06EFD09E0012C02D0032CC7
:1012A00003D005E000F0F6FB01E000F01FFD58B1AF
:1012B0000E492046096849698847032802D018B1B9
:1012C00008200DE009200BE0094A062000211268E1
:1012D000084B120403EBD2325160074A30211180CF
:1012E0002968087270BD0000080000200C00002072
:1012F000505C0040006000401800002010B50F4C0A
:101300002068007A022811D004280FD0032804D0C6
:10131000052802D0072805D008E0FFF7C1FB2068A8
:10132000007A04E006480068C06880470820216809
:101330000872BDE8104000F079B8000008000020F5
:101340000C000020064B521C520803EB410105D053
:1013500031F8043B20F8023B521EF9D170470000DF
:1013600000600040704700002A48816941F0040194
:101370008161816941F008018161816941F0200149
:1013800081612548016821F470210160016841F400
:101390004031016020480830016821F4805101602B
:1013A0001D48001F016821F070610160016841F073
:1013B000407101601948016821F0704101600168C5
:1013C00041F0405101601648016821F0F0010160D0
:1013D000016841F08001016011480C30016841F062
:1013E000020101600D48001D016821F07F4101608C
:1013F000016841F04C51016008480C30016841F42B
:101400004041016007490120C1F8B8010649C1F80F
:101410009801704700100240040C01400014014084
:101420000008014000802242008021420C4810B593
:1014300090F82C10002000F0DFF90A480068007ACC
:10144000082802D0092809D006E007494FF4805047
:101450000880064910200880002010BD012010BD22
:101460009C0000200800002016000020180000202A
:1014700010B5012000F03CFD06480121016000216B
:10148000054A0160031D19604FF4E05111800160AD
:10149000002010BD405C004014000020044A0029D8
:1014A000D16901D0014300E08143D1617047000060
:1014B000001002400149C1F8D800704700004242C4
:1014C00010B501787E2901D0012010BD41788278C5
:1014D00003791144C2781A441144CAB2002105E0CC
:1014E0004418491C6479C9B22244D2B28B42F7D85D
:1014F000407D904201D0032010BD002010BD0000AF
:1015000070B51C4C072800D02070207806250426D2
:10151000194906282CD2DFE800F00306090E162030
:1015200000F02CF824E000F029F80AE002206070B6
:101530000320207070BD6078401E607060780028C5
:10154000F8D1267070BD086880B240F010000860C5
:10155000052020700A20607070BD6078401E6070A9
:1015600060780028F8D1086880B220F01000086088
:10157000257070BD15010020405C004010B5064C80
:10158000206880B220F004002060FFF73DFD4FF49A
:101590003F40206010BD0000405C004070B5054633
:1015A00045F6FF76304600F04BF8002812D10A4C81
:1015B000206940F0020020616561206940F0400030
:1015C0002061304600F03CF8012803D0216921F069
:1015D0000201216170BD0000002002400748C06880
:1015E000C10701D001207047410701D50220704793
:1015F000C00601D50320704700207047002002403C
:101600000248016941F080010161704700200240F9
:1016100010B5002305E030F8024B21F813405B1CA5
:101620009BB29342F7D310BD03480249416003497E
:10163000416070472301674500200240AB89EFCD30
:1016400010B50446FFF7CAFF012803D0002C00D1D3
:10165000FF2010BD012000F0D1FE641E2404240CE4
:10166000F0D1F5E72DE9F05F1546A0F1006288465C
:101670008246B2F5003F50D2FFF7D6FFC2F34806CC
:10168000970AC6F50074A54200D82C46DFF890B042
:101690004FF0006000EB872081464FF40072204934
:1016A000FFF7B6FF00204FF6FF7206E033183BF855
:1016B0001310914203D1401C80B2A042F6D3A04245
:1016C00023D24846FFF76AFF00205A4606E038F862
:1016D00010108319401C22F8131080B2A042F6D3D8
:1016E00048464FF400720E4900F036F8A54210D07B
:1016F000281B08EB4408A244002685B24FF400746E
:101700007F1CA542C4D82C46C2E72246414650461B
:10171000EAE7BDE8F05FFFF773BFBDE8F09F0000A8
:101720002C04002070B506460D46FF20FFF788FF09
:1017300000280ED1074C206940F00100206135805F
:10174000FF20FFF77DFF012803D0216921F001016F
:10175000216170BD002002402DE9F04116460F4680
:101760000546002407E037F814102846FFF7DAFF93
:10177000641CA4B2AD1CB442F5D3BDE8F08170473F
:10178000024920F00700086070470000505C0040EC
:10179000F0B50E490E4E48F68F770D78002148F2CD
:1017A000800C0BE0CAB206EB8203D3F8004C3C403D
:1017B000144344EA0C04C3F8004C491CA942F1D379
:1017C000044940F080000860F0BD00007400002073
:1017D000005000404C5C0040054A21F001011268B5
:1017E00092B202EBC000034A02EB400081607047F6
:1017F000505C0040006000400D4A12683E2992B2E1
:1018000002EBC0000B4A02EB400209D94809C906A5
:1018100001D1401E80B24FF4004141EA802004E033
:101820004808C90700D0401C8002106070470000C3
:10183000505C00400C60004082000A480244D2F82C
:10184000000C4BF68F731840CB0401D580F4805008
:10185000890401D580F4005048F280010843C2F8A1
:10186000000C704700500040810007480844D0F841
:10187000001C4BF68F72114081F4405148F28002F7
:101880001143C0F8001C704700500040054A21F089
:101890000101126892B202EBC000034A42F8101034
:1018A00070470000505C004000600040044A12682D
:1018B00092B202EBC000034A02EB40004160704765
:1018C000505C00400060004082000A480244D2F8A8
:1018D000000C48F6BF731840CB0601D580F010000D
:1018E000890601D580F0200048F280010843C2F843
:1018F000000C704700500040810007480844D0F8B1
:10190000001C48F6BF72114081F0300148F280029D
:101910001143C0F8001C7047005000408200054889
:101920001044D0F8002C48F68F131A400A43C0F830
:10193000002C7047005000400CB500222648009251
:101940000192016841F4803101604FF4A0630168A5
:1019500001F4003101910099491C0091019911B9DC
:1019600000999942F3D10168890333D5012101918E
:101970001A490A6842F010020A600A6822F003025B
:101980000A600A6842F002020A60416841604168E8
:101990004160416841F480614160416821F47C11FB
:1019A0004160416841F4E8114160016841F0807193
:1019B000016001688901FCD5416821F003014160A3
:1019C000416841F0020141604168C1F3810102298F
:1019D000FAD10CBD01920CBD001002400020024063
:1019E00010B50020FFF766FD0121BDE81040C805D5
:1019F000FFF754BD70B516480068174D0004C10BC1
:101A000014480144098989B200EB41042868017A2D
:101A100009290FD02178017061784170A088FEF704
:101A2000E6FD296848802089FEF7E1FD2968888065
:101A3000A089C880286801210172C08828B1FFF7F9
:101A400081F8BDE87040FFF7F1BCFFF7EDFBF8E768
:101A5000505C0040006000400800002078B5012282
:101A60006D46002100EB82048B18DE1703EB96769F
:101A700026F003069B1BE35C6B54491C0429F3DB33
:101A800000216B5C6354491C0429FADB521C042AB4
:101A9000E7DB78BD2DE9F04138480068017811F0A6
:101AA0007F0102D0022905D066E0417A01F0DF0112
:101AB00041724EE0418800295ED10179F1BB417944
:101AC000304D21F080040A0605EB84022C4BD2F83D
:101AD000002C03D5C2F30112120102E0C2F301325D
:101AE00012031E782346A64246D93AB3807A28B319
:101AF00008064FEA84000ED52844D0F8000CC0F345
:101B00000110012821D11846FEF744FE204630215D
:101B1000FFF7DAFE19E04619D6F8000CC0F30130E1
:101B2000012812D14BF68F7748F28008A4B11846ED
:101B3000FEF71CFED6F8000C384000E01CE080F4F4
:101B4000405040EA0800C6F8000C0F4800684069A1
:101B500080470020BDE8F0810C4890F82C10002050
:101B6000FFF74AFED5F8000C384080F4405040EAB8
:101B70000800C5F8000CE8E70220EBE708000020A9
:101B80007400002000500040100000209C00002045
:101B900010B5074C30B107480068006880472068DE
:101BA0000A3010BD216801200882002010BD00000D
:101BB0000800002010000020054A13685A8A10B15E
:101BC0000868104470478888801A1882002070477F
:101BD0000800002010B5074C30B107480068806845
:101BE000804720680C3010BD216801200882002049
:101BF00010BD00000800002010000020204910B592
:101C0000096860B11F48002202800A7853060AD092
:101C100002F07F02012A16D0022A16D001E002202B
:101C20000882002010BD497A8A06027802D542F067
:101C3000020201E002F0FD0249060270D1B211D4A5
:101C400001F0FE0110E00F4810BD49790A070B06AC
:101C50000D4901EB9261D1F8001C07D5C1F30111C8
:101C600006E0017841F00101017003E0C1F30131A8
:101C70000129F6D00548006800698047E3E70000C5
:101C8000080000200200002000500040100000204A
:101C90000A4810B500680A4AC1785278914203D8C0
:101CA00082780AB982880AB1022010BD8172054883
:101CB000006840688047002010BD00000800002038
:101CC0007400002010000020064810B50068417A1A
:101CD00041F02001417204480068C069804700203B
:101CE00010BD0000080000201000002070B51D4845
:101CF0001D4D0268517921F0800005EB80000B0634
:101D0000D0F8003C21F0800403D5C3F301131B017C
:101D100002E0C3F301331B03144D2D78A54210D903
:101D2000548874B96BB1927A5AB10906D0F8001C84
:101D300048F2800207D548F6BF73194081F01001C0
:101D400006E0022070BD4BF68F73194081F480517C
:101D50001143C0F8001C06480068806980470020D5
:101D600070BD0000080000200050004074000020FA
:101D70001000002010B50E4C0E4A20681268C17881
:101D800092694079904721688A7A22B118B9087916
:101D900008B9887808B1022010BD07480068C068FB
:101DA000804720684179C172C1780173002010BD5D
:101DB000080000200C0000201000002030B505466F
:101DC0000024FFF723F91649086840F480300860C2
:101DD0000868400CFCD04FF480604860AD1E4A6833
:101DE000E8B242EA80404860486840F48030486089
:101DF0000C48026842F032020260086840F08070CD
:101E000008600868400EFCD0486840F00200486056
:101E100002E04868C0F38104022CFAD130BD000012
:101E2000001002400020024030B5074C0022002183
:101E300000EB82035D5C655D5D54491C0429F9DBA0
:101E4000521C042AF3DB30BD4C0100200648016817
:101E500089B241F008010160016889B241F00401D2
:101E60000160FEF754BF0000405C00407047000076
:101E70000F4810B5016841F00101016041680D4A49
:101E80001140416001680C4A11400160016821F471
:101E900080210160416821F4FE0141604FF41F017F
:101EA0008160FFF749FD05494FF00060086010BDF3
:101EB000001002400000FFF8FFFFF6FE08ED00E012
:101EC00004490880081F01884906FCD50188018063
:101ED00070470000044400400246002012880A4275
:101EE00000D001207047C1F30801818070470000D5
:101EF000044A00284FF48041104601D0FEF728BF65
:101F0000FEF728BF000C0140024610B50020402912
:101F100000D94021044B03E01C5C02F8014B401C3B
:101F20008842F9D3084610BD6C03002006490548D5
:101F3000022208600272064A0448C1E901020068F0
:101F40000047000050030020080000209C000020F3
:101F5000EC00002008B54FF44070FFF75BF9142047
:101F60008DF8000001208DF8010000218DF802108D
:101F70008DF803006846FFF71BF908BD70B5294CC2
:101F80002068294D68806888284E31880840000400
:101F900001D5FEF731FB688831880840400505D53A
:101FA0004FF6FF30206022484068804769883088BB
:101FB0000140890402D54DF6FF7121606988014016
:101FC000C80405D54EF6FF7020600020FFF798FA90
:101FD00068883188084000050BD51648007810B194
:101FE000FFF734FF02E00220FFF78AFA4FF2FF709A
:101FF0002060698830880140890505D54FF6FF517A
:1020000021602978491C297069880140C80507D5D5
:102010004FF6FF602060BDE870400720FFF770BA00
:1020200070BD0000445C0040360000201400002019
:102030009C00002014010020FFF7A0BF05490020EC
:10204000086005494FF43F4008800249091F0860B5
:1020500000207047445C00401400002010B50C467E
:102060008AB24FF48C7100F00BF840210220FFF788
:102070001DFC0220FFF740FC204610BDFEE70000DB
:10208000084B10B5521C520803EB410109D010F85F
:10209000013B521E10F8014B43EA042321F8043B94
:1020A000F5D110BD006000400FB4054B10B503A979
:1020B000044A029800F018F810BC5DF814FB000008
:1020C000252400084C03002002E008C8121F08C1A4
:1020D000002AFAD170477047002001E001C1121FA9
:1020E000002AFBD1704700002DE9FF4F8DB09B46C1
:1020F0000F460446002606E025280BD05A460F99C5
:102100009047641C761C20780028F5D111B0304629
:10211000BDE8F08F0025A8460122984900E005435C
:1021200014F8013F203B02FA03F00842F7D120786F
:102130002E2817D114F8010F45F004052A280ED0D7
:102140006FF02F022078A0F1300109290AD808EB9E
:10215000880102EB410100EB0108641CF2E757F82B
:10216000048B641C20786C280DD004DC4C2812D021
:102170006A2811D104E074280DD07A280CD10AE025
:1021800045F4001507E0617845F48015814202D1DD
:10219000641C05F58015641C2278692A45D008DC8A
:1021A000002AB3D0582A69D0632A10D0642A08D1F3
:1021B0003BE0702A67D0732A13D0752A5CD0782A46
:1021C0005CD010465A460F999047761CD3E017F81A
:1021D000040B8DF8000000208DF80100E946012075
:1021E00003E057F8049B4FF0FF3069074FF00005FC
:1021F00001D40AE06D1C45450DDA8542FADB19F879
:1022000005100029F6D106E06D1C8542FCDB19F8AB
:1022100005100029F8D12E4404E019F8010B5A46A4
:102220000F9990476D1EF8D2A5E00A200021CDE954
:102230000801C5F3025002280DD001CFC117031EBB
:1022400071F100030DDA4FF0000CD0EB0C006CEBD9
:1022500001012D2308E0FF1D27F00707F7E8020121
:10226000EDE72B0504D52B238DF8283001233BE027
:10227000EB0739D02023F7E70A2000E010200021E7
:10228000CDE9080107E01020002145F00405CDE963
:1022900008014FF00808C5F3025002280FD001CF03
:1022A00000214FF0000A2B071FD5702A0DD0DDE961
:1022B00008C38CF0100C5CEA030C0CD015E0FF1D79
:1022C00027F00707F7E80201EBE740228DF8282006
:1022D0004FF0010A0BE050EA010306D030238DF8DD
:1022E00028308DF8292002239A46582A04D024A2A7
:1022F0000DF120090B9209E026A2F9E7DDE9082398
:10230000FEF700F80B9B9B5C09F8013D50EA0102C7
:10231000F4D1ADEB090020300890680701D44FF0EC
:1023200001080899884502DDA8EB010000E00020C3
:102330008046002506E00AA85A46405D0F9990475E
:102340006D1C761C5545F6DB04E030205A460F998B
:102350009047761CB8F10001A8F10108F5DC05E012
:1023600019F8010B5A460F999047761C0899481E98
:1023700008900029F4DC641CC5E60000092801006F
:1023800030313233343536373839616263646566EB
:1023900000000000303132333435363738394142AD
:1023A00043444546000000004FF0E0210A6922F056
:1023B00004020A610649C00800EB40020870C2EB43
:1023C000C0104FF6FF7202EAC0004880704700005C
:1023D000480100200849498848434FF0E0214861FE
:1023E00000238B61012008610869C20701D0C00386
:1023F000FAD50B618B6170474801002008490978C4
:1024000048434FF0E021486100238B6101200861BF
:102410000869C20701D0C003FAD50B618B61704710
:102420004801002070B5074D0446C1B22846FFF7A9
:102430005AFD80212846FFF74FFD0028F9D020469D
:1024400070BD00000038014010B50168074A114016
:10245000B1F1005F09D14168054C21600068FDF7CA
:1024600074FE2068BDE81040004710BD0000FE2F3C
:102470004401002088B04FF000098DF810904D46BF
:10248000CE4C0920CDF81490FFF798FC4820FFF7B8
:102490008BFF4FF4E1363146482000F0CBF931464E
:1024A000242000F013FAFEF75FFF08226946C448B3
:1024B000FFF7AEF800266F46B846B95DC1A0FFF73A
:1024C000F3FD761CF6B2102EF6D3BFA0FFF7ECFD9D
:1024D000BE4E6A46102310467168FEF75FF800276B
:1024E000B8A018F80710FFF7DFFD7F1CFFB2102F10
:1024F000F6D3B5A0FFF7D8FDB44A10231C32A2F1E1
:1025000010011046FEF74AF8B04FB1A01C373968E9
:10251000FFF7CAFDB1490098DFF8C4A2CDF818D082
:102520004FF0010B88423ED1AEA0FFF7BDFD062261
:1025300008F104013868FFF76BF80027A1A018F82C
:102540000710FFF7B1FD7F1CFFB2102FF6D39EA03E
:10255000FFF7AAFD0698A7490027016018F80710A1
:1025600098A0FFF7A1FD7F1CFFB2102FF6D396A015
:10257000FFF79AFD6A46102310467168FEF722F8AD
:10258000002790A018F80710FFF78EFD7F1CFFB200
:10259000102FF6D38CA0FFF787FD082269468848E4
:1025A000FFF760F839E001469248814259D106228E
:1025B00021463868FFF72CF8002782A0E15DFFF77D
:1025C00073FD7F1CFFB20C2FF7D37FA0FFF76CFDCC
:1025D0000027E019017B7BA0FFF766FD7F1CFFB29F
:1025E0000C2FF6D378A0FFF75FFD0C22214608F1EF
:1025F0000400FDF7BFFD80B15746CAF8B8914FF40B
:10260000FA784046FFF7E6FEC7F8B8B14046FFF754
:10261000E1FE4FF00060FFF717FF7748D0F80401A4
:10262000764F10B13846FFF70FFFCAF89CB1FFF79D
:1026300091FCFFF7D5F9FFF779FC072170A000F0B6
:10264000B3F971A0FFF730FD4FF4FA70FFF7C2FE47
:1026500071484FF4007ADFF8BCB10DF11408021F85
:1026600010E06EA0FFF720FD5746CAF8BC914FF46A
:10267000FA784046FFF7AEFEC7F8BCB1C6E701885E
:102680008DF8101011888906F9D46948017800295D
:10269000FBD080F8009080212046FFF735FC8DF8B4
:1026A00010002046FEF70CFF10F0FF008DF8100020
:1026B00043D1A07841381128E7D2DFE800F00A09B9
:1026C000090909090925303E0958090909416B0022
:1026D000DBE72379621D601D7168FDF75FFFB5F5CB
:1026E000D43F0FD2FEF7A0FFA80502D1E819FEF7EC
:1026F00055FF0822611DE819FFF72EF8FEF780FF4D
:1027000010351AE0032016E0012104A8FFF7A6FC0B
:102710000520FFF75FFE3846FFF796FEB5E7E07845
:10272000BAEB001F06D922790BEB0010611DFEF7F2
:1027300099FF02E0FF208DF81000012104A809E0B4
:102740006079BAEB001F08D2B06812210068C4F8A3
:1027500002002046FFF782FC97E7A1790BEB0010FF
:102760000A012146FEF754FF2046E179F2E74821AD
:10277000A17000250421601CFDF7EAFF60750621A9
:10278000204600F011F908F10100FEF771FC8DF808
:102790001400D2E74121A1701421601CFDF7D8FF7D
:1027A00060751621204600F0FFF808F10100FEF7E1
:1027B0005FFC8DF81400022105A8CBE7AC030020D4
:1027C00000F80108257820000D0A000018010020FB
:1027D0004370752069642025780D0A0054324D3A03
:1027E0000080224266697273742073746172740D82
:1027F0000A000000A600890F0000214200500008D6
:10280000626F6F740D0A000041455320424F4F54D0
:102810000D0A000000FC010804440040496E766186
:102820006C696420646174612025780D0A000000E1
:102830003400002070B504460801FDF74AFD054646
:102840001E486043FDF745FD2946FDF7F8FC0546A7
:10285000FDF744FD84B22046FDF73BFD2946FDF718
:10286000EBFC0421FDF729FDFDF738FD4FF6FF7164
:1028700001EA04110A181248816941F004018161DA
:10288000816941F4804181610E490B6823F47F63C3
:102890000B600B6843F40B630B60C16841F480412B
:1028A000C160C16821F48041C16007480280001DF9
:1028B000018842F20C021143018070BD40420F00BA
:1028C00000100240040801400838014070B5044679
:1028D0000801FDF7FEFC05461E486043FDF7F9FCC4
:1028E0002946FDF7ACFC0546FDF7F8FC84B220460E
:1028F000FDF7EFFC2946FDF79FFC0421FDF7DDFC09
:10290000FDF7ECFC4FF6FF7101EA04110A181248BA
:10291000816941F004018161C16941F40031C16103
:102920000E490B6823F47F430B600B6843F40B43A1
:102930000B60016941F400310161016921F400314A
:10294000016107480280001D018842F20C02114318
:10295000018070BD40420F0000100240000801409D
:102960000844004070B50E4C0020014641F2883208
:1029700023780C4D08E0401C904201D30020491CF4
:10298000914201D3012B07D02E88B606F3D5054816
:10299000001D0088C0B270BD0020207070BD000016
:1029A000180100200044004010B50C4603460022E8
:1029B00004E0985CFFF784FA521CD2B2A242F8D32A
:1029C00010BD1201000200000040830450570002B5
:1029D0000102030109022900010100C09609040057
:1029E000000203000000092110010001222100075C
:1029F00005820340000207050103400002058C091F
:102A000001A101090315002600FF75089540810208
:102A1000090415002600FF750895409102C00403C3
:102A200009041403530041004D00480045005200C2
:102A30004F00200020001803360030003000450011
:102A400058002D005200540000000000000000005B
:102A500041303031000000004D616B65546F6D6F87
:102A600072726F7742657374000000008C2A000850
:102A7000000000205003000036040008482D000824
:102A80005003002090090000D8200008011A141AF1
:102A900003361A300212451258122D1252021154E6
:102AA00013E30C14080D0D0C1008AF11041AE51CEB
:102AB000091218290463030113C2293308121AD416
:102AC0000832291AFD0832211AE608320913C90909
:102AD0001408D1081B08C5081AC70413DD071B0812
:102AE000B1101AA5041A45041A39041A8504413292
:102AF00040131E2A3308041A220832141A36082AF0
:102B000018CA211A200411297C1A89480916981A12
:102B1000A11C41599F111A58401A50048021249831
:102B2000B7A0CBDFE65DD14BF751A6019822083F55
:102B3000379FB6E65D1F3DB9DB9C4FF36FF0105336
:102B4000637C777BF26B6FC53001672BFED7AB766A
:102B5000CA82C97DFA5947F0ADD4A2AF9CA472C015
:102B6000B7FD9326363FF7CC34A5E5F171D8311582
:102B700004C723C31896059A071280E2EB27B275A3
:102B800009832C1A1B6E5AA0523BD6B329E32F841B
:102B900053D100FF00ED20FCB15B6ACBBE394A4C3B
:102BA00058CFD0EFAAFB434D338545F9027F503C07
:102BB0009FA851A3408F929D38F5BCB6DA2110FF33
:102BC000F3D2CD0C13EC5F974417C4A77E3D645D30
:102BD000197360814FDC222A908846EEB814DE5EBD
:102BE0000BDBE0323A0A4906245CC2D3AC62919511
:102BF000E479E7C8376D8DD54EA96C56F4EA657A4D
:102C0000AE08BA78252E1CA6B4C6E8DD741F4BBDED
:102C10008B8A703EB5664803F60E613557B986C19A
:102C20001D9EE1F8981169D98E949B1E87E9CE55B7
:102C300028DF8CA1890DBFE6426841992D0FB05461
:102C4000BB1652096AD53036A538BF40A39E81F322
:102C5000D7FB7CE339829B2FFF87348E4344C4DE4D
:102C6000E9CB547B9432A6C2233DEE4C950B42FA3D
:102C7000C34E082EA16628D924B2765BA2496D8B7B
:102C8000D12572F8F66486689816D4A45CCC5D658C
:102C9000B6926C1013704850FDEDB9DA5E154657C8
:102CA000A78D9D8490D8AB409D8CBCD30AF7E45887
:102CB00005B8B34506D02C1E8FCA3F0F02C1AFBD69
:102CC0000301138A6B3A9111414F67DCEA97F2CF07
:102CD000CEF0B4E67396AC7422E7AD3585E2F937F1
:102CE000E81C75DF6E47F11A711D29C5896FB7623F
:102CF0000EAA18BE1BFC563E4BC6D279209ADBC0EA
:102D0000FE78CD5AF41FDDA8338807C731B1121001
:102D1000592780EC5F60517FA919B54A0D2DE57ADE
:102D20009F93C99CEFA0E03B4DAE2AF5B0C8EBBB2A
:102D30003C83539961172B047EBA77D626E1691438
:082D40006355210C7D00000029
:0400000508000131BD
:00000001FF
