:020000040000FA
:100000000202C0022003FFFFFFFFFF02200BFFFFE1
:10001000FFFFFF022013FFFFFFFFFF02201BFFFF78
:10002000FFFFFF022023FFFFFFFFFF02202BFFFF48
:10003000FFFFFF022033FFFFFFFFFF02203BFFFF18
:10004000FFFFFF022043FFFFFFFFFF02204BFFFFE8
:10005000FFFFFF022053FFFFFFFFFF02205BFFFFB8
:10006000FFFFFF022063FFFFFFFFFF02206BFFFF88
:10007000FFFFFF022073FFFFFFFFFF02207BFFFF58
:10008000FFFFFF022083FFFFFFFFFF02208B576F60
:10009000726B466F72596F7572447265616D00497B
:1000A0006E697469616C0D0A0056657269666965EE
:1000B00064204572726F720053746172740D0A008D
:1000C00054324D3AA600890F8C0000000000000059
:1000D00004000000010002000100000078FFFFFFA3
:1000E000000002002518C582C0E0E51934FFC58371
:1000F000C0E0E518C3958224F910AF0885831985FF
:1001000082188008858319858218D2AFCEF0A3E5C6
:1001100020F0A37808E608F0A3DEFAEFF0A3E5816B
:1001200024FBF8E608F0A3E608F0A30808E608F0C8
:10013000A3E608F0A315811581D0E0FED0E0F81504
:10014000811581E8C0E0EEC0E022120312B900037D
:1001500002018CE4900101780979018002F0A3D8B2
:10016000FCD9FA900109AA82AB8390008E78577966
:10017000018015E493A3AC82AD838A828B83F0A3C4
:10018000AA82AB838C828D83D8E9D9E7120DF31252
:10019000030D851983851882E0A3FEE0A3F520787E
:1001A00008E0A3F608DFFAE0A3FFE0A3C0E0E0A3C5
:1001B000C0E0E0A3C0E0E0A3C0E010AF0885821873
:1001C0008583198008858218858319D2AFD083D0A2
:1001D0008222C008C3E096F50808A3E0964208080A
:1001E000A3E096420808A3E09645087001D3D00822
:1001F000222518F58210AF08F5184002151980085D
:10020000F51840021519D2AF85198322C0D02518E0
:1002100010AF08F518500205198008F518500205AE
:1002200019D2AFD0D0226016080808C6C313C6186A
:10023000C613C618C613C618C613C6D5E0EA2225CB
:100240001810AF08F518400215198008F51840027B
:100250001519D2AF22E066701008A3E066700A0894
:10026000A3E066700408A3E06622700422600D1803
:10027000C6C333C608C633C6D5E0F41822E026F656
:1002800008A3E036F608A3E036F608A3E036F62227
:1002900074028000C0E0F4041201F1D0E01202DE2A
:1002A00022C3E09608A3E09608A3E09608A3E09690
:1002B00022E0F608A3E0F608A3E0F608A3E0F622A1
:1002C00075D00075814075180175190102014A60E9
:1002D0000C08C6C313C618C613C6D5E0F422CAC09C
:1002E000E0E6F0A308DAFAD0E0FA22EAF0A3EBF0B5
:1002F000A3ECF0A3EDF022E0FAA3E0FBA3E0FCA363
:10030000E0FD222518F582E43519F583220000006E
:1003100080FB790122FFFFFFFFFFFFFFFFFFFFFFD1
:10032000FFFFFFFFFFFFFFFFFFFFFFFFFFFFFFFFDD
:10033000FFFFFFFFFFFFFFFFFFFFFFFFFFFFFFFFCD
:10034000FFFFFFFFFFFFFFFFFFFFFFFFFFFFFFFFBD
:10035000FFFFFFFFFFFFFFFFFFFFFFFFFFFFFFFFAD
:1007E000FFFFFFC082C08343C708906270E0D2E180
:1007F000F0E0A2E740FB53C7F7D083D0822274F524
:100800001200E48908740B120303E0FEA3E0FF74F6
:100810000F5508F50A750B00740B780A12026AEA84
:100820002400F8EB3480F9E82400E9350BF9E5C73A
:10083000F509E508C4540FFAE5C754F84AF5C7802E
:100840001C88828983E08C828D83F088828983A3CF
:10085000A882A9838C828D83A3AC82AD83EEFAEF4C
:10086000FBEA24FF1EEB34FFFFEA4B70D48509C777
:100870007F0402019274F71200E47409120303E08A
:10088000F508A3E0F509ED900101F0ECA3F0A374E5
:1008900062F0A37473F0A3E0541FF0E508333354FF
:1008A000FCA3F0740678081202CFE508900105F069
:1008B0009001077412F0A37442F053D1FE75D60173
:1008C000EA906271F0EBA3F01207E37F020201925B
:1008D000C082C083E9C333906272F0906270E0D24C
:1008E000E0F08043C082C083801D198A828B83E040
:1008F0008C828D83F08A828B83A3AA82AB838C82C5
:100900008D83A3AC82AD83E970E0801B89C1A2E92D
:1009100050FCC2E922C082C0838A828B8380041289
:10092000090CA3E0F970F8D083D08222C082C08382
:1009300079007800A28B401B0974FC697003790070
:100940000874FC6870EE900101E0640170E6E4F068
:10095000F98004C28BA9C180CE74F71200E4900123
:1009600001E4F012092CE9647E600479008062746D
:1009700001F012092CE9900110F09001641209DBDA
:1009800060E9E89001111209D860E0E890011212C4
:1009900009D860D7E89001131209EAF07E008019A7
:1009A0001209D460C68E0874142508F582740134C7
:1009B00000F583E81209EAF00E900113E0F8EEC3A7
:1009C0009840DD1209D460A3900164E068709C79BE
:1009D000010208CB1209E0221209EAF01209E02212
:1009E00012092CE9F8900101E022F0900164E0285E
:1009F0002274F71200E4797E12090C900110E09045
:100A00000164F0F912090C900111120A66900111AB
:100A1000120A5C900112120A5C900113120A567EAF
:100A20000080208E0874142508F874013400F988B9
:100A3000828983E0FA900164E02AF0888289831237
:100A40000A560E900113E0F8EEC39840D690016468
:100A5000120A560208CBE0F912090C22E0F9120939
:100A60000CA3120A6622E0F8900164E028F02274D8
:100A7000EF1200E4890E7411120303E0F8A3E0F909
:100A8000E8FEE9FF8C088D09740478081202CF850E
:100A9000080A85090BEC540F600CE50A2401F50ADD
:100AA000E50B3400F50BE50E600AE5B354F844029B
:100AB000F5B3800353B3F8E5B35470F50F75080030
:100AC0007509008047E4F5B10511E511C3941040A4
:100AD00075750C0F850C1074FF2510F50C0470F45F
:100AE000751100E5B2C0E0120B68EE250CF582EF3F
:100AF000350DF583D0E0F00511E511C3941040E306
:100B0000E5082401F508E5093400F509C3E5089571
:100B10000AE509950B504C43B30185080C85090D76
:100B20007404780C12026AA80CA90D7410650F6089
:100B3000CF7420650F60C97430650F60C374506551
:100B40000F60BD751100120B68C3E50C9CE50D9D8F
:100B50004003020AC5EA250CF582EB350DF583E06A
:100B6000020AC67F0A02019285110CE8250CF50CD9
:100B7000E93400F50D2274F11200E474F012023F22
:100B80007E007F0875080C8E0978081202907406A2
:100B9000120303858208858309780812029079017F
:100BA0009001431202F7120D5212020C9001477885
:100BB0000C1202B18032D2917508017509007808D3
:100BC0001202907402120303AC82AD83EEFAEFFBC3
:100BD000120875740212020CEE24010EEF3400FFAD
:100BE00090014B780C12027D7406120303780C12EC
:100BF00001D2404675080475090078081202907405
:100C0000021203038582088583097808120290790D
:100C100001120D4A12020CEEF8EF5401F9E8497086
:100C2000978E088F09740978081202CFA908120854
:100C3000D0A2915081C291020BB8C29174101202DD
:100C40000C7F0802019274F11200E474F312023F67
:100C50007E007F0075080C8E0978081202907403DC
:100C600012030385820885830978081202907900AF
:100C70009001431202F7120D5212020C7403120378
:100C800003C082C08390014F78081202B1D083D094
:100C90008278081202A140077A007B00020D45907D
:100CA0000147780C1202B1800AD280900153780C6F
:100CB00012027D7403120303780C1201D24068857E
:100CC0000C08850D09850E0A850F0B9001577808D1
:100CD00012027D90014B78081201D2503275080142
:100CE00075090078081202907402120303858208C5
:100CF00085830978081202907900120D4A12020CBD
:100D0000851882851983E0F9EEFAEFFB120D5885FC
:100D10000C08850D09E5095407F9E50849708CA20E
:100D2000805086C28080847900EEFAEFFB120D6459
:100D30007900120D58EFF912090CEEF912090CD2D4
:100D400080EEFAEFFB740D020C3EAA0CAB0DAC0E5C
:100D5000AD0F120DA0740422120D648A088B09AE27
:100D600008AF0922C008C0097C088A088B09740FE3
:100D700078081202CFEAC333FAEB33FBE9A2E7505B
:100D80000474014AFAE508A2E0500874216AFA7472
:100D9000106BFBE9C333F91CEC70CFD009D00822EB
:100DA00074F31200E48A088B098C0A8D0B740D12FF
:100DB0000303E0FCA3E0FD740F120303E0F50CA3B2
:100DC000E0F50D90015B780812027D780C1202901C
:100DD00085080C85090DAA0CE50D5407FB740B78EA
:100DE00008120226A9081207FE740212020C7F06DE
:100DF00002019274EC12023F7E007F0853BEFBE5B5
:100E00009DA2E650FA0078F8790100E824FF18E97D
:100E100034FFF9E84970F375C6807480659E70FAF6
:100E200043BE04906270EFF043FE0243FD01740183
:100E3000F5D575D40175081D8E0978081202907CCD
:100E4000E37D077AE37B0779001207FE7402120242
:100E50000C53F3CF53FDDF43FD1043FD80C284D21A
:100E60009753F1FE43F30C43868075C50B75C2D8CA
:100E7000C2E9438640C28B53B38F43B340D280C292
:100E800091E5B354F84404F5B343B30178008808FE
:100E900074092508F58274013400F583E0F5B10882
:100EA000E8C3941040E875081078081202907406A0
:100EB000120303AC82AD837AF07B0779031207FE3D
:100EC000740212020C858208858309780812029048
:100ED00079017C107D007406120303AA82AB831291
:100EE0000A6F740212020CC082C08390013B780822
:100EF0001202B1D083D08278081202556003020F2B
:100F0000E87A1A7B0112091590013F1202F7740466
:100F10001203031202EB7908E9120303AC82AD83DA
:100F20007A0C7B781208E474041203038582088526
:100F30008309780812029079007C107D00740612F3
:100F40000303AA82AB83120A6F740212020C7903A4
:100F50001208D07508048E097808120290740612DF
:100F60000303AC82AD837AFC7B071208757402120E
:100F7000020CA28540030210FA7508048E09780855
:100F80001202907402120303AC82AD837A887B0054
:100F900079401207FE740212020C7402120303E07D
:100FA000FEA3E0FF851882851983E06E7003A3E03D
:100FB0006F7003021154EFF912090CEEF912090CCB
:100FC000120C467402120303E0F8A3E0F9EA687019
:100FD00002EB696003021127120B767402120303FD
:100FE000E0F8A3E0F90211277404120303C082C0E1
:100FF0008390013F78081202B1D083D08278081222
:101000000255707879087410120303AC82AD837AAC
:101010000C7B781208E48F0A8E0BEF120303AA826E
:10102000AB837410120303A882A983AC0AAD0BEC46
:1010300024FFF50AED34FFF50BEC4D6035EAFCEBCF
:10104000FD8C828D83A3AA82AB83880889098508D9
:1010500082850983A3A882A9838C828D83E0FC8585
:101060000882850983E06C60C27A247B011209152D
:1010700080FE7A337B01120915020F727A247B01FC
:1010800012091580FE75081475090178081202907E
:1010900079017C107D007A147B01120A6F740212B0
:1010A000020CEEF8EF5401F9E84970108E088F0930
:1010B000740978081202CFA9081208D0900113E031
:1010C0001313543FF50875090078081202907C1438
:1010D0007D01EEFAEFFB120875740212020C90010A
:1010E00013E01313543FF8EE28FEEF3400FFA3E49F
:1010F000F09001137402F01209F1120959E960FA33
:10110000900100E4F0900102F0900111E024BF7022
:10111000030210851470E39001147455F0A3E4F0F9
:10112000900113740380CF851882851983E8F0A39A
:10113000E9F079401208D07508017808120290741D
:1011400002120303AC82AD837A227B80120875748D
:101150000212020CC280C291022000741412020C0E
:1011600022FFFFFFFFFFFFFFFFFFFFFFFFFFFFFF6C
:10117000FFFFFFFFFFFFFFFFFFFFFFFFFFFFFFFF7F
:10118000FFFFFFFFFFFFFFFFFFFFFFFFFFFFFFFF6F
:10119000FFFFFFFFFFFFFFFFFFFFFFFFFFFFFFFF5F
:1011A000FFFFFFFFFFFFFFFFFFFFFFFFFFFFFFFF4F
:04000005000002C035
:00000001FF
