:020000040800F2
:10500000183500200D5100081151000813510008F7
:105010001551000817510008195100080000000040
:105020000000000000000000000000001B5100080C
:105030001D51000800000000DB8C010859BE00086B
:105040002351000823510008235100082351000870
:105050002351000823510008D9D40008DD9C000822
:105060002351000823510008DFBF00082351000826
:105070002351000823510008235100082351000840
:105080002351000823510008235100082351000830
:10509000235100082351000823510008B3EB0008F6
:1050A0002351000823510008235100082351000810
:1050B0002351000893150108D71301082351000854
:1050C000235100082351000823510008250F01082F
:1050D000235100082351000835D900082351000846
:1050E000EF5D00082351000823510008DFF80CD0C1
:1050F00015F09CFB0048004761BD000818350020F2
:1051000030BF72B662B680F3088870470548004722
:10511000FEE7FEE7FEE7FEE7FEE7FEE7FEE7FEE767
:10512000FEE7FEE7ED50000810B52D21F84815F018
:10513000D2F8F74800210C3800F83C1F417210BD2E
:1051400010B519441044C9B2039CC0B2022903D956
:10515000401CC91EC0B2C9B2072801D307200021D4
:1051600000EB40000844EB4931F8100000012060DA
:10517000002010BDE8490978002901D107F0C7BC1B
:10518000704770B505464FF07E500024E34E04E0B2
:10519000314615F003F9641CE4B2AC42F8D370BD9B
:1051A0000020401CC0B20228FBD37047DC4800B589
:1051B000016821F00F010160016841F00301016005
:1051C000D8490022C1F8842101F5C071FFF7E8FF3A
:1051D0000A60FFF7E5FF01224A60FFF7E1FF0A607E
:1051E00000BDCF4800B5016821F00F0101600168E2
:1051F00041F008010160CA480C30016841F001012A
:105200000160C8490120C1F8840101F5C071FFF7B0
:10521000C7FF08680022C0B24A6000BD034630B52F
:10522000BF48016821F00F010160016841F00301EE
:1052300001600022BB4914465FF00105C1F88441BA
:10524000FFF7AEFF180602D5C1F8805101E0C1F8A2
:105250008041FFF7A5FFC1F88451FFF7A1FF580671
:10526000030EFFF79DFF521CD2B2082AE6D3C1F805
:105270008441C1F88041BDE83040B2E7CEE7A8489C
:1052800000B5016821F00F010160016841F00301E0
:105290000160A4490120C1F88001C1F8840101F531
:1052A000C071FFF77DFFFFF77BFF002008604860BB
:1052B000FFF776FF002000BD10B50446FFF7DFFFC3
:1052C000C420FFF7ABFFC4F30330FFF7A7FFC4F31D
:1052D0000710FFF7A3FFBDE8104067E72DE9F0478F
:1052E000904D012689460446C5F8AC610027C5F8F3
:1052F000A8718D4890F87D10A52917D190F97E00EE
:10530000092820DD0938C0B2FFF73BFF804620683E
:1053100015F070F9414615F041F815F070F920606C
:10532000B0F5803F02D34FF6FF7020602068FFF792
:10533000C3FFC5F8B0711FFA89F0FFF71BFFC5F86E
:10534000B061BDE8F087C0F10900C0B2FFF719FFF6
:105350008046206815F04EF9414615F051F815F0D9
:105360004EF9E2E770B56A4C00250C3CFF206571F0
:1053700084F8440005206D4984F846000620087230
:1053800084F84A502D2162482B3414F0A4FF657430
:10539000A5760CF0DBF8BDE87040482140F25230B1
:1053A0000CF089B870B55A4CFF200C3C5F4984F86A
:1053B00044000025657106200872052084F8460027
:1053C00084F84A502D2152482B3414F084FF657420
:1053D000A5760CF0BBF8BDE87040482140F2523091
:1053E0000CF069B870B54A4C0C3C0121627992B15D
:1053F0000025474B012A10D0022A36D04C48062AF5
:1054000057D0072A08D1017009214170BDE87040CA
:10541000022013F077B8617170BDA0F1610602221D
:105420002D2E02D284F8445015E0A0F18F06272ECD
:1054300002D284F844100EE0A0F1B701312902D263
:1054400084F8442007E0E938432801D2032000E033
:10545000FF2084F8440062712D21184614F03BFFB0
:1054600084F83C5084F8455070BD64223230B0FB63
:10547000F2F010F0FF0019D094F8452002442448BF
:105480000C38082A90F83C0005D9401C84F83C00F0
:1054900084F8455006E084F84520C55C521E9140D2
:1054A0000D43C55494F83C002D28DDD3BDE8704071
:1054B00078E701700821A8E7F0B50D780123EE0820
:1054C00005F00704A71893405B1E082F03D2805DE8
:1054D000E040184004E030440088E0400340D8B287
:1054E0002A440A70F0BD10B50A78D30802F007020A
:1054F00006E0521CD2B2082A02D35B1CDBB20022A7
:10550000C45CD440E407F4D042EAC300087010BD84
:10551000E406002022A90108A8000020295C8F3F92
:105520000018014000002342C81000208411002010
:105530006411002010B50346002004E01C5C944276
:10554000E5D0401CC0B28842F8D3E0E710B5032391
:10555000B2FBF3F40470D21CB2FBF3F003FB102097
:105560000870D4E7142801D2401C704700EB80017A
:105570001A2802D24B3988B27047292804D26FF01A
:10558000C70000EB410007E000EBC00101EB001099
:105590004FF6F80101EB400080B2704714280AD39F
:1055A000014600EB81001A2901D2503802E02E2179
:1055B00001EB4000C0B2704770B500240325F84BE2
:1055C000F84A072619B1702814D8147010E078280A
:1055D00002D2FE2010700BE0C9281DD27838C0B26C
:1055E000B0FBF5F0B0FBF5F1891E0BE0167070BD55
:1055F0001C7070BDAF280FD27038C0B2B0FBF5F090
:10560000B0FBF5F1B0FBF5F449B205FB14001170E5
:1056100018700729EADC70BD1670E9E7E2484079A6
:10562000072800D09EE6E148012101700921417060
:10563000022012F067BF2DE9F047DA480025072164
:105640000570D748DB4C01230570D748D84ADFF8EE
:10565000689380F85150417190F80D8021884FF483
:10566000167641F40041B8F1B00F0CD04F464FF41C
:10567000966C7F68B8F1B40F09D0B8F1B50F14D0AB
:10568000BDE8F0478EE680F84A3016600BE03F78C0
:10569000002FF8D0012F02D0FFF764FE13E080F84E
:1056A0004A30C2F800C021800DE03F7827B1012FB9
:1056B00004D0022F0DD004E0166001E0C2F800C053
:1056C000218080F84A30BD4889F80850007818B128
:1056D00004E04FF4E166EFE7B9480570208840F038
:1056E000010020802DE638B5B64C0146206813F045
:1056F000A0F86946206813F093F938BD2DE9F04110
:10570000AD4DA94C01202872217B00220F2904D025
:1057100001F00F01072903D048E084F8512001E08F
:1057200084F85100617B072601F0070CC908BCF121
:10573000010F0BD09C4B9B7BDF089F4BBCF1030FF1
:105740005B6805D0BCF1050F30D116E020700AE08F
:105750004FF0030C84F800C01B7823B1012B04D058
:10576000022B06D01AE0617000E0677084F84A00EE
:1057700014E0627084F84A2010E084F84A00267031
:10578000187820B1012804D0022804D006E0617006
:1057900004E0677002E0E07BC00860706278162168
:1057A0008948FFF7C7FE0246162802D3BDE8F0413C
:1057B000F8E5E11CA01CFFF7C9FE7D496671642075
:1057C00008607C487D4A018841F4004101801278DC
:1057D00012B97B4B2A7A1A7041F001010180BDE8B1
:1057E000F08170B5704C607B00F03F00FFF7BAFEAF
:1057F000A4F84C00C82837D8B4F80D00C0F38410C2
:10580000FFF7CCFE84F84E0064282DD8217B0120C0
:10581000694D9F2904D0AF2904D0BF2910D023E0BF
:10582000A17B16E0696809780029F9D0012902D026
:10583000022902D011E0E17B0BE0002060700AE059
:10584000696809780029EBD00129F4D002290ED02B
:1058500003E0C908617084F84A00627816215A484A
:10586000FFF768FE0F2804D9BDE870409AE5217C57
:10587000EFE70321B0FBF1F084F84F004F4902201D
:105880002872097809B94E490870494964200722ED
:10589000086048480188627141F4004141F001010B
:1058A000018070BDBAE62DE9F0413F4C012500268C
:1058B000207B4FF0070C00F00F010320091F0B297C
:1058C00026D2DFE801F00F1122252525252506081F
:1058D0000C00257000E0207084F8516007E084F827
:1058E00000C0F9E7257000E0207084F85150DFF81F
:1058F000C880364FD8F8040001782B48407B89B126
:10590000012908D0022921D112E084F800C0ECE777
:10591000BDE8F04146E52178012903D094F8511003
:10592000A07B0DE094F85110FFF746FE607B0AE083
:1059300021780129F6D003290ED094F85110E07B8C
:10594000FFF73AFEA07B387084F84A501B4888F86D
:105950000860007818B104E084F84A60F6E7184857
:105960000670144884F805C0018841F001010180E7
:1059700035E7F0B40C4810490B24067B4B680B4A02
:1059800006250121302E23D0457106F00F05012D8B
:1059900025D0022D25D0032D26D0F0BC02E5000035
:1059A000A1000020A0000020D806002064110020E3
:1059B00004000020060300208411002017000020AE
:1059C000C8100020D800002018AD0108E80200200F
:1059D00080F84A101B7880F8463045710EE00025AB
:1059E00003E080F8461002E0022580F846501B785C
:1059F00090F84650AB4207D180F84A1054701170AD
:105A0000F0BC022012F07EBDF0BC70471D4810F8BB
:105A10003C1F491C01700021417210F8300C00F04D
:105A20000F01102920D2DFE801F01A1A1A1A1919E9
:105A300019181F1F1F1F1919190800F0F000A028BE
:105A400009D003DC48B190280ED104E0B02802D080
:105A5000E02809D100E0C4E6EDE54FE623E70321A5
:105A6000B1EB101F00D184E79CE4072807DCC01CC1
:105A700000EB40000844044931F81000704741F23F
:105A800087507047D8060020E4A801080CF040B801
:105A90001023362200210846F8E77CB5724800251D
:105AA000724C0068724E4079012821D07148CDE9CE
:105AB000000510230922052100200CF01FF91023F6
:105AC0000B220F210020CDE900450CF017F910231F
:105AD0000B221B210020CDE900450CF00FF910230B
:105AE00009222721CDE9006500200CF007F97CBDD3
:105AF00010230B220A210020CDE900450CF0FEF80E
:105B000010230B2216210020CDE900450CF0F6F8F9
:105B1000102309222221E5E71CB500215648CDE9D2
:105B2000000110230F22132100200CF0E7F81CBD08
:105B30001CB500245048CDE9000410230F22022197
:105B400020460CF0DBF84D48CDE9000410230B2271
:105B5000122100200CF0D2F84948CDE900041023AE
:105B600012221E2100200CF0C9F84648CDE900049D
:105B700010230322312100200CF0C0F81CBD1CB5FD
:105B800000244148CDE9000410230C2211212046B5
:105B90000CF0B4F83D48CDE90004102309221F2180
:105BA00000200CF0ABF81CBD1CB500243148CDE939
:105BB000000410230922022120460CF09FF83448EB
:105BC000CDE90004102309220C2100200CF096F8E6
:105BD0003048CDE9000410230722162100200CF0E4
:105BE0008DF82D48CDE90004082303221E21012051
:105BF0000CF084F82948CDE9000410231122222159
:105C000000200CF07BF81CBD1CB500241948CDE920
:105C1000000410230922022120460CF06FF81C48D2
:105C2000CDE90004102309220C2100200CF066F8B5
:105C30001848CDE9000410230722162100200CF09B
:105C40005DF81548CDE90004082303221E21012038
:105C50000CF054F80848CDE9000410230F2223214A
:105C600000200CF04BF81CBDD002002050BB0108F6
:105C700066BB01083EBB01085FBC010883BC01088C
:105C800078BB01087DBC010899BC0108B1BC0108C2
:105C90009CBB0108AEBB0108BCBB01082BBC0108C2
:105CA0007C48816941F0100181617B490A686FF38A
:105CB0000B020A60816941F400718161C16841F49D
:105CC0000071C160C16821F40071C160416821F4B4
:105CD00040414160416841F4004141606F480168C2
:105CE0006F4A1140016001680160016821F4807110
:105CF0000160001D016821F002010160016821F4CA
:105D000060210160016841F460210160016841F493
:105D100080110160016821F4006101605F49283150
:105D20000A6822F470020A600A6800220A60011DF3
:105D30000A6842F007020A600A6842F038020A6004
:105D4000016841F001010160564A012111700168AA
:105D500041F00801016001680907FCD4016841F0C5
:105D60000401016001684907FCD470474D490120D6
:105D7000087095E74B49002008704848001F13F051
:105D80007FB846483030016821F01F01016001688A
:105D900041F00A0101604148001D016841F48001A1
:105DA00001603E48001F01688907FCD53B48483028
:105DB0000068C0F30F10704738483030016821F098
:105DC0001F010160016841F0080101603348001DB6
:105DD000016841F4800101603048001F01688907B3
:105DE000FCD52E4848300068C0F30710704770B5E6
:105DF0004FF40056304613F039FA00252A4C01289A
:105E000011D0B600304613F031FA01280DD0274CDE
:105E1000274901222078022380B1264E012819D07B
:105E200002281CD01EE00D2000E00F2007F03BF8F8
:105E300025703046BDE8704013F026BAD1F82C0129
:105E400030B1237002220A21012006F0E8FF12E09F
:105E50002270F7E7D1F82C0120B1337011E0D1F8AE
:105E60002C0168B101220A21104606F0D8FF0A2051
:105E700007F011F8257010494FF48060086070BD7C
:105E8000327001220A21104606F0C9FF0A2007F0ED
:105E90000AF8EFE70010024000100140042401401E
:105EA000FFFFF000A4000020AD0000200C00002047
:105EB000008021421600002014040140B0F5C05FAC
:105EC00006D2C0B2182801D20020704710207047B7
:105ED00002207047B0F5C05F01D2C0B270474FF4E6
:105EE000807141EA1020704770B5F94DD5F8040172
:105EF000F84C10B10120207208E00022282311463E
:105F0000104612F0C4FBD5F8040108B1002070BDA2
:105F1000207A0028FBD0002020720C2070BD70B5C4
:105F2000FFF72FFFFFF7CAFFEA4C002560B30022FE
:105F300014231146104612F0AAFBFFF722FF064673
:105F4000FFF7BCFF002828D000220A231146104684
:105F500012F09DFBFFF715FF0346FFF7AFFF002888
:105F60001BD03046FFF7B6FF02461846FFF7B2FFD8
:105F7000411D8A4273D8401F824270D3A2F1F600BD
:105F80000F282CD206205DE0607A38B1A07A10B1DB
:105F9000A572657263E06572E07A70BDFFF7A4FFD9
:105FA000A8B96562CC486572A5720178012908D14B
:105FB00002210170C948006890F9020038B1022836
:105FC00005D0A079012804D0022805D047E00C2094
:105FD00070BDA571072070BDA571092070BDA2F12B
:105FE000CA000F2801D201202CE0A2F1A6000F2840
:105FF00005D2A92A01D20A2024E0022022E0A2F13F
:1060000085000F2801D203201CE0A2F15F000F28B9
:1060100001D2042016E0A2F13E000F2801D2052093
:1060200010E0A2F2F7100F2801D207200AE0A2F137
:1060300019000F2801D2082004E0A2F5D4720F2A1B
:106040000DD20920626A521C6262637A012123B177
:10605000142A04D9A27A22B101E06172E072002010
:1060600070BDA172657240F0100070BD70B528213E
:106070009B4814F030F99B490020994D08709A49CB
:106080000A5C2A54401CC0B22828F9D397484FF024
:1060900010034FF014020068007860B11F21022045
:1060A0000BF0ECFB0024285D0BF0D5FB641CE4B284
:1060B000282CF8D370BD26210320F1E770B51A21F2
:1060C000874814F008F987490020854D08708849F1
:1060D0000A5C2A54401CC0B21A28F9D383484FF0F6
:1060E00010034FF00D020068007860B153210220C8
:1060F0000BF0C4FB0024285D0BF0ADFB641CE4B284
:106100001A2CF8D370BD5A210320F1E72DE9FE4F78
:106110000646784891469A4690F900306F4A0F46F5
:10612000A6EB09004FF0000841B2A7EB0A00126885
:106130004546444640B223B1012B07D0022B15D16E
:106140000EE092F90420002A07DC03E092F9042013
:10615000002A02DD35463C4608E00D46044605E0CF
:1061600006EB090045B207EB0A0044B2624800782A
:1061700058B1002C03DA6D1E6DB2A41C10E0022C85
:106180000FDD6D1C6DB2A41E0AE0002C03DA6D1E3B
:106190006DB2E41C04E0022C03DD6D1C6DB2E41E44
:1061A00064B294214E4814F096F84E490020DFF86E
:1061B00030B108700D9802282BD0014646EA07003E
:1061C00002900E295DD00C99084309D000214A2085
:1061D000CDE900015B461022142143480DF0F9FF80
:1061E000404E30781430C0B23070002D6EDA0BEBB8
:1061F000000100234A222D200FF01EFE002C66D045
:106200003D486FEA0505007800287BD0C4F1020004
:10621000ADE0344C152032492070153100234A225C
:1062200025200FF009FE207814210830C0B220701C
:1062300000915D465844FE237F224A2110F005FD5F
:106240002D48007818B10AEB49012C4803E009EB0E
:1062500049012B48514400EB810120780122284458
:1062600010F0FFFC207800221630C0B220704A21C6
:10627000CDE900122B1810220D211D480DF0A9FFA9
:10628000BAE000214A20CDE900015C46154D5B468D
:106290001022142114480DF09CFF28781430C0B24D
:1062A0002870029979B3002E04EB00014FF000032F
:1062B0004FF04A0234DA2D200FF0BEFD4FB30E48E6
:1062C000F643007840B3C7F1020027E051E049E00F
:1062D0000000214210000020F7020020D002002020
:1062E000341300201E030020FBBC0108080300201B
:1062F00023BD01082C070020A700002070D701084B
:106300004AD5010831E0FFE7211800234A22252061
:1063100007E0704246B206E0C7F1030047B202E070
:106320002B200FF089FD287814210830C0B2287086
:1063300000912044FE237F224A2110F086FCFC4875
:10634000007818B107EB4601FA4803E006EB460077
:10635000C119F948012200EB81012878204410F08E
:1063600080FC49E0684245B20DE0C4F1030044B24C
:1063700009E055EA040106D00BEB000100234A2294
:106380002B200FF059FD307845EA0401C01DC0B242
:1063900049EA0A073070394310D0E549097819B144
:1063A00004EB4502E34903E005EB45010A19E24924
:1063B000584401EB8201002210F053FC3078183071
:1063C000C0B23070C7B100224A21CDE900120BEBF8
:1063D00000035C4610220D21D8480DF0FAFE3078FB
:1063E00000230F30C0B230702118D5484A220078FF
:1063F0003130C0B20FF020FDD24800680078C0B143
:10640000062816D0052814D010234A221F21022066
:106410000BF034FA4FEA0B0414F808000BF01BFAE7
:1064200008F1010000F0FF08B8F1940FF4D3BDE8C3
:10643000FE8F10234A2225210320E9E710B588B0FA
:106440000023CDE90632C04CCDE9044303221623D4
:10645000CDE90030CDE90212582301222221042087
:106460000EF0EDFB08B010BD1CB50022CDE9001206
:10647000034601222421032010F037FA1CBD38B551
:106480000C46054601220421B04813F01DFFAF4819
:1064900080220421001D13F017FF10200090042318
:1064A000AA4AA11C28460BF01FFB38BD38B50C4684
:1064B00005461221A54813F00EFF00230922A34927
:1064C000482010F009F8A14900230922891D7A20EB
:1064D00010F002F81020009009239C4A214628461B
:1064E0000BF002FB38BD2DE9FF4F81B01E001546B1
:1064F0008B464FF064044FF0000711D0FF2230218B
:10650000924813F0E1FEDFF848C20120DFF844A210
:106510008CF800008D484FF00A0835B1E14634E0B0
:1065200030218A4813F0D7FEEDE7EEB19CF8005019
:106530000021D14609EB010313F8842FD7434A19F0
:10654000491C87549B790244DB43C9B21376062960
:10655000F0D300BFB4FBF8F49CF8001008318CF8BD
:106560000010002CE1D147E09CF80010794B014469
:1065700003F1800253F8845F0D609B888B80D2F812
:106580000A308B61D2898A83E4E795FBF4F1002914
:1065900000DC27B39EB399F800300021524600BFBB
:1065A00095FBF4F707EB470701EB8707D75D6FEA29
:1065B000070CCF1800F807C095FBF4FC0CEB4C0C53
:1065C00001EB8C0C944407449CF806C0491C6FEA0C
:1065D0000C0CC9B287F818C00629E1D3012795FB36
:1065E000F4F104FB1155B4FBF8F499F800200832DB
:1065F00089F80020002CC8D1012E1AD027E0FFE72F
:1066000095FBF4F101EB41010AEB810399F80010CD
:106610001F6801440F609B888B8095FBF4F303EBAC
:1066200043030AEB8302D2F806308B6152898A83D6
:10663000D4E70021425C02F03F0242544218491C58
:10664000137EC9B203F0FC0313761829F2D310208D
:10665000009018233D4A594601980BF045FA05B0C1
:10666000BDE8F08F70B514460D46C82900D1C72586
:10667000344909680978E1B106291AD0052918D0EA
:10668000082C31D00023024624210220FFF72BFFE3
:106690003C210220FFF7F3FE092C27D000232A46D5
:1066A00044210220FFF71FFF5D210220BDE870405A
:1066B000FCE6082C14D00023024624210320FFF717
:1066C00012FF3C210320FFF7DAFE092C0AD0002339
:1066D0002A4644210320FFF706FF5D210320E5E75A
:1066E0000123E9E70123F3E70123CCE70123D6E700
:1066F00070B588B014460D46174E0793022101224B
:106700000496CDE90521032100221623CDE90030AE
:10671000CDE9022158230222222105200EF08FFA12
:106720000E482146427808B02846BDE8704099E7F7
:10673000A700002070D701084AD5010823BD010831
:106740002C07002008030020C8D7010834130020BC
:106750001E0300207DD00108CFD7010810000020C3
:106760001CB50A46F7490968097849B1062907D0D6
:10677000052905D0037802246D21012B03D004E004
:106780000324812101E00023037090F9000060B12F
:10679000012812D0022807D1EB48CDE900021023CE
:1067A0000E2220460BF07EF91CBD02B020461023BD
:1067B000BDE810400E220BF0ABB9E448EDE72DE93F
:1067C000F04F4FF0000A8FB0574654465546564694
:1067D000FFF763F9DE480078002877D1DFF874838B
:1067E000D8F8000090F9021009B9C2781AB10D4624
:1067F00090F9036008E0D84890F9191009B9827E31
:1068000012B190F91A600D46CE48DFF84CB3D34967
:106810000068DFF84C93ABF15C0B00780291032821
:1068200025D001287CD000286FD002286ED0042803
:106830006DD006286CD0052848D1484640780128FC
:1068400067D000210298FFF78BFFC6480078002828
:106850007DD0C5480B906421204661F307006F216D
:1068600061F30F20814606200127029013E2BF4802
:10687000CDE9000408232A22532104200BF012F949
:1068800099F801004F46012808D000210298FFF72F
:1068900067FF7878354303D0012102E00121F5E755
:1068A0000021CDE90010D8F800009BF902309BF9D7
:1068B000012090F9031090F90200FFF727FC787887
:1068C000042804D00021052824D001E075E001212E
:1068D0005FF0000241EA42010E281DD05FF0000087
:1068E00041EA80039D489C4A5C380178B8780EF0F4
:1068F0006EFE00947878072810D0002396484068F0
:106900000078401CC2B254E00AE05EE0B7E0E7E085
:1069100036E1B0E10122DDE70120E1E70123EDE707
:106920009248CDE9000408232A22532104200BF0C9
:10693000B9F899F801004F46012809D000210298C2
:10694000FFF70EFF7878354304D0012103E094E18E
:106950000121F4E70021CDE90010D8F800009BF9EF
:1069600002309BF9012090F9031090F90200FFF723
:10697000CDFB7878042803D0002105281FD000E043
:106980000121002241EA42010E281AD05FF00000E6
:1069900041EA80037148704A5C380178B8780EF09B
:1069A00016FE0094787807280DD000237048006800
:1069B00002788E2102200FF06AFA0FB050E6012211
:1069C000E0E70120E4E70123F0E76548407801288B
:1069D00012D000210298FFF7C3FE6248007868B128
:1069E000652060F307046F2060F30F240620DFF8B2
:1069F0007891012702900DE00121EBE7642060F31C
:106A000007043E2060F30F24DFF8689104204FF064
:106A1000010A02905248417855EA060000D0012050
:106A2000CDE90001D8F800009BF902309BF9012064
:106A300090F9031090F90200FFF768FB029813F039
:106A4000D9FD474949780E2917D000230122CDE905
:106A500007020221CDE9091356200299CDE905105C
:106A60000DF10808002388E87000CDE9007952464E
:106A7000252105200EF0BFFA9FE70123E6E73E48F7
:106A8000CDE9000408232922542104200BF00AF840
:106A900099F801000023CDE90040D8F800004D46E8
:106AA0001A4690F9031090F90200FFF72FFB0094AB
:106AB0006878072810D000232D488E2100680278BE
:106AC00002200FF0E4F968780E2807D000200FB0FC
:106AD000BDE8F04F10F070B80123EDE70120F6E7B4
:106AE0002548CDE9000408232922542104200AF076
:106AF000D9FF99F801000023CDE90040D8F8000043
:106B00004D461A4690F9031090F90200FFF7FEFA7D
:106B100000946878072812D000230F488E2140681F
:106B20000078401CC2B202200FF0B1F968780E283C
:106B300024D000200FB0BDE8F04F0FF0F2BF0123CA
:106B4000EBE7000008030020DFBC0108C3BC01081C
:106B5000FB020020CC000020880700202411002028
:106B600010000020A7000020B9D70108C0BA010812
:106B7000BC000020A4D70108EABA01080120D9E727
:106B8000FA484078012814D000210298FFF7E8FD68
:106B9000F748007878B1F7480B906421204661F3FC
:106BA00007006F2161F30F20814606200127029024
:106BB0000FE00121E9E7F0480B906421204661F3E2
:106BC00007006F2161F30F20814604204FF0010A76
:106BD0000290E648417855EA060000D00120CDE950
:106BE0000001D8F800009BF902309BF9012090F9D0
:106BF000031090F90200FFF789FA029813F0FAFCEB
:106C0000DFF8688398F801100E2925D000230DF1D4
:106C10001C0B022201218BE80F0056210298CDE9BE
:106C20000501CDE903560B980023CDE900705246CB
:106C30002521CDF8089005200EF0DDF9CF48CDE9EB
:106C4000000402210823442208460AF02BFF0823EF
:106C50002A22CB484B2160E00123D8E7012300E042
:106C60000023C8488E21006802780FB00220BDE8DA
:106C7000F04F0FF0ABBE0121E4E5BF480B9064215B
:106C8000204661F307006F2161F30F208146042045
:106C90004FF0010A0290B548417855EA060000D04D
:106CA0000120CDE90001D8F800009BF902309BF9E2
:106CB000012090F9031090F90200FFF727FA0298DB
:106CC00013F098FCDFF8A48298F801100E292ED05A
:106CD00000230122CDE907020221CDE90913562044
:106CE0000299CDE90510CDE903560B980023CDE9B3
:106CF000007052462521CDF8089005200EF07BF952
:106D00009E48CDE9000402210823442208460AF0E7
:106D1000C9FE9D48082329224C21CDE90004022008
:106D20000AF0C0FE98F80100072899D196E70123E0
:106D3000CFE72DE9FC5FFEF7EFFE9448944EDFF8B5
:106D400040A20068DFF84C8200250078874C06F1ED
:106D50005C0B032837D08B4F012865D0DFF82892D1
:106D6000022877D0042876D08B4E002874D0DFF824
:106D70000C82062871D0052870D1607801286ED069
:106D800000215846FFF7ECFC60780E2868D00022FE
:106D9000306841780078FFF751FBCDE9008502218A
:106DA0000823442208460AF07DFECDE90095082319
:106DB00029224C21022000BF0AF074FE60780728C7
:106DC0007ED0002329E1CDE900A508232A22532102
:106DD00004200AF067FE607801280AD00021584696
:106DE000FFF7BEFC6078042805D00021052817D0E5
:106DF00002E00121F3E701215FF0000041EA4003D6
:106E00003178A078634A0EF0E2FB0095607807289D
:106E100008D00023D8F804000078401CC2B233E048
:106E20000120EBE70123F5E7CDE900A508232A229D
:106E3000532104200AF036FE6078012811D0002189
:106E40005846FFF78DFC607804280CD000210528F7
:106E500020D009E022E042E0A4E0BAE018E0E5E05A
:106E6000E6E00121ECE701215FF0000041EA400388
:106E70003178A078474A0EF0AAFB00956078072881
:106E80000AD00023386802788E2102200EF0FFFF1E
:106E9000BDE8FC9F0120E9E70123F3E7CDE9009578
:106EA00008232922542104200AF0FCFD0095607873
:106EB000072810D0002338688E210278022000E0D5
:106EC000AAE00EF0E4FF60780E2806D00020BDE8AE
:106ED000FC5F0FF071BE0123EDE70120F7E7E079D9
:106EE00018B32E48CDE9000508235E221F21042097
:106EF0000AF0D8FD00956078072812D05FF00003F3
:106F0000D8F804008E210078401CC2B202200EF096
:106F1000BEFF60780E2806D00020BDE8FC5F0FF0B1
:106F2000E4BD0123ECE70120F7E7CDE90095082354
:106F30002922542104200AF0B5FD00956078072825
:106F400011D00023D8F804008E210078401CC2B272
:106F500002200EF09CFF60780E2821D00020BDE8B2
:106F6000FC5F0FF0DEBD0123ECE700001000002005
:106F7000A7000020B9D70108A4D7010820D0010834
:106F8000C0BA0108BC000020EABA010808030020CA
:106F9000C810002088070020CC000020DDD40108A4
:106FA0000120DCE7607801280FD000215846FFF768
:106FB000D7FB60780E280AD000223068417800782C
:106FC00002B0BDE8F05FFFF739BA0121EEE7012218
:106FD000F3E7607801281BD000215846FFF7C0FB7B
:106FE00060780E2816D00022306841780078FFF7CC
:106FF00025FACDE9008502210823442208460AF03B
:1070000051FDCDE900A508232A224B210220D3E619
:107010000121E2E70122E7E7012338688E210278A7
:1070200002B00220BDE8F05F0FF0D0BC0121A8E65D
:107030000122ADE62DE9FC5FFEF77AFDFE48DFF8A0
:10704000FC93FF4F0068DFF8FCB3FF4E007800258B
:10705000FE4C032833D0DFF8F883012860D0DFF836
:10706000F4A302287ED004287DD000287CD0DFF84D
:10707000E8B3062879D0052878D160780E2876D034
:107080005FF00003306897F858107A6D0078FFF7CA
:107090002FFBCDE900B502210823442208460AF05F
:1070A00001FDCDE900A5082329224C21022000BFC3
:1070B0000AF0F8FC607807287CD0002303E1CDE9D2
:1070C000009508232A22532104200AF0EBFC607863
:1070D000042803D0002105281ED000E00121002053
:1070E00041EA40033978A078D64A0EF070FA00954C
:1070F0006078072812D00023DBF804008E21007886
:10710000401CC2B202200EF0C2FEB0680168C8295D
:107110007ADDC821016077E00120E1E70123EBE798
:10712000CDE9009508232A22532104200AF0BAFC55
:107130006078042803D0002105281ED000E001213A
:107140005FF0000041EA40033978A078BD4A0EF0B4
:107150003EFA00956078072811D00023D8F8000087
:10716000027805E00DE02EE07FE08FE0B7E0B4E0CC
:107170008E2102200EF08BFE46E00120E2E7012383
:10718000ECE7CDE900A508232922542104200AF0C8
:1071900089FC00956078072811D00023D8F80000FA
:1071A0008E21027802200EF072FE60780E2808D040
:1071B000002000E086E0BDE8FC5F0FF0FDBC01238D
:1071C000ECE70120F5E7E07960B3A448CDE90005DC
:1071D00008235E221F2104200AF064FC00956078D9
:1071E00007281BD05FF00003DBF804008E21007835
:1071F000401CC2B202200EF04AFE60780E280FD06A
:107200005FF000000FF071FCB06862780168706890
:10721000007802B0BDE8F05FFFF724BA0123E3E78E
:107220000120EFE7CDE900A50823292254210420FD
:107230000AF038FC00956078072812D05FF0000350
:10724000DBF804008E210078401CC2B202200EF050
:107250001EFE60780E2806D00020BDE8FC5F0FF00F
:1072600060BC0123ECE70120F7E760780E280BD023
:107270005FF00003306897F858107A6D007802B01C
:10728000BDE8F05FFFF734BA0123F3E760780E281A
:1072900016D00023306897F858107A6D0078FFF701
:1072A00027FACDE900B502210823442208460AF056
:1072B000F9FBCDE9009508232A224B210220F7E6AD
:1072C0000123E7E70123D8F800008E21027802B0FD
:1072D0000220BDE8F05F0FF079BB0123D2E6D7E5CD
:1072E0002DE9F04F00248DB0A2462646A146554612
:1072F0000B94FEF759FC5048DFF850B10068007855
:10730000022805D05648016891F90200F8B91CE03E
:107310005048CDE9000A544608232922542104206C
:107320000AF0C0FB00200FF047FC00949BF801001E
:10733000072808D0002346488E21006802780220E2
:107340000EF0A5FD56E00123F5E7CA781AB1044610
:1073500091F9036008E03B4A92F919300BB9977E26
:1073600017B192F91A601C469BF8013054EA0602E4
:1073700000D00122CDE90023324A91F903105C3A92
:1073800092F9023092F90120FEF7C0FE35486421DF
:1073900002786F204AB161F30705DFF8CC8060F313
:1073A0000F2506274FF0010908E061F3070560F398
:1073B0000F250427DFF8B48001200B90384613F026
:1073C00019F99BF801100E2952D000210123CDE9B3
:1073D000070356200496CDE905700222CDE9092164
:1073E000CDE90098CDE902540023252105200B9A10
:1073F0000DF001FE1048006801781748062939D0C1
:10740000052950D1CDE9000A02215446082344221F
:1074100008460AF047FB0F48082329225FF04C0179
:10742000CDE9000402200AF03DFB9BF8010007288B
:107430002ED000232DE0000008030020C0BA010870
:10744000C8100020880700201C1300201000002016
:10745000BC000020EABA010820D00108DDD40108F0
:10746000CC000020A7000020B9D70108A4D701084C
:107470000121ABE7CDE9000A02215446082344224A
:1074800008460AF00FFB08232A22FD484B21C7E7D4
:107490000123FC488E21006802780DB00220BDE86F
:1074A000F04F0FF093BA0DB0BDE8F08F7CB5FEF74A
:1074B000ABFB0126F448CDE9000610231422262157
:1074C00003200AF01BFCF14C6078142836D000230E
:1074D000EF4D3C210320EA690AF030FB6078152863
:1074E0002ED00021286A0BF007F9EA480096002305
:1074F000017F95F900001A460BF08EFEE648002544
:10750000E04E00680178E54806291BD0052930D1F6
:10751000CDE9000502210823442208460AF0C2FAF8
:10752000DF48082329224C21CDE9000502200AF07A
:10753000B9FA6078072812D0002311E00123C7E7C9
:107540000121CFE7CDE900050221082344220846A6
:107550000AF0A8FA08232A22C9484B21E4E70123AC
:1075600030688E21027802B00220BDE870400FF032
:107570002DBA7CBDF8B5054600241821C94812F083
:10758000AAFEC849085D40F0100008550819641C9F
:10759000027DE4B242F001020275042CF2D30878B5
:1075A000012240F01F000870C87840F01F00C8702A
:1075B0004FF0FF3001F8220001EB8200FF23521C44
:1075C000D2B2C370062AF3D305EBC500C01CC0F3CA
:1075D000C70700F007034FF0FF3222FA03F0C3F1B0
:1075E00017039A4010400022C0F30746C0F3072556
:1075F0005FFA80F402EB8703521C11F803C0D2B289
:107600004CEA106C01F803C00B44042A93F804C040
:107610004CEA060C83F804C093F808C04CEA050C49
:1076200083F808C093F80CC04CEA040C83F80CC033
:10763000E0D300200A5C02F01F020A54401CC0B2D2
:107640000428F7D3302000900423964AA421052073
:107650000AF04AFAF8BD1CB519461400DDE90432F7
:1076600014D0012C09D0042C10D002B010236822B1
:10767000BDE8104038210AF04BBADBB2CDE9003248
:10768000CBB2012238210DF0B5FB1CBD00920A4699
:1076900038210DF097FE1CBD7FB582B006469DF8DF
:1076A0000C00144641308DF80C000F2000901D4650
:1076B00003AA032130460DF001FC23213CB1012C2B
:1076C00009D0042C2B46009109D077A208E02B4664
:1076D00076A2009104E02B4676A2009100E076A20B
:1076E000142130460EF051FE06B070BD2DE9FE4F5C
:1076F0000024DFF89891DFF88CA1714DA3464FF07C
:10770000050800BF99F801000A2801D0122829D1E4
:107710006C4A297892F900202144914222D1012318
:10772000122801D1012600E000262878DAF800109E
:10773000204400EB400201EB4201574691F9092039
:10774000002A11DDC1B208EB440706223846FFF7D4
:10775000A3FFCDE900B6287800232044C1B2062259
:1077600038465CE00023DFE791F9081099B1012960
:1077700029D00229C1B208EB44003CD007460622BA
:10778000FFF78AFFCDE900B6287800232044C1B274
:107790003846062243E0C1B208EB440000220290C2
:1077A000FFF77AFF28783A68204400EB400102EBAB
:1077B000410191F90D20CDE9002691F90C30C1B2BB
:1077C000002202982BE0C1B208EB44000122029093
:1077D000FFF762FF28783A68204400EB400102EB93
:1077E000410191F90B20CDE9002691F90A30C1B28F
:1077F0000122029813E004220290FFF74DFF28783F
:107800003A68204400EB400102EB410191F90D2060
:10781000CDE9002691F90C30C1B204220298FFF79D
:107820001AFF641CE4B2032CFFF46CAFBDE8FE8FBA
:107830001CB5102314221F2102200AF069F9FEF75B
:107840009EF900240E48CDE9000408232A22532182
:1078500004200AF027F900940C4C607807283AD0ED
:10786000002308488E210068027802200EF00FFBEA
:107870006078012831D0002105485C3024E0000008
:10788000C0BA0108BC0000200DD101081000002082
:10789000C81000202C0700200803002020D0010879
:1078A000EABA0108341300204F4646006554544C90
:1078B000000000004D0000006578742E41000000BB
:1078C000E8000020E9000020FEF74AFFFE4861784A
:1078D000427E32B903E00123C3E70121CCE7807E79
:1078E00000B10120CDE90001F7485C3890F9023081
:1078F00090F90120F548006890F9031090F9020012
:10790000FEF704FCBDE81C40F0E6F14800220168E7
:107910004068097800780FF097B9EC480068417822
:107920000078FEF7A1BDE948006841780078FEF7CD
:107930009BBD38B5E74CE84D607900EB800005EB66
:107940008000016900910FC80EF0A3FE607900EB82
:10795000800005EB8000206238BD10B50AF002FA05
:10796000BDE81040E5E72DE9F843884605460024C8
:10797000FF224FF4AC71D94812F0A6FCC5F1AC005F
:10798000D64E00EBD07006EB600007462A46414613
:1079900012F088FC08EB050107F1AC002A4612F052
:1079A00081FC305D00F01F003055641CE4B2AC2C4B
:1079B000F7D310200090AC23C84A00210B200AF016
:1079C00093F8BDE8F88307280ED2DFE800F004063C
:1079D000080D0A0B0C00FEF7F2BEFFF7AAB9FFF77D
:1079E00029BB7DE462E523E77047BD4810B5006818
:1079F0000078042805D009F0A9FDBDE8104002F088
:107A000055BF482140F2523009F055FDFDF7AAFC60
:107A1000F3E710B5322006F0E6F9B148B149006845
:107A20000C310278AF48022A026822F47002026028
:107A3000026807D042F440120260086840F020005B
:107A4000086010BD42F40002F6E77CB50AF051F977
:107A5000A04800250095407807283FD00023A24881
:107A60008E210068027802200EF011FAF0219B4866
:107A700012F031FC0023782298499CA00CF036FBD0
:107A800002260320CDE9006048233246782193483E
:107A90000BF0C2FE9248914C4FF0080200684C3443
:107AA00023460178782006291AD0CDE900059348AD
:107AB000292100BF0CF08DFB0520CDE900602A23B1
:107AC0000222782120460BF0A7FE10200090782398
:107AD000824A032100200AF007F87CBD0123BEE79B
:107AE000CDE900052A218648E4E72DE9FC410E4650
:107AF000074630230922A12105200AF009F8814810
:107B0000814D002437B3062F51D0F16991F900104F
:107B100061B301296BD0022947D10646C07838B13C
:107B2000CDE9005410230922A121052009F0BAFF54
:107B3000307938B1CDE9005410230922A121072062
:107B400009F0B0FF707900282FD009221023A1215D
:107B5000104626E0316A91F9001039B101290AD0A6
:107B6000022922D10646C07888B90EE0C17839B919
:107B7000017929B939E0C17811B90079002814D008
:107B800010230922A12105200BE0307938B1CDE97D
:107B9000005410230922A121052009F083FF7079E8
:107BA00031E0CDE9005409F07DFFBDE8FC81574F7D
:107BB000064638783044C07838B1CDE900541023F7
:107BC0000922A121052009F06DFF387830440079A1
:107BD00038B1CDE9005410230922A121072009F072
:107BE00061FF387830444079ADE74079C6E7064612
:107BF000C07838B1CDE9005410230922A121052015
:107C000009F050FF30790028CFD010230922A1219C
:107C10000720C6E770B5324D3D4C2868007807282C
:107C20001FD2DFE800F015041515150F0F000AF03C
:107C300060F894F90000FFF7C6FE20782249FFF7AC
:107C400054FF0EE03348006890F90600002806DD76
:107C50000AF04FF894F90000FFF7B5FE01E0FFF7D6
:107C6000F4FE2D48D0F8340110B12C480078A0B1B2
:107C70001023AC2200210B2009F04AFF286800786D
:107C80000EF04EFE286800780EF07CFE0BF00CFF24
:107C9000BDE87040012004F00BBAFFF75EFEEDE78F
:107CA0001B4910B5002008700D4909680870064985
:107CB0002439CA69107023228A740B490968486004
:107CC0001749C1F89C012DE088070020CC00002056
:107CD0008411002010000020341B002034130020E9
:107CE00008030020000C0140BC0000204C497C4EE1
:107CF0007C4B45442053484F54000000EABA010829
:107D0000C0BA0108641100204DBC0108E800002041
:107D1000C8100020D402002000002142FB020020F5
:107D200000802242FD490870FFF774FFFC492F20B4
:107D3000FFF719FE002240F2E7331146104610F01B
:107D4000A6FCF848018841F00101018010BD704790
:107D5000F54800680078042808D1F448C179002962
:107D600004D10121C171F248017053E7704710B589
:107D7000062802DA401EC0B220E0082801DA0520F9
:107D80001CE00A2801DA062018E00B2801DA072097
:107D900014E00C2801DA082010E00F2801DA09208D
:107DA0000CE0142801DA0A2008E03C2801DA0B2054
:107DB00004E0FA2801DA0C2000E00D20DB4CC1EBD6
:107DC000C1012C3404EB4101085C18701168814238
:107DD00000DD106010BD70B5D64A117D002957D165
:107DE000D5490978002953D111460026CB69D34CD7
:107DF000012591F91B1001280FD0187878B1491C82
:107E000048B2D17600280DDAD6761E70A574D168F6
:107E1000108A0880D168907428E0491EF0E71D7030
:107E2000D67608E0092806DD0920D0764520507670
:107E30001720A07420E0D069C149C24B057092F9A7
:107E40001B00085CD1680880D168907492F91B000F
:107E500000281B5C537607DD00F11003172B01DDB2
:107E6000172002E0113000E01120A074D0690988C9
:107E7000012200780BF0DEFAB348007818B9AC485C
:107E80000078052804D1A748018841F48041018089
:107E900070BDF0B5A649A94DAC4E91F90020AC4992
:107EA000A94FA04C09684FF0000C072A7CD2DFE8EC
:107EB00002F0044C7C7B047B0400A64A0128137862
:107EC0000FD091F9020003286ED0CA78521C52B22A
:107ED000CA702BB3012A19DD401C887081F803C0D9
:107EE00014E091F90220D01C02D1C87800285BD0A0
:107EF000C878401E40B2C870002806DA0BB1801C5A
:107F000000E0C01CC870521E8A707BB191F902005B
:107F100091F90310904A400011440C30085C0FE0C6
:107F2000022A03DD401C887081F803C091F9020029
:107F300091F90320801D894900EB40000844105C42
:107F40006870208840F480402DE0012819D091F914
:107F50000000072828D04A78521C52B24A70022AE0
:107F600003DD401C087081F801C091F9000091F90F
:107F70000110C0F1070000EB4000401A305CA8700F
:107F800034E091F9002012B9487800280CD04878E4
:107F9000401E40B248700028E7DAC01C4870521EEC
:107FA0000A70E2E700E02080F0BDDFF8B4C10128EC
:107FB000DCF8001091F9000022D00528F4D0401C14
:107FC0000870DCE900020CF115030178DCF8080008
:107FD0000068FFF7CCFE00BFDCF8000090F900005D
:107FE000C0F1070000EB4000305C6871208840F46D
:107FF0008040208039780029D6D040F00800D2E7B0
:108000000028D1D0401E0870E6E749490023012826
:1080100091F95C2009D0521C50B281F85C00022812
:108020000DDD00BF81F85C3011E0521E50B281F8C6
:108030005C00002803DA022081F85C0007E0C0B28F
:10804000012804D13848006800780028EAD138486F
:1080500001215C30FEF784BB30B53E49374D0C78CA
:1080600034493839012891F9023091F901200FD0B3
:10807000032A3ADA5B1C58B20A4688705278521CBE
:1080800052B2A4B1022819DB4A70801E887015E034
:108090000BB9002A29D05B1E58B2887000280CDA70
:1080A000521E4A700CB1801CF0E7C01C03E003288C
:1080B0000DDB4A70C01E887009E044B191F90200DE
:1080C00091F90110274A01EB4101114406E091F9B1
:1080D000020091F90110244A02EB4101405C6875ED
:1080E0001048018841F48041018030BD114924319C
:1080F0000128CB6993F9002038D0521C50B2187077
:10810000C969022801DD0020087008484078042869
:1081100034D0002105283BD031E00000A60000202B
:108120007CD2010806030020080300201000002074
:10813000C810002064070020EA000020041300207B
:1081400002AD01080CAD0108A300002088AF0108B2
:10815000CC000020A70000206BAD010846AD01084F
:108160001C1300209EAF0108A8AF0108521E50B298
:108170001870C9690028C8DA0220C5E7012100206B
:1081800041EA4003FB48FC4A017801200DF01FBA88
:108190000120F5E770B5F849F64EF84AD1E9073401
:1081A00096F9005092F90210012809D0491C48B2F2
:1081B0009070CDB193F9001081420ADA002007E0F7
:1081C000491E48B29070002803DA4DB193F90000BF
:1081D0009070507804280BD00021052815D008E0B5
:1081E00094F90000401EF3E794F90010491EE3E7FC
:1081F0000121002041EA400390783178DE4A0DF0F9
:10820000E6F9BDE870400AF064B90120F2E72DE913
:10821000F05FDA4DD74ED84C95F9028096F90010F0
:10822000636A002208EB880CB9B1D54FDFF854839C
:10823000012974D0022973D1294691F9021001EB6A
:108240008101091D012858566BD0052801DA401C10
:108250005854A878002877D03DE1C84FDFF828E3CC
:10826000DFF8289397F90270DFF824A307EB870C57
:10827000DFF820B3C8490CF107070CF1080C0128FE
:1082800016D0B8F1000F6EDDD85D032848D013F882
:108290000C00401C47B203F80C700878636A002891
:1082A00095F9020000EB80005ED0012F5EDC27E034
:1082B000B8F1000F49DDD857C01C03D113F80C00EA
:1082C00000282DD013F80C00401E40B203F80C001B
:1082D00095F90220636A02EB82020832002850DA24
:1082E0000F780FB1801C00E0C01C985495F9022053
:1082F000606A02EB8202D21D835C5B1E835440E005
:1083000095F90200616A00EB800000F10802C01DCF
:1083100008568B56400003EB0E020C3011E060E073
:10832000BCE0BFE095F90200616A00EB800000F15B
:108330000802C01D08568A56801D00EB4001974870
:108340000844105C207637E0B1E0D85D401E40B2B2
:10835000D85595F90210636A01EB8101C91D002807
:108360001CDA5A541AE010E0022FDBDDC01D1F5C3E
:108370007F1C1F5495F90200636A00EB80000830EF
:108380001A5408780028CDD0BAE7D879401C40B2FA
:10839000D871616A0C2801DD0C20C871616991F9FE
:1083A000002019F812308AF8003091F9001009EB1A
:1083B000410041788BF800106878042803D0002130
:1083C00005280CD000E001215FF0000041EA4003E5
:1083D0003178A878BDE8F05F674A0DF0F8B8012061
:1083E000F4E7664991F9021001EB8101491C01286B
:1083F00013F80C001DD0072850D0585C401C40B228
:10840000585495F90230616A03EB8303022809DDB1
:10841000C85C401CC85495F90200616A00EB8000FA
:10842000401C0A54687804281ED00021052837D043
:108430001BE010B9585C002830D0585C401E40B298
:10844000585495F90220616A02EB8202521C0028FE
:10845000E8DAC01C885495F90210606A01EB8101CA
:10846000425C521E4254DDE70121002041EA4003F4
:108470003178A878404A0DF0AAF895F90210626A9E
:1084800001EB81001356401CC3F10703105603EBA8
:108490004303181A3A5C08EB01008270BDE8F09FB4
:1084A0000120E3E7002816DD401E585413E0606AFF
:1084B000DFF8ECC00179DCE901200CF1150300685C
:1084C000FFF755FCDCF8080000220168DCF8040026
:1084D0000078FEF7C7F86878042803D00021052843
:1084E00018D000E00121002041EA40033178A8784B
:1084F000214A0DF06CF895F90200626A00EB8001E8
:10850000091D51564044C1F1070101EB41017A5C5C
:108510004271C3E70120E7E738B5224C0122012868
:1085200094F9001042D0491C48B220700F2801DD98
:108530000F202070009222780023802101200DF06E
:10854000A6FC8721184811F0C6FE94F900001649D0
:1085500000EBC000084478220521093811F0B4FE70
:10856000082000908723104A16210A2009F0BCFA3F
:1085700038BD0000C810002088070020100000202F
:1085800088AF0108041300206BAD0108D4AE0108C8
:108590000003002001030020A700002046AD0108D1
:1085A0001C1300201C03002034130020491E48B275
:1085B00020700128BEDA2270BCE738B5FD490024DE
:1085C00001284B6893F9002008D0521C50B2187053
:1085D0004A6803280ADD03201070C9E7521E50B212
:1085E00018704A68002801DA1470C1E70094107806
:1085F0000123401CC2B28E2102200DF048FCB7E7D7
:1086000038B5ED4A0024012892F9003013D05B1CE4
:1086100058B210700F2801DD0F201070A1B15078F2
:1086200007280FD00023127801B08E21BDE830401A
:1086300002200EF0CBB95B1E58B210700028EDDAA4
:108640001470EBE70123EEE70094127801238E21EA
:1086500002200DF01CFC8BE72DE9F843884681468B
:1086600014462021D54811F036FED54801210023BB
:108670000170D24AD34D210918E0BBB104F00F07B5
:108680000A2F15D2067807EB470705EB8707164434
:10869000D7F800C0C6F800C0B7F804C0A6F804C0F8
:1086A000D7F806C0C6F810C07F8917E00F46E7E785
:1086B0000A3FFFB2067807EB470705EB870716442A
:1086C000D7F890C0C6F800C0B7F894C0A6F804C0A8
:1086D000D7F896C0C6F810C0B7F89A70B782067877
:1086E0005B1C0836DBB20670022BC6D31020034693
:1086F0000090B24A4146484609F0F6F9BDE8F883D1
:10870000704710B5B04C0128A16D03D0142910DAC0
:10871000491C13E0142901DC491E04E0322901DC64
:10872000491F00E00A39A165002908DA0020A06588
:1087300005E0322901DA491D00E00A31A165A348AC
:10874000A24BD0E900128068097815330068FFF762
:108750000EFB994A94F85800616D5278BDE81040BC
:10876000FDF780BF10B5984C4FF4FA720128616D87
:1087700003D0142916DA491C1FE0142901DC491E14
:108780000AE0322901DC491F06E0C82901DC0A3968
:1087900002E0914201DC32396165012910DA0120E1
:1087A00060650DE0322901DA491D06E0C82901DAC9
:1087B0000A3102E0914202DA3231616500E062651D
:1087C000834800680078032804D1606DC82801DD63
:1087D000C82060657D487D4BD0E90012806809782B
:1087E00015330068FFF7C3FA734A94F85800616DB7
:1087F0005278BDE81040FDF735BF6F4B0128D9789E
:108800000AD0032901D2491CD9707248002100689E
:108810004268D8780BF0C7BA0029F6D0491EF3E7B2
:10882000F0B4654905460023C8784FF47A720A24EB
:1088300004E000BFB2FBF4F25B1CDBB28342F9D36D
:108840005D4B012D5B69B3FBF2F5B5FBF4F604FB60
:10885000165403D0092C0CD21A4405E00CB19A1A14
:1088600002E002EBC2021A444A61F0BC01210BF0A3
:108870009ABA5242F5E710B5584C574A012894F974
:10888000001007D0491C48B22070042812DD0020D7
:10889000207012E0491E48B22070002803DA4FF021
:1088A0000400207008E002DDA0F1010005E04FF0B7
:1088B000000002E00328F7DD02201070FEF716FF2B
:1088C00009F039FE94F90000BDE81040FEF752BEF1
:1088D0002DE9F041414B424F424C93F90010DFF833
:1088E00008C101EB41023B49DFF800E1404D096856
:1088F000012801EB420292F9086006D0002076B30D
:10890000012E77D0022E76D17FE01EB1012E27D026
:10891000022E70D192F90C00C01C02D1507B0028AD
:108920006AD0507B401E40B2507393F9002000285B
:1089300002EB420201EB42020EDA2E780EB1801CED
:1089400000E0C01C507393F9000000EB400001EB05
:108950004000027B521E80E0287850BB90E054E03B
:10896000907A10B9D07A002846D0D07A401E40B212
:10897000D07293F90020002802EB420201EB420280
:108980000ADAC01CD07293F9000000EB400001EB42
:108990004000827A521E827293F9000000EB40027E
:1089A00001EB420191F90A20C2F1070202EB4202F7
:1089B00023E054E08807002010000020341300203A
:1089C0001E0300207DD00108C81000201C130020C9
:1089D00008030020BC000020E8000020E90000207F
:1089E0006BAD01080413002046AD010888AF0108F3
:1089F000A700002056E081E084E091F90B102044AC
:108A0000511A1EF80110017278E0167B032E79D0FE
:108A1000567B761C76B256732A78002A93F900208A
:108A200002EB420201EB42020CD0012E17DD507323
:108A300093F9000000EB400001EB4002107B401C6A
:108A4000107389E7022E1BDD507393F9000000EBD1
:108A5000400001EB4000027B521C02737CE793F95B
:108A6000002002EB420001EB400090F90C1090F95D
:108A70000D00490038440C31405CA11848733DE0BA
:108A800093F9000000EB400201EB4201204491F910
:108A90000D2091F90C10891D01EB41016144515CDD
:108AA00041732BE0957A072D2CD0D57A6D1C6DB2D1
:108AB000D57293F90020022D02EB420201EB420233
:108AC00009DDD07293F9000000EB400001EB40009B
:108AD000827A521C827293F9002002EB420001EB71
:108AE000400090F90A1090F90B00C1F1070101EB69
:108AF0004101081AA1181EF800000872BDE8F041F3
:108B0000FEF7F4BDBDE8F081FE49FD4B012891F967
:108B1000002007D0521C50B2087011280BDD002035
:108B2000087009E0521E50B20870002804DA1120C3
:108B30000870102000E0401E18700BF005BDF349CE
:108B4000F14B012891F9002007D0521C50B2087057
:108B500006280BDD0020087009E0521E50B2087094
:108B6000002804DA06200870052000E0401E187076
:108B70000BF06BBD2DE9F041E54DE24CE54B29686A
:108B800094F9006001288A5720D0521C57B28F55A3
:108B900094F90020C2EBC20003EB8000406900782A
:108BA000401E874200DD885494F90000C0EBC002EB
:108BB00003EB820292690AB10844904794F90010CD
:108BC0002868405CBDE8F0410BF02BBE521E50B24D
:108BD000885594F900200028E6DA0020E3E72DE923
:108BE000F041CD4DC94CCD4B296894F90060012866
:108BF0008A5720D0521C57B28F5594F90020C2EBEF
:108C0000C20003EB800040690078401E874200DD0F
:108C1000885494F90000C0EBC00203EB8202926911
:108C20000AB10844904794F900102868405CBDE8F8
:108C3000F0410BF05BBE521E50B2885594F90020F3
:108C40000028E6DA0020E3E70146B54A002000BF2D
:108C500052F820308B4204DA401CC0B22228F7D3ED
:108C6000002070470146AF4A002000BF52F8203074
:108C70008B4204DA401CC0B22828F7D3002070478A
:108C800038B5A94C0546206AFFF7ECFF012D15D039
:108C9000272801D2401CC0B2A24951F8200001216E
:108CA000206209F029FD01200090A04800231A4607
:108CB000017F94F900000AF0AFFA59E40028EBD0E4
:108CC000401EE8E738B5984C0546E069FFF7BCFF61
:108CD000012D17D0212801D2401CC0B29049012398
:108CE00051F820203C210320E26108F027FF0120F9
:108CF00000908E4800231A46017F94F900000AF084
:108D00008BFA35E40028E9D0401EE6E7864A0128C0
:108D100092F97E100AD0491C48B282F87E001228CF
:108D200002DD122082F87E000CF082BF491E48B29C
:108D300082F87E000028F7DA0020F3E77C49002360
:108D40000128096891F900200CD0072A1BD0487827
:108D5000401C40B24870022802DD521C0A704B7061
:108D60000CF066BF0AB9487850B14878401E40B24E
:108D700048700028F4DAC01C4870521E0A70EFE7F1
:108D800007200870ECE70B70E9E76A4949781B296E
:108D900054D2DFE801F00E2022242628532C454629
:108DA0004953474B1C4C4D4E4A2A4F5048531E5274
:108DB00051005749096891F90D1000293EDD5A49C3
:108DC00091F9001019B1062901D0042936D1FFF715
:108DD00060B8FFF700B8FFF718B9FFF73DB9FFF724
:108DE00085B9FFF7D7B9FFF712BAFFF795BB52491C
:108DF00009680978072921D2DFE801F02010100462
:108E000004060600FFF7D9BB4349096891F906102B
:108E1000002903DD5FF00101FFF7F2BB0021FBE752
:108E20006FE49FE4E9E4FBE425E551E56CE6A1E6A7
:108E300085E6D4E646E723E768E77FE770472DE954
:108E4000F8433D4F3E4D3B4E3868DFF8E08096F9E1
:108E50000020037839480024296808F15C08072BB2
:108E600038D2DFE803F037383804040C0C00747093
:108E70000094D8F804000078401CC2B225E0747059
:108E800091F90030934208D00A7005F0E0FA2868A2
:108E900001220178CE2004F082FF1F48006890F97B
:108EA000060000280EDD7078072809D00023286806
:108EB0008E21027801B00220BDE8F0430DF086BD9E
:108EC0000123F4E700942868027800238E21022011
:108ED0000CF0DDFF12E4747091F900309342F1D090
:108EE0000A7005F0B4FA1748C0F80340C4718460F2
:108EF00004731548047038680078012832D125E0E1
:108F0000EC000020EB000020EE000020ED0000202F
:108F1000D00200201CAA0108D402002014AC0108D1
:108F2000BCD60108D8D70108C81000202C070020A3
:108F3000CC000020100000200803002000FE0108E3
:108F4000BC00002064110020EC020020D8F80C00C6
:108F5000007838B9FC490120C1F8B801C1F8BC015A
:108F60003471B474F948FA490078FEF7BEFD2868F8
:108F700001220178CE2004F012FFA3E72DE9F04191
:108F8000F44CF54D00266278F049131F2868132B26
:108F90007ED2DFE803F0382E7D797D7D437D470A60
:108FA0007D161C28437D7D7D4C000F206070EB48B2
:108FB000EB49006891F90010405CBDE8F0410BF00E
:108FC00030BC0D206070BDE8F0410BF0EEBC11200C
:108FD0006070E448E449006891F90010405CBDE825
:108FE000F0410BF083BC10206070BDE8F0410BF045
:108FF000EBBC0420607091F90000FEF7E4FCBDE8D2
:10900000F04109F066BA0520607000200978A07868
:10901000BDE8F0410223CE4A0CF0D9BABDE8F041D8
:109020000BF0F6BC162161700121426827E00C228A
:1090300062704368626993421ED04260CB48006808
:109040000078012810D1CA48BF4AC0F80360C67131
:1090500086600673C74806700120C2F8B801267101
:109060000878BB49FEF741FD28688088C2B2C0F38A
:109070000721CC2004F093FE286800214268E078A4
:10908000BDE8F0410AF08FBEBDE8F041D7E6FFE74A
:109090000C2A01D108F02DFE6078132803D1B648C0
:1090A0002968007808706670BDE8F041FEF7B2BD2F
:1090B00010B5A84C607808B1FFF760FF1820607009
:1090C000A34824380122C168C06909880078BDE836
:1090D00010400AF0AFB930B59E4C0021607850BB0B
:1090E0009A48A24B0278521C52B202701D682B782B
:1090F000012B0BD08BB1062B0FD0052B0DD0022AE4
:1091000015DD01702878042810D010E0032A02D061
:10911000062A06DC0BE0062206E0032A03D0052A15
:1091200005DD017003E00422027000E0E17188486F
:109130005C38417081709148A170017030BD70B58C
:109140008A480024012100687F4D8D4E0278072A4D
:1091500015D2DFE802F01104150911040400C5F866
:109160009C110178002211E000220121AC2004F0C2
:1091700016FE142003F09BFBC5F89C41347070BDB3
:10918000C5F89C117F4949680A780178BDE87040AC
:10919000E02004F004BE70B5744800210068027835
:1091A000052A02D0694B1AB106E00622027050E08F
:1091B00093F90040022C5DDC6A4C0325246894F985
:1091C0000560714C1EB1012E10D0022E1AD0521C17
:1091D000D2B20270042A2FD8227802B30278022A6F
:1091E00002D0042A2AD020E0057028E0521CD2B216
:1091F0000270022A00D90170227882B10278022A14
:109200001CD00FE0521CD2B20270012A12D0042AE4
:1092100000D90170227812B10278042A0ED00278A7
:10922000022A0FD0D2B2042A0CD0D0B2032806D022
:1092300028B108E00570EDE70170CDE701701878FE
:10924000062800D119704A48C0F80310C171816026
:1092500001734048417141703D485C3881704170F4
:10926000FFF76DFFFEF7C1FBFEF7D4FCBDE87040D1
:10927000FEF7CFBB70BD3D4810B5006801780529E9
:1092800010D005210170FEF7C5FCFFF758FF3849E3
:109290000020C1F80300C87136490870BDE81040CD
:1092A00001F004BB10BD2D4810B50068294C4FF0EB
:1092B000000190F90700002809DD0720FCF7D5FB25
:1092C000E0610021072001F001FCE06909E00320D2
:1092D000FCF7CBFBE0610021032001F0F7FB41F23A
:1092E000875001F0D8FBBDE810404FF4487003F000
:1092F000F7BA2DE9FF5F254800273E460078002891
:1093000054D1144C8346DFF8889018486178D9F816
:109310000020D0F800C01B293ED01048DFF8748030
:109320000B4D0168204641F2875A91F902300079CD
:109330004FF0010E012B4CD0022B4AD098F8003090
:10934000022B46D06FE0000000802242C8100020AF
:109350008807002010000020BC000020D002002060
:10936000EB000020D4020020ED00002008030020C4
:1093700064110020EC0200201C030020E900002002
:10938000A600002084110020A2000020A8000020D8
:10939000CC000020F70200209CF8000040B101281A
:1093A00004D100221146A02004F0F9FCBDE8FF9F83
:1093B00003A9CDE900B1CDF808B0517810780023A9
:1093C0001A46FBF7BDFE41F6CC5103A8FBF786FF1A
:1093D000ECE79CF80030012B01D0032B02D1EB68A5
:1093E0001B78F3B1B0B1F74CC4F8B8E15546002191
:1093F000012001F06BFB284601F04DFB00220F23FA
:10940000114610460FF043F97F1CFFB2422FEED3F6
:10941000C4F8B8B1EC4801682031016088F800B0A8
:10942000C4E788F800B0E94B1B78002BBED1E54FAC
:109430000123C7F8B831DFF89883E64B98F900703C
:1094400000934346012F1B7816D04FF0980E002F43
:1094500077D0022F76D0062F75D0DE4941F28835BD
:109460004F39052F91F91B306ED0042F6DD0082F86
:109470006CD0072FFCD0E9E19CF80060032E1AD0D5
:10948000012E30D0042E62D060B34D4692F9011007
:1094900092F90000FCF7E9FAE061286890F9011000
:1094A00090F9000001F012FB286890F900000628EE
:1094B0003CDDE0693BE001283BD90022114618461B
:1094C00007F07FF90FF0D2FB95F83310009801F008
:1094D0002EFE0FF0D4FB4FF4487003F001FA5F202A
:1094E00003F0EDFA25E091F90200012818D00228D6
:1094F00016D00121022004F01DFE142003F0D7F93C
:10950000002004F0AEFC207998B1E868007880B1C2
:10951000D9F800004D4690F9011090F90000B9E724
:1095200089781A46AE2004F03AFC02E0504601F079
:10953000B2FAD9F800000178407801EB4101084403
:10954000EBE02AE09EE012E152E156E160E107F033
:10955000FDFF2079F0B1D9F800004D4690F90110D7
:1095600090F90000FCF781FAE061286890F9011099
:1095700090F9000001F0AAFA286890F90000062886
:1095800001DDE06900E0504601F085FA4FF44870D3
:1095900003F0A6F907F0EBFFCBE79CF80020032AC5
:1095A00004D0012A3BD0042A5FD052E0EF2185F895
:1095B0002B10296A91F9001021B1012904D0022948
:1095C00005D126E0B02100E0B42185F82C1055210A
:1095D00085F82D10AA2185F82E108F2185F82F10DF
:1095E000052185F83310012836D90FF03FFB95F897
:1095F0003310009801F09BFD0FF041FB4FF42F70EA
:1096000003F06EF9E868007828B11E2003F04FF9E6
:1096100020E0B521D9E75F2003F051FA1CE091F971
:10962000020001281BD0022819D085F839E085F8FE
:1096300038E085F837E00121022004F07BFD14209A
:1096400003F035F9002004F00CFC207920B1E86823
:10965000007808B1FFF727FE5F480068ACE0897822
:109660001A46AE2004F09BFBF6E70028F4D007F082
:109670006DFFFFF718FE4FF4487003F031F907F063
:1096800076FFE9E79CF80020544E032A04D0012A13
:109690001ED0042A49D02FE07068002211460068CD
:1096A000E863184607F08DF82079012831D90FF0CA
:1096B000DDFA95F83310009801F039FD0FF0DFFA6C
:1096C0004FF4487003F00CF95F2003F0F8F920E044
:1096D00091F90200012822D0022820D00121022085
:1096E00004F028FD142003F0E2F8002004F0B9FB98
:1096F000207970B1E868007858B101F041FB30681A
:1097000000231A4690F90010022001F06CFA01F0D3
:109710005CFA3068007800EB4000C6B296E08978C9
:109720001A46AE2004F03BFBF3E70028F1D007F027
:109730000DFF3068002190F90000FCF796F9E06118
:109740003068002190F9000001F0C0F9306890F90C
:109750000000062801DDE06900E0504601F09BF9B9
:109760004FF4487003F0BCF807F001FFD1E791F91E
:109770000200194E012833D0022831D015480121AA
:10978000873880F830E080F82DE080F82AE080F813
:1097900027E080F824E0022004F0CCFC142003F041
:1097A00086F8002004F05DFBE868007818B12079A5
:1097B00008B1FFF778FD306890F90700002815DD43
:1097C000152643E000802142C0000020A2000020B6
:1097D000C8100020B3070020D00200201C13002076
:1097E00089781A46AE2004F0DAFADDE706262DE085
:1097F00060B3D8E90712184603E038B31846382298
:1098000064210DF0F0FB0646284603F0FDF91DE04B
:10981000E0B14D4692F9011092F90000FCF725F9EC
:10982000E061286890F9011090F9000001F04EF90C
:10983000286890F90000062801DDE06900E0504644
:1098400001F029F94FF4487003F04AF80320B6FB01
:10985000F0F001218140FE48026811440160FD4999
:109860000A200870FC49C1F8B8B19FE50A2003F04E
:1098700012BBFA480068007802280CD0062804D0F1
:10988000052802D0042808D00BE0F548006890F9BC
:109890000600002805DC00207047F248C079002847
:1098A000FAD001207047EF4810B54078C01F152846
:1098B0000ED2DFE800F00B0D0D0D0D0F0F0D0F0F89
:1098C0000F0D0F0D0D0F0F0D0F0F0F00FFF7B7FA54
:1098D000012010BD002010BD2DE9F041FCF71FFB59
:1098E00006460C2812D0DFF8808398F80000002884
:1098F00075D1DE4FD7F83401DA4C00250028207BE3
:1099000009D0C0B3D7F83801B0B33CE0FFF7F1FCA1
:109910004FF49673D8E0012760B1DEB1D4492A2014
:10992000FEF721F80A2003F0B6FA00F0BFFF6773D4
:10993000A5731EE027730A2003F0ADFA1023AC22B2
:1099400000210B2008F0E4F8CA48018841F0010129
:1099500001800EE0607B60B1A07B411CA1732828D0
:1099600007D9A57365731023AC2200210B2008F0E2
:10997000CFF83223A8E006E0FFE725730A2003F0C2
:109980008AFAFDF7EAFFCEB100F090FFBA481B213A
:10999000BA4ABB4BA5611B2EEBD2DFE806F00E25C1
:1099A00035383B3E115D455F0E0EC00E0E0E0E8A21
:1099B0008F0E0E6D217D717F9C00DAE70A2383E014
:1099C000FFF771FF0028D4D06570FFF752FF002821
:1099D000CFD0FFF780FB6571FEF71CF9C9E785E082
:1099E000BDE8F041FEF7B4B96078193802287DD996
:1099F00098F800000028BCD1E571FFF754FF00285B
:109A0000B7D0FFF7C8FBB4E7206A006807E0206A18
:109A1000406804E0206A806801E0206AC068C0688D
:109A20000028A6D08047A4E76678193E022E09D800
:109A30006170A52180F87D1010684560184604F01B
:109A400006FD64E0FFF79AFA84480068007804286D
:109A50008FD1FBF787FC8CE7012000E00220FFF7A5
:109A600094F900220A23114610460EF010FEBDE8BC
:109A7000F0410A2003F00FBABDE8F041FFF77EBACB
:109A800010684068A0F58062B33A4BD1D7F8040162
:109A9000002847D161703AE0012000E00220FFF782
:109AA00074F90022C823114610460EF0F0FD64231D
:109AB0000AE0FFF7E0FB4FF4FA7305E0206A006864
:109AC000006900B18047C823BDE8F041002211467B
:109AD00010460EF0DCBD6678193E022E1BD8617070
:109AE00000F87D5F09218570417000E01AE0106880
:109AF0004560184604F0ABFC62492F20FDF733FFA8
:109B0000002240F2E733114610460EF0C0FDBDE8DA
:109B1000F0410CF08DB8BDE8F041FEF7C1B8FFF799
:109B2000E8FB26E7BDE8F08157480078002824D0FC
:109B3000564857490068097890F9080008431CD135
:109B40005448D0F81C214749CB7B9A4215D0D0F815
:109B50001C21CA73D0F81C1119B10021C0F8901152
:109B60000CE04D490A7801212AB1012A06D0022AC7
:109B700003D1C0F89811C0F890117047C0F8941143
:109B8000C0F89811704710B5364CA07C002805D15C
:109B90000121042002F01FF90120A07410BD70B54E
:109BA0003E48016821F01F010160016841F00C018D
:109BB00001603A482C38016841F48001016037485F
:109BC000343801688907FCD5344818300068254CC2
:109BD0000025A16A01EB1010A062217C491CC9B2CA
:109BE000217404291BD32574B0F5197F07D3B0F570
:109BF000357F01D3022000E0012020710DE0B0F597
:109C0000077F0BD226482571A57401781548407C42
:109C100011B1401C607401E000B16574A5620020C0
:109C200002F046FA607CB42847D90DF00BFA0FF029
:109C30001DF8032003F089F81A48C0F8AC51C0F8A9
:109C4000B0511448C0F8BC51002008F02AF82BE0AD
:109C5000C0000020A5000020008021420803002051
:109C6000D402002010000020FB020020000021424E
:109C700028D2010806030020C8100020BC000020E4
:109C800000FE01087CD20108A3000020D0020020C1
:109C9000FA02002000002342F40200203424014094
:109CA000DB02002000802242012108460FF099FECD
:109CB000BDE87040032003F048B870BD0E4C20781A
:109CC00008B1FFF709FEFFF72FFF07F023FA002284
:109CD0000A23114610460EF0DAFCF0E710B5074CE7
:109CE0002078042804D1012003F0DDF80020207042
:109CF00003490220086010BDA4000020AD00002030
:109D000014040140F74810B5816941F004018161F4
:109D1000F548016821F470210160016841F40021D7
:109D20000160F1480C30016841F01001016001222E
:109D30000421002003F073F80223BDE810400A223A
:109D40001946184603F02EB810B5FCF735F8482828
:109D50001ED24FF4FA7002F0AAFDFCF72DF8482845
:109D600016D20DF06FF9032002F0EFFFDF4800215B
:109D7000C0F8AC11C0F8B011084607F092FF0121FD
:109D800008460FF02EFEBDE81040032002F0DDBFB4
:109D900010BD30B5D6490120D64A48720020107057
:109DA000D54A087313786BB1D44BD54C1B7823700C
:109DB000D44B1C78D44BDD692C70D44CDB682478F0
:109DC0001C8010700873C871D14A887108721070B5
:109DD000D04A1070D04A1070D04A1070D04A8870A3
:109DE000C8701060CF4ACB6912781A70C44A8032AA
:109DF00042F81F0F1071C24A9C3290601073CA4A19
:109E000010700871C949087030BD10B5482140F282
:109E1000523007F050FBBDE81040FBF7A3BAC4492D
:109E20000120C1F888017047B148C249C24A437B4A
:109E3000002013B9C1F8BC0110701070C1F8940172
:109E4000704770B5AA48BD4AC18A491C89B2C1820F
:109E50001268914235D30024C482018BB94A491C4F
:109E60008BB2B74903830D78B6490831AB421AD398
:109E7000138823F4E0431380138843F48043138052
:109E80000A8822F480520A800483AF480068007870
:109E9000042816D107F05AFBBDE87040482140F273
:109EA000523007F008BBD8070CD0108820F4E040EF
:109EB0001080108840F480401080088820F4805082
:109EC000088070BDBDE8704090224821880004F0F1
:109ED00036BB9E4810B50068007C78B984480021E4
:109EE000027A82487AB10122C0F8B021C0F8AC11E0
:109EF0008F48C0F8BC1196480170417087480078BF
:109F0000072805D006E0C0F8AC11C0F8B011EFE7A3
:109F1000FEF795FFFFF7C7FC002804D08D480188A5
:109F200041F00101018010BDFFF739FE00220A2334
:109F3000114610460EF0ABFBF6E710B5864CD4F890
:109F40003401002851D0D4F8000100284DD100225E
:109F50003223114610460EF09AFBD4F83401002843
:109F600043D0D4F8000100283FD16148807968B11E
:109F700000220121AC2003F012FF002007F091FE27
:109F800000223223114610460EF081FB04F06EFAD7
:109F9000012003F053F804F03DF9FFF7FAFE4FF407
:109FA000E131242003F039FEFBF77AFE07F072FD61
:109FB000002007F076FEFFF7C7FEFDF72BFE4FF4FB
:109FC000967002F074FCD4F8000108B1FFF7B7F8FE
:109FD00000226423114610460EF059FB5F49002011
:109FE0000870BDE8104002F091BA10BD2DE9FC5F89
:109FF0000026304607F055FE0CF0F2F800245848D1
:10A00000CDE90004182316224B21042007F04AFD55
:10A0100036494FF00108C1F8B481C1F8B881C1F8E0
:10A02000BC81434FC7F89041C7F89841C7F89841A1
:10A030000A2002F038FF042002F035FF052002F06C
:10A0400032FF3648047033480470FBF793FE3E48F5
:10A0500000680078042801D107F078FA03F0BBF813
:10A060000A2002F024FC224D0420DFF8E09048F69C
:10A07000A04A68734FEACA0B642002F018FCD9F8B2
:10A0800000103046761C91F90B10002901DD514675
:10A0900000E05946884202D9002603F05AF9687B4D
:10A0A0000428E9D003F010F9042002F0F4FE0520A2
:10A0B00002F0F1FE0A2002F0EEFEFBF757FE264802
:10A0C000D0F8140168B10121002004F0ADFC01209A
:10A0D00002F0EDFB04F058FC85F8028085F80D8055
:10A0E0004BE03FE0001002400008014000802242A7
:10A0F000A000002099000020FB020020FC020020AC
:10A10000C8100020FD02002064070020FE0200208D
:10A110002200002014000020150000201100002063
:10A120002800002010000020EC020020EB0200209C
:10A130000000234200002242FA0200209400002086
:10A14000980000201804004008030020D0020020DE
:10A150009B00002006030020000021420C0000208C
:10A160004AC001080221002004F05EFCFE48C0F84D
:10A170009041C7F8A441AC706C73002007F091FDCA
:10A18000FA48018841F001010180BDE8FC9F70B5EB
:10A19000F74CF94A00232068126890F90050F548FE
:10A1A0000168491C042D36D0022D31D0F34C92F9B0
:10A1B0000120647B224301D0016800E00160B1F519
:10A1C000E16F44D9EE4903600120C1F89C010022EF
:10A1D0004FF4FA73114610460EF059FA002201218D
:10A1E000AC2003F0DCFD00221E23114610460EF0C9
:10A1F0004EFA00220521B02003F0D1FD00221E23DB
:10A20000114610460EF043FABDE8704003F0A1B8C5
:10A21000DC4D2D7805B9016092F90A10002902DDA4
:10A2200042F6E06100E0D84902688A420FD9036033
:10A23000FFF7DCFE20680078042808D1482140F2AE
:10A24000523007F038F9BDE87040FBF78BB870BDAD
:10A25000C74810B500680022CC4B90F90010C748E1
:10A26000042904D0022902D0017D71B910BDC17C3E
:10A270004C1CE4B20F2901D2C47410BD102904D2C1
:10A280000121C3F890110175F6E7C3F89021C2745B
:10A29000027510BD2DE9F04F00230B604B6014E0F8
:10A2A0000C8830F833502C440C8000EBC3044D88EC
:10A2B00066885B1C35444D808D88A688DBB23544AA
:10A2C0008D80CD88E4882C44CC809342E8D30888E4
:10A2D000B0FBF2F008804888B0FBF2F04880888834
:10A2E000B0FBF2F08880C888B0FBF2F0C880002094
:10A2F0004FF4C87231F81030934201D221F8102087
:10A30000401CC0B20428F5D3A14A4FF434774FF46F
:10A31000BE6B92F87F0040F64855B528088841F298
:10A3200068064FF4286E40F2DC5840F6980940F673
:10A33000B83A4FF4487C40F21F330ED0A0F62512F5
:10A340009A4209D24A88BA4206D95A4504D28A8822
:10A35000002A01D062450DD3BEE0A0F625149C4230
:10A360000BD24C88BC4208D95C4506D28C8824B1FB
:10A37000644502D20120BDE8F08FA0F661149C4232
:10A380000CD24F88AF4209D9B74207D28D887545A4
:10A3900004D9B5F55A6F01D20220ECE7A0F2D175CD
:10A3A0009D4209D24D88B5F52F7F05D9454503D289
:10A3B0008D880DB16545DDD39C420BD24B88B3F53A
:10A3C0002F6F07D9B3F5616F04D28B884B4501D944
:10A3D0005345E1D3B2F88030A3F5C874A04219DD2B
:10A3E00003F5C873984215D2B2F882304C88A3F5B1
:10A3F000C875AC420EDD03F5C8739C420AD2B2F8B0
:10A4000084308C88A3F5C875AC4203DD03F5C873AE
:10A410009C42AFD3B2F88630A3F5C874A04219DDD0
:10A4200003F5C873984215D2B2F888304C88A3F56A
:10A43000C875AC420EDD03F5C8739C420AD2B2F86F
:10A440008A308C88A3F5C875AC4203DD03F5C87368
:10A450009C42A1D3B2F88C30A3F5C874A04219DD98
:10A4600003F5C873984215D2B2F88E304C88A3F524
:10A47000C875AC420EDD03F5C8739C420AD2B2F82F
:10A4800090308C88A3F5C875AC4203DD03F5C87322
:10A490009C4290D3B2F89230A3F5C874A04219DD63
:10A4A00003F5C873984215D2B2F894004B88A0F512
:10A4B000C874A3420EDD00F5C87083420AD2B2F818
:10A4C00096008988A0F5C872914203DD00F5C87036
:10A4D0008142BED300204EE7A0F661129A420AD212
:10A4E0004C88AC4207D9B44205D28C88744502D955
:10A4F000B4F55A6FADD3A0F2D170984209D2488812
:10A50000B0F52F7F05D9404503D2888808B1604552
:10A51000BFD39A42DED24888B0F52F6FDAD9B0F5B2
:10A52000616FD7D288884845D4D95045D2D233E715
:10A530002DE9F04F8FB0302168460FF0CCFE4FF080
:10A5400000090F4DCDF83090CDF83490D5F81011AA
:10A550004F464E464C46DFF824804FF0010A98F8EB
:10A56000090081427ED015E000002242060300204F
:10A570000803002028000020D0020020A0000020B6
:10A5800000802242EB02002040190100000023421B
:10A59000C810002000224FF4FA73114610460EF046
:10A5A00076F8D5F8101198F809204046914261D00C
:10A5B000D5F8101111F0FF01417288F80B9058D1B5
:10A5C000DFF84CB4C5F894A10022C8231146104608
:10A5D0000EF05DF804F0C2F90CE0002201231146F0
:10A5E00010460EF054F83046761CF6B2642801D9B5
:10A5F000002603E004F0B4F90028EED098F80B0030
:10A60000A8B9684600EBC704A31D221DA11C204663
:10A6100004F0B4F9204601220CA9FFF73BFE88F8AC
:10A620000B0020B1FB48018841F00101018004F0DA
:10A6300096F9C5F89491D5F8100110B9DBF800012E
:10A6400058B900221E23114610460EF020F8D5F806
:10A65000100170B9DBF8000158B1C823002211467F
:10A66000104600E006E00EF012F87F1CFFB2052F46
:10A67000A8D30124E84ED6F8100198F80E104546EC
:10A68000884204D1D6F81C01E97B884231D00022EF
:10A690006423114610460DF0FAFFD6F81001A97B8D
:10A6A000884204D1D6F81C01E97B884221D0D6F833
:10A6B0001C0140B1D6F8100110B185F80A9004E0F1
:10A6C0000220A87201E085F80AA0D6F81001A8734C
:10A6D000D6F81C01E873D148C169097859B9A97A3B
:10A6E000022902D0297C817405E0817C2974232110
:10A6F000F9E7002C04D0C748018841F0010101802E
:10A700000FB038E62DE9F0438FB000242646302103
:10A7100068460FF0E0FD0027C14D0C970D97D5F866
:10A720001011DFF8008398F80900814273D00022ED
:10A730006423114610460DF0AAFFD5F8101198F8C1
:10A740000920914267D0D5F8101111F0FF0188F867
:10A75000091077D14FF00109C5F894910022C82360
:10A76000114610460DF093FF04F0F8F80CE00022BB
:10A770000123114610460DF08AFF3046761CF6B2D2
:10A78000642801D9002603E004F0EAF80028EED09E
:10A79000684600EBC400831D021D811C04F0EEF826
:10A7A00004F0DDF8C5F894710022C8231146104664
:10A7B0000DF06DFF641CE4B2052CCDD305220CA96D
:10A7C0006846FFF767FD984988F80B00B52081F8C7
:10A7D0007F00964802784FF4C87032B1012A1BD02E
:10A7E000022A30D0032A59D143E0BDF830208242FA
:10A7F00000D80246A1F88020BDF83220824200D85D
:10A800000246A1F88220BDF83420824200D91046C9
:10A81000A1F8840042E046E0BDF83020824200D832
:10A820000246A1F88620BDF83220824200D80246B6
:10A83000A1F88820BDF83420824200D91046A1F842
:10A840008A002BE02DE0BDF83020824200D802467D
:10A85000A1F88C20BDF83220824200D80246A1F82F
:10A860008E20BDF83420824200D91046A1F8900015
:10A8700014E0BDF83020824200D80246A1F89220B0
:10A88000BDF83220824200D80246A1F89420BDF8DB
:10A890003420824200D91046A1F89600644803F0A3
:10A8A000D6FD0BF0C5F90FB0BDE8F083F8B56148EF
:10A8B0005C4D006890F9100008B1022822D15F4970
:10A8C0005D4800220C680068564990F900600B7AD8
:10A8D00053480121072E0FD2DFE806F004191E1994
:10A8E0001E1E190094F9014013E0FBB100E0C3B152
:10A8F000C0F8B011C0F8AC215148C0F8BC115148A3
:10A90000017041706946286B0EF08AF8F8BD94F921
:10A910000240002CEBDDE8E794F90340002CE6DC74
:10A92000E3E7C0F8AC11C0F8B021E5E7C0F8AC111E
:10A93000C0F8B011E0E73B48016AB1F5F05F09D912
:10A94000017A41F0020101723248018841F00101AF
:10A950000180ABE7704770B53B48016821F01F01EB
:10A960000160016841F00B01016037482C38016833
:10A9700041F4800101603448343801688907FCD50E
:10A98000314818300068274C616A01EB1011616290
:10A99000607C401CC0B26074042827D30020C1F33F
:10A9A000870360741B4922466062957C0A88C82B25
:10A9B00042F4804209D901232DB90A801849C1F80F
:10A9C000B031C1F8AC01A37408E0B42B04D24DB18E
:10A9D000A0740A80FFF76AFFA07C18B1207A40F0CB
:10A9E000010002E0207A20F00100207270BD10B555
:10A9F000FFF7B1FFBDE810409DE7054D094C134E30
:10AA0000D5F8000130B3607910B3401E607121E0C9
:10AA1000000021420603002000802142640700203C
:10AA200000802242A0000020C810002090000020DA
:10AA300000FE0108D002002008030020D4020020FC
:10AA4000000023429B00002034240140110000201C
:10AA500001F082FDFFF7CBFF30781938022802D8C9
:10AA6000FFF750FE01E0FFF763FDFFF7F1FBFFF793
:10AA70008EFBFFF762FA00223223114610460DF0DA
:10AA800006FEBDE7FB4900200870FB490873FB493F
:10AA9000C1F8B801704770B5F84D04460120C5F8FB
:10AAA000B801142001F01CFF41F28750844200D904
:10AAB0000446F348007A10B9A0B202F01AF8F1493E
:10AAC0000020C1F88C01C5F8B80170BDEE4A10B580
:10AAD000D268C01C00EB400012880844142A04D13C
